{
  "_format": "hh-sol-artifact-1",
  "contractName": "NFTCollection",
  "sourceName": "contracts/NFTMarketplace.sol",
  "abi": [
    {
      "inputs": [],
      "stateMutability": "nonpayable",
      "type": "constructor"
    },
    {
      "inputs": [
        {
          "internalType": "address",
          "name": "sender",
          "type": "address"
        },
        {
          "internalType": "uint256",
          "name": "tokenId",
          "type": "uint256"
        },
        {
          "internalType": "address",
          "name": "owner",
          "type": "address"
        }
      ],
      "name": "ERC721IncorrectOwner",
      "type": "error"
    },
    {
      "inputs": [
        {
          "internalType": "address",
          "name": "operator",
          "type": "address"
        },
        {
          "internalType": "uint256",
          "name": "tokenId",
          "type": "uint256"
        }
      ],
      "name": "ERC721InsufficientApproval",
      "type": "error"
    },
    {
      "inputs": [
        {
          "internalType": "address",
          "name": "approver",
          "type": "address"
        }
      ],
      "name": "ERC721InvalidApprover",
      "type": "error"
    },
    {
      "inputs": [
        {
          "internalType": "address",
          "name": "operator",
          "type": "address"
        }
      ],
      "name": "ERC721InvalidOperator",
      "type": "error"
    },
    {
      "inputs": [
        {
          "internalType": "address",
          "name": "owner",
          "type": "address"
        }
      ],
      "name": "ERC721InvalidOwner",
      "type": "error"
    },
    {
      "inputs": [
        {
          "internalType": "address",
          "name": "receiver",
          "type": "address"
        }
      ],
      "name": "ERC721InvalidReceiver",
      "type": "error"
    },
    {
      "inputs": [
        {
          "internalType": "address",
          "name": "sender",
          "type": "address"
        }
      ],
      "name": "ERC721InvalidSender",
      "type": "error"
    },
    {
      "inputs": [
        {
          "internalType": "uint256",
          "name": "tokenId",
          "type": "uint256"
        }
      ],
      "name": "ERC721NonexistentToken",
      "type": "error"
    },
    {
      "anonymous": false,
      "inputs": [
        {
          "indexed": true,
          "internalType": "address",
          "name": "owner",
          "type": "address"
        },
        {
          "indexed": true,
          "internalType": "address",
          "name": "approved",
          "type": "address"
        },
        {
          "indexed": true,
          "internalType": "uint256",
          "name": "tokenId",
          "type": "uint256"
        }
      ],
      "name": "Approval",
      "type": "event"
    },
    {
      "anonymous": false,
      "inputs": [
        {
          "indexed": true,
          "internalType": "address",
          "name": "owner",
          "type": "address"
        },
        {
          "indexed": true,
          "internalType": "address",
          "name": "operator",
          "type": "address"
        },
        {
          "indexed": false,
          "internalType": "bool",
          "name": "approved",
          "type": "bool"
        }
      ],
      "name": "ApprovalForAll",
      "type": "event"
    },
    {
      "anonymous": false,
      "inputs": [
        {
          "indexed": false,
          "internalType": "uint256",
          "name": "_fromTokenId",
          "type": "uint256"
        },
        {
          "indexed": false,
          "internalType": "uint256",
          "name": "_toTokenId",
          "type": "uint256"
        }
      ],
      "name": "BatchMetadataUpdate",
      "type": "event"
    },
    {
      "anonymous": false,
      "inputs": [
        {
          "indexed": false,
          "internalType": "uint256",
          "name": "_tokenId",
          "type": "uint256"
        }
      ],
      "name": "MetadataUpdate",
      "type": "event"
    },
    {
      "anonymous": false,
      "inputs": [
        {
          "indexed": true,
          "internalType": "address",
          "name": "owner",
          "type": "address"
        },
        {
          "indexed": true,
          "internalType": "uint256",
          "name": "tokenId",
          "type": "uint256"
        }
      ],
      "name": "NFTMinted",
      "type": "event"
    },
    {
      "anonymous": false,
      "inputs": [
        {
          "indexed": true,
          "internalType": "address",
          "name": "from",
          "type": "address"
        },
        {
          "indexed": true,
          "internalType": "address",
          "name": "to",
          "type": "address"
        },
        {
          "indexed": false,
          "internalType": "uint256",
          "name": "price",
          "type": "uint256"
        }
      ],
      "name": "NFTSelled",
      "type": "event"
    },
    {
      "anonymous": false,
      "inputs": [
        {
          "indexed": true,
          "internalType": "address",
          "name": "from",
          "type": "address"
        },
        {
          "indexed": true,
          "internalType": "address",
          "name": "to",
          "type": "address"
        },
        {
          "indexed": true,
          "internalType": "uint256",
          "name": "tokenId",
          "type": "uint256"
        }
      ],
      "name": "Transfer",
      "type": "event"
    },
    {
      "inputs": [],
      "name": "NFTCount",
      "outputs": [
        {
          "internalType": "uint256",
          "name": "",
          "type": "uint256"
        }
      ],
      "stateMutability": "view",
      "type": "function"
    },
    {
      "inputs": [
        {
          "internalType": "address",
          "name": "to",
          "type": "address"
        },
        {
          "internalType": "uint256",
          "name": "tokenId",
          "type": "uint256"
        }
      ],
      "name": "approve",
      "outputs": [],
      "stateMutability": "nonpayable",
      "type": "function"
    },
    {
      "inputs": [
        {
          "internalType": "address",
          "name": "owner",
          "type": "address"
        }
      ],
      "name": "balanceOf",
      "outputs": [
        {
          "internalType": "uint256",
          "name": "",
          "type": "uint256"
        }
      ],
      "stateMutability": "view",
      "type": "function"
    },
    {
      "inputs": [
        {
          "internalType": "uint256",
          "name": "_tokenId",
          "type": "uint256"
        },
        {
          "internalType": "uint256",
          "name": "_expirationDate",
          "type": "uint256"
        }
      ],
      "name": "createOffer",
      "outputs": [],
      "stateMutability": "payable",
      "type": "function"
    },
    {
      "inputs": [
        {
          "internalType": "uint256",
          "name": "_tokenId",
          "type": "uint256"
        }
      ],
      "name": "finalizeAuction",
      "outputs": [],
      "stateMutability": "nonpayable",
      "type": "function"
    },
    {
      "inputs": [
        {
          "internalType": "uint256",
          "name": "tokenId",
          "type": "uint256"
        }
      ],
      "name": "getApproved",
      "outputs": [
        {
          "internalType": "address",
          "name": "",
          "type": "address"
        }
      ],
      "stateMutability": "view",
      "type": "function"
    },
    {
      "inputs": [
        {
          "internalType": "uint256",
          "name": "_tokenId",
          "type": "uint256"
        }
      ],
      "name": "getNFTByTokenId",
      "outputs": [
        {
          "components": [
            {
              "internalType": "uint256",
              "name": "tokenId",
              "type": "uint256"
            },
            {
              "internalType": "address",
              "name": "creator",
              "type": "address"
            },
            {
              "internalType": "address",
              "name": "owner",
              "type": "address"
            },
            {
              "internalType": "string",
              "name": "uri",
              "type": "string"
            },
            {
              "internalType": "uint256",
              "name": "price",
              "type": "uint256"
            },
            {
              "internalType": "bool",
              "name": "isListed",
              "type": "bool"
            },
            {
              "internalType": "uint256",
              "name": "timestamp",
              "type": "uint256"
            }
          ],
          "internalType": "struct NFTCollection.NFT",
          "name": "",
          "type": "tuple"
        }
      ],
      "stateMutability": "view",
      "type": "function"
    },
    {
      "inputs": [],
      "name": "getNFTs",
      "outputs": [
        {
          "components": [
            {
              "internalType": "uint256",
              "name": "tokenId",
              "type": "uint256"
            },
            {
              "internalType": "address",
              "name": "creator",
              "type": "address"
            },
            {
              "internalType": "address",
              "name": "owner",
              "type": "address"
            },
            {
              "internalType": "string",
              "name": "uri",
              "type": "string"
            },
            {
              "internalType": "uint256",
              "name": "price",
              "type": "uint256"
            },
            {
              "internalType": "bool",
              "name": "isListed",
              "type": "bool"
            },
            {
              "internalType": "uint256",
              "name": "timestamp",
              "type": "uint256"
            }
          ],
          "internalType": "struct NFTCollection.NFT[]",
          "name": "",
          "type": "tuple[]"
        }
      ],
      "stateMutability": "view",
      "type": "function"
    },
    {
      "inputs": [
        {
          "internalType": "address",
          "name": "_address",
          "type": "address"
        }
      ],
      "name": "getNFTsByOwner",
      "outputs": [
        {
          "components": [
            {
              "internalType": "uint256",
              "name": "tokenId",
              "type": "uint256"
            },
            {
              "internalType": "address",
              "name": "creator",
              "type": "address"
            },
            {
              "internalType": "address",
              "name": "owner",
              "type": "address"
            },
            {
              "internalType": "string",
              "name": "uri",
              "type": "string"
            },
            {
              "internalType": "uint256",
              "name": "price",
              "type": "uint256"
            },
            {
              "internalType": "bool",
              "name": "isListed",
              "type": "bool"
            },
            {
              "internalType": "uint256",
              "name": "timestamp",
              "type": "uint256"
            }
          ],
          "internalType": "struct NFTCollection.NFT[]",
          "name": "",
          "type": "tuple[]"
        }
      ],
      "stateMutability": "view",
      "type": "function"
    },
    {
      "inputs": [
        {
          "internalType": "uint256",
          "name": "_tokenId",
          "type": "uint256"
        }
      ],
      "name": "getOffersByTokenId",
      "outputs": [
        {
          "components": [
            {
              "internalType": "uint256",
              "name": "offerId",
              "type": "uint256"
            },
            {
              "internalType": "uint256",
              "name": "tokenId",
              "type": "uint256"
            },
            {
              "internalType": "address",
              "name": "buyer",
              "type": "address"
            },
            {
              "internalType": "uint256",
              "name": "price",
              "type": "uint256"
            },
            {
              "internalType": "uint256",
              "name": "expirationDate",
              "type": "uint256"
            }
          ],
          "internalType": "struct NFTCollection.NFTOffer[]",
          "name": "",
          "type": "tuple[]"
        }
      ],
      "stateMutability": "view",
      "type": "function"
    },
    {
      "inputs": [
        {
          "internalType": "address",
          "name": "owner",
          "type": "address"
        },
        {
          "internalType": "address",
          "name": "operator",
          "type": "address"
        }
      ],
      "name": "isApprovedForAll",
      "outputs": [
        {
          "internalType": "bool",
          "name": "",
          "type": "bool"
        }
      ],
      "stateMutability": "view",
      "type": "function"
    },
    {
      "inputs": [
        {
          "internalType": "string",
          "name": "_uri",
          "type": "string"
        },
        {
          "internalType": "uint256",
          "name": "_price",
          "type": "uint256"
        }
      ],
      "name": "mintNFT",
      "outputs": [],
      "stateMutability": "nonpayable",
      "type": "function"
    },
    {
      "inputs": [],
      "name": "name",
      "outputs": [
        {
          "internalType": "string",
          "name": "",
          "type": "string"
        }
      ],
      "stateMutability": "view",
      "type": "function"
    },
    {
      "inputs": [
        {
          "internalType": "uint256",
          "name": "",
          "type": "uint256"
        }
      ],
      "name": "nftList",
      "outputs": [
        {
          "internalType": "uint256",
          "name": "tokenId",
          "type": "uint256"
        },
        {
          "internalType": "address",
          "name": "creator",
          "type": "address"
        },
        {
          "internalType": "address",
          "name": "owner",
          "type": "address"
        },
        {
          "internalType": "string",
          "name": "uri",
          "type": "string"
        },
        {
          "internalType": "uint256",
          "name": "price",
          "type": "uint256"
        },
        {
          "internalType": "bool",
          "name": "isListed",
          "type": "bool"
        },
        {
          "internalType": "uint256",
          "name": "timestamp",
          "type": "uint256"
        }
      ],
      "stateMutability": "view",
      "type": "function"
    },
    {
      "inputs": [],
      "name": "offersCount",
      "outputs": [
        {
          "internalType": "uint256",
          "name": "",
          "type": "uint256"
        }
      ],
      "stateMutability": "view",
      "type": "function"
    },
    {
      "inputs": [
        {
          "internalType": "uint256",
          "name": "",
          "type": "uint256"
        }
      ],
      "name": "offersList",
      "outputs": [
        {
          "internalType": "uint256",
          "name": "offerId",
          "type": "uint256"
        },
        {
          "internalType": "uint256",
          "name": "tokenId",
          "type": "uint256"
        },
        {
          "internalType": "address",
          "name": "buyer",
          "type": "address"
        },
        {
          "internalType": "uint256",
          "name": "price",
          "type": "uint256"
        },
        {
          "internalType": "uint256",
          "name": "expirationDate",
          "type": "uint256"
        }
      ],
      "stateMutability": "view",
      "type": "function"
    },
    {
      "inputs": [
        {
          "internalType": "uint256",
          "name": "tokenId",
          "type": "uint256"
        }
      ],
      "name": "ownerOf",
      "outputs": [
        {
          "internalType": "address",
          "name": "",
          "type": "address"
        }
      ],
      "stateMutability": "view",
      "type": "function"
    },
    {
      "inputs": [
        {
          "internalType": "address",
          "name": "from",
          "type": "address"
        },
        {
          "internalType": "address",
          "name": "to",
          "type": "address"
        },
        {
          "internalType": "uint256",
          "name": "tokenId",
          "type": "uint256"
        }
      ],
      "name": "safeTransferFrom",
      "outputs": [],
      "stateMutability": "nonpayable",
      "type": "function"
    },
    {
      "inputs": [
        {
          "internalType": "address",
          "name": "from",
          "type": "address"
        },
        {
          "internalType": "address",
          "name": "to",
          "type": "address"
        },
        {
          "internalType": "uint256",
          "name": "tokenId",
          "type": "uint256"
        },
        {
          "internalType": "bytes",
          "name": "data",
          "type": "bytes"
        }
      ],
      "name": "safeTransferFrom",
      "outputs": [],
      "stateMutability": "nonpayable",
      "type": "function"
    },
    {
      "inputs": [
        {
          "internalType": "address",
          "name": "operator",
          "type": "address"
        },
        {
          "internalType": "bool",
          "name": "approved",
          "type": "bool"
        }
      ],
      "name": "setApprovalForAll",
      "outputs": [],
      "stateMutability": "nonpayable",
      "type": "function"
    },
    {
      "inputs": [
        {
          "internalType": "bytes4",
          "name": "interfaceId",
          "type": "bytes4"
        }
      ],
      "name": "supportsInterface",
      "outputs": [
        {
          "internalType": "bool",
          "name": "",
          "type": "bool"
        }
      ],
      "stateMutability": "view",
      "type": "function"
    },
    {
      "inputs": [],
      "name": "symbol",
      "outputs": [
        {
          "internalType": "string",
          "name": "",
          "type": "string"
        }
      ],
      "stateMutability": "view",
      "type": "function"
    },
    {
      "inputs": [
        {
          "internalType": "uint256",
          "name": "tokenId",
          "type": "uint256"
        }
      ],
      "name": "tokenURI",
      "outputs": [
        {
          "internalType": "string",
          "name": "",
          "type": "string"
        }
      ],
      "stateMutability": "view",
      "type": "function"
    },
    {
      "inputs": [
        {
          "internalType": "address",
          "name": "from",
          "type": "address"
        },
        {
          "internalType": "address",
          "name": "to",
          "type": "address"
        },
        {
          "internalType": "uint256",
          "name": "tokenId",
          "type": "uint256"
        }
      ],
      "name": "transferFrom",
      "outputs": [],
      "stateMutability": "nonpayable",
      "type": "function"
    }
  ],
  "bytecode": "0x60a060405234801561001057600080fd5b506040518060400160405280600e81526020017f4e465420436f6c6c656374696f6e0000000000000000000000000000000000008152506040518060400160405280600481526020017f4e46544300000000000000000000000000000000000000000000000000000000815250816000908161008c9190610328565b50806001908161009c9190610328565b5050503373ffffffffffffffffffffffffffffffffffffffff1660808173ffffffffffffffffffffffffffffffffffffffff16815250506103fa565b600081519050919050565b7f4e487b7100000000000000000000000000000000000000000000000000000000600052604160045260246000fd5b7f4e487b7100000000000000000000000000000000000000000000000000000000600052602260045260246000fd5b6000600282049050600182168061015957607f821691505b60208210810361016c5761016b610112565b5b50919050565b60008190508160005260206000209050919050565b60006020601f8301049050919050565b600082821b905092915050565b6000600883026101d47fffffffffffffffffffffffffffffffffffffffffffffffffffffffffffffffff82610197565b6101de8683610197565b95508019841693508086168417925050509392505050565b6000819050919050565b6000819050919050565b600061022561022061021b846101f6565b610200565b6101f6565b9050919050565b6000819050919050565b61023f8361020a565b61025361024b8261022c565b8484546101a4565b825550505050565b600090565b61026861025b565b610273818484610236565b505050565b5b818110156102975761028c600082610260565b600181019050610279565b5050565b601f8211156102dc576102ad81610172565b6102b684610187565b810160208510156102c5578190505b6102d96102d185610187565b830182610278565b50505b505050565b600082821c905092915050565b60006102ff600019846008026102e1565b1980831691505092915050565b600061031883836102ee565b9150826002028217905092915050565b610331826100d8565b67ffffffffffffffff81111561034a576103496100e3565b5b6103548254610141565b61035f82828561029b565b600060209050601f8311600181146103925760008415610380578287015190505b61038a858261030c565b8655506103f2565b601f1984166103a086610172565b60005b828110156103c8578489015182556001820191506020850194506020810190506103a3565b868310156103e557848901516103e1601f8916826102ee565b8355505b6001600288020188555050505b505050505050565b608051614b7061041260003960005050614b706000f3fe60806040526004361061014b5760003560e01c806370a08231116100b6578063c87b56dd1161006f578063c87b56dd146104c3578063cb7728ea14610500578063e2afe8b31461052b578063e808386314610568578063e8e4eac314610591578063e985e9c5146105ce5761014b565b806370a082311461039b57806375bea166146103d857806395d89b411461041b578063a22cb46514610446578063b88d4fde1461046f578063bec02acc146104985761014b565b8063227212f211610108578063227212f21461027b57806323b872dd146102a657806342842e0e146102cf57806356439ad0146102f85780635afa3a72146103355780636352211e1461035e5761014b565b806301ffc9a71461015057806306fdde031461018d578063081812fc146101b857806308f33bc8146101f5578063095ea7b3146102365780631afed8751461025f575b600080fd5b34801561015c57600080fd5b506101776004803603810190610172919061379a565b61060b565b60405161018491906137e2565b60405180910390f35b34801561019957600080fd5b506101a261066c565b6040516101af919061388d565b60405180910390f35b3480156101c457600080fd5b506101df60048036038101906101da91906138e5565b6106fe565b6040516101ec9190613953565b60405180910390f35b34801561020157600080fd5b5061021c600480360381019061021791906138e5565b61071a565b60405161022d95949392919061397d565b60405180910390f35b34801561024257600080fd5b5061025d600480360381019061025891906139fc565b610780565b005b61027960048036038101906102749190613a3c565b610796565b005b34801561028757600080fd5b50610290610bb5565b60405161029d9190613c51565b60405180910390f35b3480156102b257600080fd5b506102cd60048036038101906102c89190613c73565b610d8b565b005b3480156102db57600080fd5b506102f660048036038101906102f19190613c73565b610e8d565b005b34801561030457600080fd5b5061031f600480360381019061031a91906138e5565b610ead565b60405161032c9190613ddd565b60405180910390f35b34801561034157600080fd5b5061035c60048036038101906103579190613f34565b611093565b005b34801561036a57600080fd5b50610385600480360381019061038091906138e5565b611286565b6040516103929190613953565b60405180910390f35b3480156103a757600080fd5b506103c260048036038101906103bd9190613f90565b611298565b6040516103cf9190613fbd565b60405180910390f35b3480156103e457600080fd5b506103ff60048036038101906103fa91906138e5565b611352565b6040516104129796959493929190613fd8565b60405180910390f35b34801561042757600080fd5b50610430611479565b60405161043d919061388d565b60405180910390f35b34801561045257600080fd5b5061046d6004803603810190610468919061407a565b61150b565b005b34801561047b57600080fd5b506104966004803603810190610491919061415b565b611521565b005b3480156104a457600080fd5b506104ad611546565b6040516104ba9190613fbd565b60405180910390f35b3480156104cf57600080fd5b506104ea60048036038101906104e591906138e5565b61154c565b6040516104f7919061388d565b60405180910390f35b34801561050c57600080fd5b5061051561165f565b6040516105229190613fbd565b60405180910390f35b34801561053757600080fd5b50610552600480360381019061054d9190613f90565b611665565b60405161055f9190613c51565b60405180910390f35b34801561057457600080fd5b5061058f600480360381019061058a91906138e5565b6119dc565b005b34801561059d57600080fd5b506105b860048036038101906105b391906138e5565b611ffb565b6040516105c5919061427a565b60405180910390f35b3480156105da57600080fd5b506105f560048036038101906105f0919061429c565b612209565b60405161060291906137e2565b60405180910390f35b6000634906490660e01b7bffffffffffffffffffffffffffffffffffffffffffffffffffffffff1916827bffffffffffffffffffffffffffffffffffffffffffffffffffffffff1916148061066557506106648261229d565b5b9050919050565b60606000805461067b9061430b565b80601f01602080910402602001604051908101604052809291908181526020018280546106a79061430b565b80156106f45780601f106106c9576101008083540402835291602001916106f4565b820191906000526020600020905b8154815290600101906020018083116106d757829003601f168201915b5050505050905090565b60006107098261237f565b5061071382612407565b9050919050565b600a818154811061072a57600080fd5b90600052602060002090600502016000915090508060000154908060010154908060020160009054906101000a900473ffffffffffffffffffffffffffffffffffffffff16908060030154908060040154905085565b610792828261078d612444565b61244c565b5050565b4281116107d8576040517f08c379a00000000000000000000000000000000000000000000000000000000081526004016107cf906143ae565b60405180910390fd5b6107e06135fc565b60005b6009805490508110156109d4578360098281548110610805576108046143ce565b5b906000526020600020906007020160000154036109c757600981815481106108305761082f6143ce565b5b90600052602060002090600702016040518060e0016040529081600082015481526020016001820160009054906101000a900473ffffffffffffffffffffffffffffffffffffffff1673ffffffffffffffffffffffffffffffffffffffff1673ffffffffffffffffffffffffffffffffffffffff1681526020016002820160009054906101000a900473ffffffffffffffffffffffffffffffffffffffff1673ffffffffffffffffffffffffffffffffffffffff1673ffffffffffffffffffffffffffffffffffffffff16815260200160038201805461090f9061430b565b80601f016020809104026020016040519081016040528092919081815260200182805461093b9061430b565b80156109885780601f1061095d57610100808354040283529160200191610988565b820191906000526020600020905b81548152906001019060200180831161096b57829003601f168201915b50505050508152602001600482015481526020016005820160009054906101000a900460ff1615151515815260200160068201548152505091506109d4565b80806001019150506107e3565b506000805b600a80549050811015610a795784600a82815481106109fb576109fa6143ce565b5b906000526020600020906005020160010154148015610a3e575081600a8281548110610a2a57610a296143ce565b5b906000526020600020906005020160030154115b15610a6c57600a8181548110610a5757610a566143ce565b5b90600052602060002090600502016003015491505b80806001019150506109d9565b50803411610abc576040517f08c379a0000000000000000000000000000000000000000000000000000000008152600401610ab39061446f565b60405180910390fd5b60086000815480929190610acf906144be565b9190505550600a6040518060a0016040528060085481526020018681526020013373ffffffffffffffffffffffffffffffffffffffff168152602001348152602001858152509080600181540180825580915050600190039060005260206000209060050201600090919091909150600082015181600001556020820151816001015560408201518160020160006101000a81548173ffffffffffffffffffffffffffffffffffffffff021916908373ffffffffffffffffffffffffffffffffffffffff1602179055506060820151816003015560808201518160040155505050505050565b60606009805480602002602001604051908101604052809291908181526020016000905b82821015610d8257838290600052602060002090600702016040518060e0016040529081600082015481526020016001820160009054906101000a900473ffffffffffffffffffffffffffffffffffffffff1673ffffffffffffffffffffffffffffffffffffffff1673ffffffffffffffffffffffffffffffffffffffff1681526020016002820160009054906101000a900473ffffffffffffffffffffffffffffffffffffffff1673ffffffffffffffffffffffffffffffffffffffff1673ffffffffffffffffffffffffffffffffffffffff168152602001600382018054610cc29061430b565b80601f0160208091040260200160405190810160405280929190818152602001828054610cee9061430b565b8015610d3b5780601f10610d1057610100808354040283529160200191610d3b565b820191906000526020600020905b815481529060010190602001808311610d1e57829003601f168201915b50505050508152602001600482015481526020016005820160009054906101000a900460ff1615151515815260200160068201548152505081526020019060010190610bd9565b50505050905090565b600073ffffffffffffffffffffffffffffffffffffffff168273ffffffffffffffffffffffffffffffffffffffff1603610dfd5760006040517f64a0ae92000000000000000000000000000000000000000000000000000000008152600401610df49190613953565b60405180910390fd5b6000610e118383610e0c612444565b61245e565b90508373ffffffffffffffffffffffffffffffffffffffff168173ffffffffffffffffffffffffffffffffffffffff1614610e87578382826040517f64283d7b000000000000000000000000000000000000000000000000000000008152600401610e7e93929190614506565b60405180910390fd5b50505050565b610ea883838360405180602001604052806000815250611521565b505050565b6060600080600090505b600a80549050811015610f0c5783600a8281548110610ed957610ed86143ce565b5b90600052602060002090600502016001015403610eff578180610efb906144be565b9250505b8080600101915050610eb7565b5060008167ffffffffffffffff811115610f2957610f28613e09565b5b604051908082528060200260200182016040528015610f6257816020015b610f4f613667565b815260200190600190039081610f475790505b5090506000805b600a805490508110156110875785600a8281548110610f8b57610f8a6143ce565b5b9060005260206000209060050201600101540361107a57600a8181548110610fb657610fb56143ce565b5b90600052602060002090600502016040518060a001604052908160008201548152602001600182015481526020016002820160009054906101000a900473ffffffffffffffffffffffffffffffffffffffff1673ffffffffffffffffffffffffffffffffffffffff1673ffffffffffffffffffffffffffffffffffffffff168152602001600382015481526020016004820154815250508383815181106110605761105f6143ce565b5b60200260200101819052508180611076906144be565b9250505b8080600101915050610f69565b50819350505050919050565b600760008154809291906110a6906144be565b919050555060006040518060e0016040528060075481526020013373ffffffffffffffffffffffffffffffffffffffff1681526020013373ffffffffffffffffffffffffffffffffffffffff16815260200184815260200183815260200160001515815260200142815250905060098190806001815401808255809150506001900390600052602060002090600702016000909190919091506000820151816000015560208201518160010160006101000a81548173ffffffffffffffffffffffffffffffffffffffff021916908373ffffffffffffffffffffffffffffffffffffffff16021790555060408201518160020160006101000a81548173ffffffffffffffffffffffffffffffffffffffff021916908373ffffffffffffffffffffffffffffffffffffffff16021790555060608201518160030190816111ec91906146e9565b506080820151816004015560a08201518160050160006101000a81548160ff02191690831515021790555060c08201518160060155505061122f33600754612678565b61123b60075484612696565b6007543373ffffffffffffffffffffffffffffffffffffffff167f4cc0a9c4a99ddc700de1af2c9f916a7cbfdb71f14801ccff94061ad1ef8a804060405160405180910390a3505050565b60006112918261237f565b9050919050565b60008073ffffffffffffffffffffffffffffffffffffffff168273ffffffffffffffffffffffffffffffffffffffff160361130b5760006040517f89c62b640000000000000000000000000000000000000000000000000000000081526004016113029190613953565b60405180910390fd5b600360008373ffffffffffffffffffffffffffffffffffffffff1673ffffffffffffffffffffffffffffffffffffffff168152602001908152602001600020549050919050565b6009818154811061136257600080fd5b90600052602060002090600702016000915090508060000154908060010160009054906101000a900473ffffffffffffffffffffffffffffffffffffffff16908060020160009054906101000a900473ffffffffffffffffffffffffffffffffffffffff16908060030180546113d79061430b565b80601f01602080910402602001604051908101604052809291908181526020018280546114039061430b565b80156114505780601f1061142557610100808354040283529160200191611450565b820191906000526020600020905b81548152906001019060200180831161143357829003601f168201915b5050505050908060040154908060050160009054906101000a900460ff16908060060154905087565b6060600180546114889061430b565b80601f01602080910402602001604051908101604052809291908181526020018280546114b49061430b565b80156115015780601f106114d657610100808354040283529160200191611501565b820191906000526020600020905b8154815290600101906020018083116114e457829003601f168201915b5050505050905090565b61151d611516612444565b83836126f2565b5050565b61152c848484610d8b565b611540611537612444565b85858585612861565b50505050565b60085481565b60606115578261237f565b5060006006600084815260200190815260200160002080546115789061430b565b80601f01602080910402602001604051908101604052809291908181526020018280546115a49061430b565b80156115f15780601f106115c6576101008083540402835291602001916115f1565b820191906000526020600020905b8154815290600101906020018083116115d457829003601f168201915b505050505090506000611602612a12565b9050600081510361161757819250505061165a565b60008251111561164c5780826040516020016116349291906147f7565b6040516020818303038152906040529250505061165a565b61165584612a29565b925050505b919050565b60075481565b6060600080600090505b600980549050811015611710578373ffffffffffffffffffffffffffffffffffffffff16600982815481106116a7576116a66143ce565b5b906000526020600020906007020160020160009054906101000a900473ffffffffffffffffffffffffffffffffffffffff1673ffffffffffffffffffffffffffffffffffffffff16036117035781806116ff906144be565b9250505b808060010191505061166f565b5060008167ffffffffffffffff81111561172d5761172c613e09565b5b60405190808252806020026020018201604052801561176657816020015b6117536135fc565b81526020019060019003908161174b5790505b5090506000805b6009805490508110156119d0578573ffffffffffffffffffffffffffffffffffffffff16600982815481106117a5576117a46143ce565b5b906000526020600020906007020160020160009054906101000a900473ffffffffffffffffffffffffffffffffffffffff1673ffffffffffffffffffffffffffffffffffffffff16036119c35760098181548110611806576118056143ce565b5b90600052602060002090600702016040518060e0016040529081600082015481526020016001820160009054906101000a900473ffffffffffffffffffffffffffffffffffffffff1673ffffffffffffffffffffffffffffffffffffffff1673ffffffffffffffffffffffffffffffffffffffff1681526020016002820160009054906101000a900473ffffffffffffffffffffffffffffffffffffffff1673ffffffffffffffffffffffffffffffffffffffff1673ffffffffffffffffffffffffffffffffffffffff1681526020016003820180546118e59061430b565b80601f01602080910402602001604051908101604052809291908181526020018280546119119061430b565b801561195e5780601f106119335761010080835404028352916020019161195e565b820191906000526020600020905b81548152906001019060200180831161194157829003601f168201915b50505050508152602001600482015481526020016005820160009054906101000a900460ff161515151581526020016006820154815250508383815181106119a9576119a86143ce565b5b602002602001018190525081806119bf906144be565b9250505b808060010191505061176d565b50819350505050919050565b6119e46135fc565b60005b600980549050811015611bd8578260098281548110611a0957611a086143ce565b5b90600052602060002090600702016000015403611bcb5760098181548110611a3457611a336143ce565b5b90600052602060002090600702016040518060e0016040529081600082015481526020016001820160009054906101000a900473ffffffffffffffffffffffffffffffffffffffff1673ffffffffffffffffffffffffffffffffffffffff1673ffffffffffffffffffffffffffffffffffffffff1681526020016002820160009054906101000a900473ffffffffffffffffffffffffffffffffffffffff1673ffffffffffffffffffffffffffffffffffffffff1673ffffffffffffffffffffffffffffffffffffffff168152602001600382018054611b139061430b565b80601f0160208091040260200160405190810160405280929190818152602001828054611b3f9061430b565b8015611b8c5780601f10611b6157610100808354040283529160200191611b8c565b820191906000526020600020905b815481529060010190602001808311611b6f57829003601f168201915b50505050508152602001600482015481526020016005820160009054906101000a900460ff161515151581526020016006820154815250509150611bd8565b80806001019150506119e7565b508060a00151611c1d576040517f08c379a0000000000000000000000000000000000000000000000000000000008152600401611c1490614867565b60405180910390fd5b6000808060005b600a80549050811015611d635785600a8281548110611c4657611c456143ce565b5b906000526020600020906005020160010154148015611c8a5750600a8181548110611c7457611c736143ce565b5b9060005260206000209060050201600401544210155b15611d565783600a8281548110611ca457611ca36143ce565b5b9060005260206000209060050201600301541115611d5557600a8181548110611cd057611ccf6143ce565b5b9060005260206000209060050201600301549350600a8181548110611cf857611cf76143ce565b5b9060005260206000209060050201600001549250600a8181548110611d2057611d1f6143ce565b5b906000526020600020906005020160020160009054906101000a900473ffffffffffffffffffffffffffffffffffffffff1691505b5b8080600101915050611c24565b5060008311611da7576040517f08c379a0000000000000000000000000000000000000000000000000000000008152600401611d9e906148f9565b60405180910390fd5b611db684604001518287612a92565b60005b600980549050811015611ed0578560098281548110611ddb57611dda6143ce565b5b90600052602060002090600702016000015403611ec3578160098281548110611e0757611e066143ce565b5b906000526020600020906007020160020160006101000a81548173ffffffffffffffffffffffffffffffffffffffff021916908373ffffffffffffffffffffffffffffffffffffffff160217905550600060098281548110611e6c57611e6b6143ce565b5b906000526020600020906007020160050160006101000a81548160ff0219169083151502179055508360098281548110611ea957611ea86143ce565b5b906000526020600020906007020160040181905550611ed0565b8080600101915050611db9565b506000846040015173ffffffffffffffffffffffffffffffffffffffff1684604051611efb9061494a565b60006040518083038185875af1925050503d8060008114611f38576040519150601f19603f3d011682016040523d82523d6000602084013e611f3d565b606091505b5050905080611f81576040517f08c379a0000000000000000000000000000000000000000000000000000000008152600401611f78906149ab565b60405180910390fd5b611f8a86612bff565b8173ffffffffffffffffffffffffffffffffffffffff16856040015173ffffffffffffffffffffffffffffffffffffffff167f067c98e94aee7094ccba284d7e3d3698f62cff2f728fd75cfc72f2c87121a0aa86604051611feb9190613fbd565b60405180910390a3505050505050565b6120036135fc565b61200b6135fc565b60005b6009805490508110156121ff5783600982815481106120305761202f6143ce565b5b906000526020600020906007020160000154036121f2576009818154811061205b5761205a6143ce565b5b90600052602060002090600702016040518060e0016040529081600082015481526020016001820160009054906101000a900473ffffffffffffffffffffffffffffffffffffffff1673ffffffffffffffffffffffffffffffffffffffff1673ffffffffffffffffffffffffffffffffffffffff1681526020016002820160009054906101000a900473ffffffffffffffffffffffffffffffffffffffff1673ffffffffffffffffffffffffffffffffffffffff1673ffffffffffffffffffffffffffffffffffffffff16815260200160038201805461213a9061430b565b80601f01602080910402602001604051908101604052809291908181526020018280546121669061430b565b80156121b35780601f10612188576101008083540402835291602001916121b3565b820191906000526020600020905b81548152906001019060200180831161219657829003601f168201915b50505050508152602001600482015481526020016005820160009054906101000a900460ff1615151515815260200160068201548152505091506121ff565b808060010191505061200e565b5080915050919050565b6000600560008473ffffffffffffffffffffffffffffffffffffffff1673ffffffffffffffffffffffffffffffffffffffff16815260200190815260200160002060008373ffffffffffffffffffffffffffffffffffffffff1673ffffffffffffffffffffffffffffffffffffffff16815260200190815260200160002060009054906101000a900460ff16905092915050565b60007f80ac58cd000000000000000000000000000000000000000000000000000000007bffffffffffffffffffffffffffffffffffffffffffffffffffffffff1916827bffffffffffffffffffffffffffffffffffffffffffffffffffffffff1916148061236857507f5b5e139f000000000000000000000000000000000000000000000000000000007bffffffffffffffffffffffffffffffffffffffffffffffffffffffff1916827bffffffffffffffffffffffffffffffffffffffffffffffffffffffff1916145b80612378575061237782612ecd565b5b9050919050565b60008061238b83612f37565b9050600073ffffffffffffffffffffffffffffffffffffffff168173ffffffffffffffffffffffffffffffffffffffff16036123fe57826040517f7e2732890000000000000000000000000000000000000000000000000000000081526004016123f59190613fbd565b60405180910390fd5b80915050919050565b60006004600083815260200190815260200160002060009054906101000a900473ffffffffffffffffffffffffffffffffffffffff169050919050565b600033905090565b6124598383836001612f74565b505050565b60008061246a84612f37565b9050600073ffffffffffffffffffffffffffffffffffffffff168373ffffffffffffffffffffffffffffffffffffffff16146124ac576124ab818486613139565b5b600073ffffffffffffffffffffffffffffffffffffffff168173ffffffffffffffffffffffffffffffffffffffff161461253d576124ee600085600080612f74565b6001600360008373ffffffffffffffffffffffffffffffffffffffff1673ffffffffffffffffffffffffffffffffffffffff168152602001908152602001600020600082825403925050819055505b600073ffffffffffffffffffffffffffffffffffffffff168573ffffffffffffffffffffffffffffffffffffffff16146125c0576001600360008773ffffffffffffffffffffffffffffffffffffffff1673ffffffffffffffffffffffffffffffffffffffff168152602001908152602001600020600082825401925050819055505b846002600086815260200190815260200160002060006101000a81548173ffffffffffffffffffffffffffffffffffffffff021916908373ffffffffffffffffffffffffffffffffffffffff160217905550838573ffffffffffffffffffffffffffffffffffffffff168273ffffffffffffffffffffffffffffffffffffffff167fddf252ad1be2c89b69c2b068fc378daa952ba7f163c4a11628f55a4df523b3ef60405160405180910390a4809150509392505050565b6126928282604051806020016040528060008152506131fd565b5050565b806006600084815260200190815260200160002090816126b691906146e9565b507ff8e1a15aba9398e019f0b49df1a4fde98ee17ae345cb5f6b5e2c27f5033e8ce7826040516126e69190613fbd565b60405180910390a15050565b600073ffffffffffffffffffffffffffffffffffffffff168273ffffffffffffffffffffffffffffffffffffffff160361276357816040517f5b08ba1800000000000000000000000000000000000000000000000000000000815260040161275a9190613953565b60405180910390fd5b80600560008573ffffffffffffffffffffffffffffffffffffffff1673ffffffffffffffffffffffffffffffffffffffff16815260200190815260200160002060008473ffffffffffffffffffffffffffffffffffffffff1673ffffffffffffffffffffffffffffffffffffffff16815260200190815260200160002060006101000a81548160ff0219169083151502179055508173ffffffffffffffffffffffffffffffffffffffff168373ffffffffffffffffffffffffffffffffffffffff167f17307eab39ab6107e8899845ad3d59bd9653f200f220920489ca2b5937696c318360405161285491906137e2565b60405180910390a3505050565b60008373ffffffffffffffffffffffffffffffffffffffff163b1115612a0b578273ffffffffffffffffffffffffffffffffffffffff1663150b7a02868685856040518563ffffffff1660e01b81526004016128c09493929190614a20565b6020604051808303816000875af19250505080156128fc57506040513d601f19601f820116820180604052508101906128f99190614a81565b60015b612980573d806000811461292c576040519150601f19603f3d011682016040523d82523d6000602084013e612931565b606091505b50600081510361297857836040517f64a0ae9200000000000000000000000000000000000000000000000000000000815260040161296f9190613953565b60405180910390fd5b805181602001fd5b63150b7a0260e01b7bffffffffffffffffffffffffffffffffffffffffffffffffffffffff1916817bffffffffffffffffffffffffffffffffffffffffffffffffffffffff191614612a0957836040517f64a0ae92000000000000000000000000000000000000000000000000000000008152600401612a009190613953565b60405180910390fd5b505b5050505050565b606060405180602001604052806000815250905090565b6060612a348261237f565b506000612a3f612a12565b90506000815111612a5f5760405180602001604052806000815250612a8a565b80612a6984613221565b604051602001612a7a9291906147f7565b6040516020818303038152906040525b915050919050565b600073ffffffffffffffffffffffffffffffffffffffff168273ffffffffffffffffffffffffffffffffffffffff1603612b045760006040517f64a0ae92000000000000000000000000000000000000000000000000000000008152600401612afb9190613953565b60405180910390fd5b6000612b128383600061245e565b9050600073ffffffffffffffffffffffffffffffffffffffff168173ffffffffffffffffffffffffffffffffffffffff1603612b8557816040517f7e273289000000000000000000000000000000000000000000000000000000008152600401612b7c9190613fbd565b60405180910390fd5b8373ffffffffffffffffffffffffffffffffffffffff168173ffffffffffffffffffffffffffffffffffffffff1614612bf9578382826040517f64283d7b000000000000000000000000000000000000000000000000000000008152600401612bf093929190614506565b60405180910390fd5b50505050565b600080600090505b600a80549050811015612c5c5782600a8281548110612c2957612c286143ce565b5b90600052602060002090600502016001015403612c4f578180612c4b906144be565b9250505b8080600101915050612c07565b50600081600a80549050612c709190614aae565b67ffffffffffffffff811115612c8957612c88613e09565b5b604051908082528060200260200182016040528015612cc257816020015b612caf613667565b815260200190600190039081612ca75790505b5090506000805b600a80549050811015612de75784600a8281548110612ceb57612cea6143ce565b5b90600052602060002090600502016001015414612dda57600a8181548110612d1657612d156143ce565b5b90600052602060002090600502016040518060a001604052908160008201548152602001600182015481526020016002820160009054906101000a900473ffffffffffffffffffffffffffffffffffffffff1673ffffffffffffffffffffffffffffffffffffffff1673ffffffffffffffffffffffffffffffffffffffff16815260200160038201548152602001600482015481525050838381518110612dc057612dbf6143ce565b5b60200260200101819052508180612dd6906144be565b9250505b8080600101915050612cc9565b50600a6000612df691906136ac565b60005b8251811015612ec657600a838281518110612e1757612e166143ce565b5b60200260200101519080600181540180825580915050600190039060005260206000209060050201600090919091909150600082015181600001556020820151816001015560408201518160020160006101000a81548173ffffffffffffffffffffffffffffffffffffffff021916908373ffffffffffffffffffffffffffffffffffffffff160217905550606082015181600301556080820151816004015550508080600101915050612df9565b5050505050565b60007f01ffc9a7000000000000000000000000000000000000000000000000000000007bffffffffffffffffffffffffffffffffffffffffffffffffffffffff1916827bffffffffffffffffffffffffffffffffffffffffffffffffffffffff1916149050919050565b60006002600083815260200190815260200160002060009054906101000a900473ffffffffffffffffffffffffffffffffffffffff169050919050565b8080612fad5750600073ffffffffffffffffffffffffffffffffffffffff168273ffffffffffffffffffffffffffffffffffffffff1614155b156130e1576000612fbd8461237f565b9050600073ffffffffffffffffffffffffffffffffffffffff168373ffffffffffffffffffffffffffffffffffffffff161415801561302857508273ffffffffffffffffffffffffffffffffffffffff168173ffffffffffffffffffffffffffffffffffffffff1614155b801561303b57506130398184612209565b155b1561307d57826040517fa9fbf51f0000000000000000000000000000000000000000000000000000000081526004016130749190613953565b60405180910390fd5b81156130df57838573ffffffffffffffffffffffffffffffffffffffff168273ffffffffffffffffffffffffffffffffffffffff167f8c5be1e5ebec7d5bd14f71427d1e84f3dd0314c0f7b2291e5b200ac8c7c3b92560405160405180910390a45b505b836004600085815260200190815260200160002060006101000a81548173ffffffffffffffffffffffffffffffffffffffff021916908373ffffffffffffffffffffffffffffffffffffffff16021790555050505050565b6131448383836132ef565b6131f857600073ffffffffffffffffffffffffffffffffffffffff168373ffffffffffffffffffffffffffffffffffffffff16036131b957806040517f7e2732890000000000000000000000000000000000000000000000000000000081526004016131b09190613fbd565b60405180910390fd5b81816040517f177e802f0000000000000000000000000000000000000000000000000000000081526004016131ef929190614ae2565b60405180910390fd5b505050565b61320783836133b0565b61321c613212612444565b6000858585612861565b505050565b606060006001613230846134a9565b01905060008167ffffffffffffffff81111561324f5761324e613e09565b5b6040519080825280601f01601f1916602001820160405280156132815781602001600182028036833780820191505090505b509050600082602001820190505b6001156132e4578080600190039150507f3031323334353637383961626364656600000000000000000000000000000000600a86061a8153600a85816132d8576132d7614b0b565b5b0494506000850361328f575b819350505050919050565b60008073ffffffffffffffffffffffffffffffffffffffff168373ffffffffffffffffffffffffffffffffffffffff16141580156133a757508273ffffffffffffffffffffffffffffffffffffffff168473ffffffffffffffffffffffffffffffffffffffff16148061336857506133678484612209565b5b806133a657508273ffffffffffffffffffffffffffffffffffffffff1661338e83612407565b73ffffffffffffffffffffffffffffffffffffffff16145b5b90509392505050565b600073ffffffffffffffffffffffffffffffffffffffff168273ffffffffffffffffffffffffffffffffffffffff16036134225760006040517f64a0ae920000000000000000000000000000000000000000000000000000000081526004016134199190613953565b60405180910390fd5b60006134308383600061245e565b9050600073ffffffffffffffffffffffffffffffffffffffff168173ffffffffffffffffffffffffffffffffffffffff16146134a45760006040517f73c6ac6e00000000000000000000000000000000000000000000000000000000815260040161349b9190613953565b60405180910390fd5b505050565b600080600090507a184f03e93ff9f4daa797ed6e38ed64bf6a1f0100000000000000008310613507577a184f03e93ff9f4daa797ed6e38ed64bf6a1f01000000000000000083816134fd576134fc614b0b565b5b0492506040810190505b6d04ee2d6d415b85acef81000000008310613544576d04ee2d6d415b85acef8100000000838161353a57613539614b0b565b5b0492506020810190505b662386f26fc10000831061357357662386f26fc10000838161356957613568614b0b565b5b0492506010810190505b6305f5e100831061359c576305f5e100838161359257613591614b0b565b5b0492506008810190505b61271083106135c15761271083816135b7576135b6614b0b565b5b0492506004810190505b606483106135e457606483816135da576135d9614b0b565b5b0492506002810190505b600a83106135f3576001810190505b80915050919050565b6040518060e0016040528060008152602001600073ffffffffffffffffffffffffffffffffffffffff168152602001600073ffffffffffffffffffffffffffffffffffffffff1681526020016060815260200160008152602001600015158152602001600081525090565b6040518060a001604052806000815260200160008152602001600073ffffffffffffffffffffffffffffffffffffffff16815260200160008152602001600081525090565b50805460008255600502906000526020600020908101906136cd91906136d0565b50565b5b8082111561372a5760008082016000905560018201600090556002820160006101000a81549073ffffffffffffffffffffffffffffffffffffffff021916905560038201600090556004820160009055506005016136d1565b5090565b6000604051905090565b600080fd5b600080fd5b60007fffffffff0000000000000000000000000000000000000000000000000000000082169050919050565b61377781613742565b811461378257600080fd5b50565b6000813590506137948161376e565b92915050565b6000602082840312156137b0576137af613738565b5b60006137be84828501613785565b91505092915050565b60008115159050919050565b6137dc816137c7565b82525050565b60006020820190506137f760008301846137d3565b92915050565b600081519050919050565b600082825260208201905092915050565b60005b8381101561383757808201518184015260208101905061381c565b60008484015250505050565b6000601f19601f8301169050919050565b600061385f826137fd565b6138698185613808565b9350613879818560208601613819565b61388281613843565b840191505092915050565b600060208201905081810360008301526138a78184613854565b905092915050565b6000819050919050565b6138c2816138af565b81146138cd57600080fd5b50565b6000813590506138df816138b9565b92915050565b6000602082840312156138fb576138fa613738565b5b6000613909848285016138d0565b91505092915050565b600073ffffffffffffffffffffffffffffffffffffffff82169050919050565b600061393d82613912565b9050919050565b61394d81613932565b82525050565b60006020820190506139686000830184613944565b92915050565b613977816138af565b82525050565b600060a082019050613992600083018861396e565b61399f602083018761396e565b6139ac6040830186613944565b6139b9606083018561396e565b6139c6608083018461396e565b9695505050505050565b6139d981613932565b81146139e457600080fd5b50565b6000813590506139f6816139d0565b92915050565b60008060408385031215613a1357613a12613738565b5b6000613a21858286016139e7565b9250506020613a32858286016138d0565b9150509250929050565b60008060408385031215613a5357613a52613738565b5b6000613a61858286016138d0565b9250506020613a72858286016138d0565b9150509250929050565b600081519050919050565b600082825260208201905092915050565b6000819050602082019050919050565b613ab1816138af565b82525050565b613ac081613932565b82525050565b600082825260208201905092915050565b6000613ae2826137fd565b613aec8185613ac6565b9350613afc818560208601613819565b613b0581613843565b840191505092915050565b613b19816137c7565b82525050565b600060e083016000830151613b376000860182613aa8565b506020830151613b4a6020860182613ab7565b506040830151613b5d6040860182613ab7565b5060608301518482036060860152613b758282613ad7565b9150506080830151613b8a6080860182613aa8565b5060a0830151613b9d60a0860182613b10565b5060c0830151613bb060c0860182613aa8565b508091505092915050565b6000613bc78383613b1f565b905092915050565b6000602082019050919050565b6000613be782613a7c565b613bf18185613a87565b935083602082028501613c0385613a98565b8060005b85811015613c3f5784840389528151613c208582613bbb565b9450613c2b83613bcf565b925060208a01995050600181019050613c07565b50829750879550505050505092915050565b60006020820190508181036000830152613c6b8184613bdc565b905092915050565b600080600060608486031215613c8c57613c8b613738565b5b6000613c9a868287016139e7565b9350506020613cab868287016139e7565b9250506040613cbc868287016138d0565b9150509250925092565b600081519050919050565b600082825260208201905092915050565b6000819050602082019050919050565b60a082016000820151613d086000850182613aa8565b506020820151613d1b6020850182613aa8565b506040820151613d2e6040850182613ab7565b506060820151613d416060850182613aa8565b506080820151613d546080850182613aa8565b50505050565b6000613d668383613cf2565b60a08301905092915050565b6000602082019050919050565b6000613d8a82613cc6565b613d948185613cd1565b9350613d9f83613ce2565b8060005b83811015613dd0578151613db78882613d5a565b9750613dc283613d72565b925050600181019050613da3565b5085935050505092915050565b60006020820190508181036000830152613df78184613d7f565b905092915050565b600080fd5b600080fd5b7f4e487b7100000000000000000000000000000000000000000000000000000000600052604160045260246000fd5b613e4182613843565b810181811067ffffffffffffffff82111715613e6057613e5f613e09565b5b80604052505050565b6000613e7361372e565b9050613e7f8282613e38565b919050565b600067ffffffffffffffff821115613e9f57613e9e613e09565b5b613ea882613843565b9050602081019050919050565b82818337600083830152505050565b6000613ed7613ed284613e84565b613e69565b905082815260208101848484011115613ef357613ef2613e04565b5b613efe848285613eb5565b509392505050565b600082601f830112613f1b57613f1a613dff565b5b8135613f2b848260208601613ec4565b91505092915050565b60008060408385031215613f4b57613f4a613738565b5b600083013567ffffffffffffffff811115613f6957613f6861373d565b5b613f7585828601613f06565b9250506020613f86858286016138d0565b9150509250929050565b600060208284031215613fa657613fa5613738565b5b6000613fb4848285016139e7565b91505092915050565b6000602082019050613fd2600083018461396e565b92915050565b600060e082019050613fed600083018a61396e565b613ffa6020830189613944565b6140076040830188613944565b81810360608301526140198187613854565b9050614028608083018661396e565b61403560a08301856137d3565b61404260c083018461396e565b98975050505050505050565b614057816137c7565b811461406257600080fd5b50565b6000813590506140748161404e565b92915050565b6000806040838503121561409157614090613738565b5b600061409f858286016139e7565b92505060206140b085828601614065565b9150509250929050565b600067ffffffffffffffff8211156140d5576140d4613e09565b5b6140de82613843565b9050602081019050919050565b60006140fe6140f9846140ba565b613e69565b90508281526020810184848401111561411a57614119613e04565b5b614125848285613eb5565b509392505050565b600082601f83011261414257614141613dff565b5b81356141528482602086016140eb565b91505092915050565b6000806000806080858703121561417557614174613738565b5b6000614183878288016139e7565b9450506020614194878288016139e7565b93505060406141a5878288016138d0565b925050606085013567ffffffffffffffff8111156141c6576141c561373d565b5b6141d28782880161412d565b91505092959194509250565b600060e0830160008301516141f66000860182613aa8565b5060208301516142096020860182613ab7565b50604083015161421c6040860182613ab7565b50606083015184820360608601526142348282613ad7565b91505060808301516142496080860182613aa8565b5060a083015161425c60a0860182613b10565b5060c083015161426f60c0860182613aa8565b508091505092915050565b6000602082019050818103600083015261429481846141de565b905092915050565b600080604083850312156142b3576142b2613738565b5b60006142c1858286016139e7565b92505060206142d2858286016139e7565b9150509250929050565b7f4e487b7100000000000000000000000000000000000000000000000000000000600052602260045260246000fd5b6000600282049050600182168061432357607f821691505b602082108103614336576143356142dc565b5b50919050565b7f45787069726174696f6e2064617465206d75737420626520677265617465722060008201527f7468616e742074686520626c6f636b2074696d657374616d7000000000000000602082015250565b6000614398603983613808565b91506143a38261433c565b604082019050919050565b600060208201905081810360008301526143c78161438b565b9050919050565b7f4e487b7100000000000000000000000000000000000000000000000000000000600052603260045260246000fd5b7f596f7572206f66666572206d75737420626520686967686572207468616e207460008201527f68652063757272656e742068696768657374206f666665720000000000000000602082015250565b6000614459603883613808565b9150614464826143fd565b604082019050919050565b600060208201905081810360008301526144888161444c565b9050919050565b7f4e487b7100000000000000000000000000000000000000000000000000000000600052601160045260246000fd5b60006144c9826138af565b91507fffffffffffffffffffffffffffffffffffffffffffffffffffffffffffffffff82036144fb576144fa61448f565b5b600182019050919050565b600060608201905061451b6000830186613944565b614528602083018561396e565b6145356040830184613944565b949350505050565b60008190508160005260206000209050919050565b60006020601f8301049050919050565b600082821b905092915050565b60006008830261459f7fffffffffffffffffffffffffffffffffffffffffffffffffffffffffffffffff82614562565b6145a98683614562565b95508019841693508086168417925050509392505050565b6000819050919050565b60006145e66145e16145dc846138af565b6145c1565b6138af565b9050919050565b6000819050919050565b614600836145cb565b61461461460c826145ed565b84845461456f565b825550505050565b600090565b61462961461c565b6146348184846145f7565b505050565b5b818110156146585761464d600082614621565b60018101905061463a565b5050565b601f82111561469d5761466e8161453d565b61467784614552565b81016020851015614686578190505b61469a61469285614552565b830182614639565b50505b505050565b600082821c905092915050565b60006146c0600019846008026146a2565b1980831691505092915050565b60006146d983836146af565b9150826002028217905092915050565b6146f2826137fd565b67ffffffffffffffff81111561470b5761470a613e09565b5b614715825461430b565b61472082828561465c565b600060209050601f8311600181146147535760008415614741578287015190505b61474b85826146cd565b8655506147b3565b601f1984166147618661453d565b60005b8281101561478957848901518255600182019150602085019450602081019050614764565b868310156147a657848901516147a2601f8916826146af565b8355505b6001600288020188555050505b505050505050565b600081905092915050565b60006147d1826137fd565b6147db81856147bb565b93506147eb818560208601613819565b80840191505092915050565b600061480382856147c6565b915061480f82846147c6565b91508190509392505050565b7f4e4654206d757374206265206c697374656420666f722061756374696f6e0000600082015250565b6000614851601e83613808565b915061485c8261481b565b602082019050919050565b6000602082019050818103600083015261488081614844565b9050919050565b7f4e6f2076616c6964206f666665727320666f756e64206f722061756374696f6e60008201527f20686173206e6f74206578706972656400000000000000000000000000000000602082015250565b60006148e3603083613808565b91506148ee82614887565b604082019050919050565b60006020820190508181036000830152614912816148d6565b9050919050565b600081905092915050565b50565b6000614934600083614919565b915061493f82614924565b600082019050919050565b600061495582614927565b9150819050919050565b7f5472616e7366657220746f2073656c6c6572206661696c656400000000000000600082015250565b6000614995601983613808565b91506149a08261495f565b602082019050919050565b600060208201905081810360008301526149c481614988565b9050919050565b600081519050919050565b600082825260208201905092915050565b60006149f2826149cb565b6149fc81856149d6565b9350614a0c818560208601613819565b614a1581613843565b840191505092915050565b6000608082019050614a356000830187613944565b614a426020830186613944565b614a4f604083018561396e565b8181036060830152614a6181846149e7565b905095945050505050565b600081519050614a7b8161376e565b92915050565b600060208284031215614a9757614a96613738565b5b6000614aa584828501614a6c565b91505092915050565b6000614ab9826138af565b9150614ac4836138af565b9250828203905081811115614adc57614adb61448f565b5b92915050565b6000604082019050614af76000830185613944565b614b04602083018461396e565b9392505050565b7f4e487b7100000000000000000000000000000000000000000000000000000000600052601260045260246000fdfea2646970667358221220707796dc17b1ae79076627920d609668c9b32447af62b4e8655a214bd108945f64736f6c634300081c0033",
  "linkReferences": {},
  "deployedLinkReferences": {}
}