{
  "_format": "hh-sol-artifact-1",
  "contractName": "NFTCollection",
  "sourceName": "contracts/NFTCollection.sol",
  "abi": [
    {
      "inputs": [],
      "stateMutability": "nonpayable",
      "type": "constructor"
    },
    {
      "inputs": [
        {
          "internalType": "address",
          "name": "sender",
          "type": "address"
        },
        {
          "internalType": "uint256",
          "name": "tokenId",
          "type": "uint256"
        },
        {
          "internalType": "address",
          "name": "owner",
          "type": "address"
        }
      ],
      "name": "ERC721IncorrectOwner",
      "type": "error"
    },
    {
      "inputs": [
        {
          "internalType": "address",
          "name": "operator",
          "type": "address"
        },
        {
          "internalType": "uint256",
          "name": "tokenId",
          "type": "uint256"
        }
      ],
      "name": "ERC721InsufficientApproval",
      "type": "error"
    },
    {
      "inputs": [
        {
          "internalType": "address",
          "name": "approver",
          "type": "address"
        }
      ],
      "name": "ERC721InvalidApprover",
      "type": "error"
    },
    {
      "inputs": [
        {
          "internalType": "address",
          "name": "operator",
          "type": "address"
        }
      ],
      "name": "ERC721InvalidOperator",
      "type": "error"
    },
    {
      "inputs": [
        {
          "internalType": "address",
          "name": "owner",
          "type": "address"
        }
      ],
      "name": "ERC721InvalidOwner",
      "type": "error"
    },
    {
      "inputs": [
        {
          "internalType": "address",
          "name": "receiver",
          "type": "address"
        }
      ],
      "name": "ERC721InvalidReceiver",
      "type": "error"
    },
    {
      "inputs": [
        {
          "internalType": "address",
          "name": "sender",
          "type": "address"
        }
      ],
      "name": "ERC721InvalidSender",
      "type": "error"
    },
    {
      "inputs": [
        {
          "internalType": "uint256",
          "name": "tokenId",
          "type": "uint256"
        }
      ],
      "name": "ERC721NonexistentToken",
      "type": "error"
    },
    {
      "inputs": [
        {
          "internalType": "uint256",
          "name": "tokenId",
          "type": "uint256"
        }
      ],
      "name": "NFTDoesNotExist",
      "type": "error"
    },
    {
      "inputs": [
        {
          "internalType": "uint256",
          "name": "offerId",
          "type": "uint256"
        }
      ],
      "name": "OfferDoesNotExist",
      "type": "error"
    },
    {
      "inputs": [
        {
          "internalType": "address",
          "name": "user",
          "type": "address"
        }
      ],
      "name": "UserDoesNotExist",
      "type": "error"
    },
    {
      "anonymous": false,
      "inputs": [
        {
          "indexed": true,
          "internalType": "address",
          "name": "owner",
          "type": "address"
        },
        {
          "indexed": true,
          "internalType": "address",
          "name": "approved",
          "type": "address"
        },
        {
          "indexed": true,
          "internalType": "uint256",
          "name": "tokenId",
          "type": "uint256"
        }
      ],
      "name": "Approval",
      "type": "event"
    },
    {
      "anonymous": false,
      "inputs": [
        {
          "indexed": true,
          "internalType": "address",
          "name": "owner",
          "type": "address"
        },
        {
          "indexed": true,
          "internalType": "address",
          "name": "operator",
          "type": "address"
        },
        {
          "indexed": false,
          "internalType": "bool",
          "name": "approved",
          "type": "bool"
        }
      ],
      "name": "ApprovalForAll",
      "type": "event"
    },
    {
      "anonymous": false,
      "inputs": [
        {
          "indexed": false,
          "internalType": "uint256",
          "name": "_fromTokenId",
          "type": "uint256"
        },
        {
          "indexed": false,
          "internalType": "uint256",
          "name": "_toTokenId",
          "type": "uint256"
        }
      ],
      "name": "BatchMetadataUpdate",
      "type": "event"
    },
    {
      "anonymous": false,
      "inputs": [
        {
          "indexed": false,
          "internalType": "uint256",
          "name": "_tokenId",
          "type": "uint256"
        }
      ],
      "name": "MetadataUpdate",
      "type": "event"
    },
    {
      "anonymous": false,
      "inputs": [
        {
          "indexed": true,
          "internalType": "address",
          "name": "owner",
          "type": "address"
        },
        {
          "indexed": true,
          "internalType": "uint256",
          "name": "tokenId",
          "type": "uint256"
        }
      ],
      "name": "NFTMinted",
      "type": "event"
    },
    {
      "anonymous": false,
      "inputs": [
        {
          "indexed": true,
          "internalType": "address",
          "name": "from",
          "type": "address"
        },
        {
          "indexed": true,
          "internalType": "uint256",
          "name": "tokenId",
          "type": "uint256"
        },
        {
          "indexed": true,
          "internalType": "uint256",
          "name": "offerId",
          "type": "uint256"
        }
      ],
      "name": "NFTOfferAccepted",
      "type": "event"
    },
    {
      "anonymous": false,
      "inputs": [
        {
          "indexed": true,
          "internalType": "uint256",
          "name": "offerId",
          "type": "uint256"
        }
      ],
      "name": "NFTOfferCanceled",
      "type": "event"
    },
    {
      "anonymous": false,
      "inputs": [
        {
          "indexed": true,
          "internalType": "address",
          "name": "from",
          "type": "address"
        },
        {
          "indexed": true,
          "internalType": "uint256",
          "name": "tokenId",
          "type": "uint256"
        },
        {
          "indexed": true,
          "internalType": "uint256",
          "name": "offerId",
          "type": "uint256"
        },
        {
          "indexed": false,
          "internalType": "uint256",
          "name": "price",
          "type": "uint256"
        }
      ],
      "name": "NFTOfferCreated",
      "type": "event"
    },
    {
      "anonymous": false,
      "inputs": [
        {
          "indexed": true,
          "internalType": "address",
          "name": "owner",
          "type": "address"
        },
        {
          "indexed": true,
          "internalType": "uint256",
          "name": "tokenId",
          "type": "uint256"
        }
      ],
      "name": "NFTRemoved",
      "type": "event"
    },
    {
      "anonymous": false,
      "inputs": [
        {
          "indexed": true,
          "internalType": "address",
          "name": "from",
          "type": "address"
        },
        {
          "indexed": true,
          "internalType": "address",
          "name": "to",
          "type": "address"
        },
        {
          "indexed": false,
          "internalType": "uint256",
          "name": "price",
          "type": "uint256"
        }
      ],
      "name": "NFTSelled",
      "type": "event"
    },
    {
      "anonymous": false,
      "inputs": [
        {
          "indexed": true,
          "internalType": "uint256",
          "name": "tokenId",
          "type": "uint256"
        }
      ],
      "name": "NFTSetAsListed",
      "type": "event"
    },
    {
      "anonymous": false,
      "inputs": [
        {
          "indexed": true,
          "internalType": "address",
          "name": "from",
          "type": "address"
        },
        {
          "indexed": true,
          "internalType": "address",
          "name": "to",
          "type": "address"
        },
        {
          "indexed": true,
          "internalType": "uint256",
          "name": "tokenId",
          "type": "uint256"
        }
      ],
      "name": "Transfer",
      "type": "event"
    },
    {
      "inputs": [],
      "name": "NFTTokenIdCounter",
      "outputs": [
        {
          "internalType": "uint256",
          "name": "",
          "type": "uint256"
        }
      ],
      "stateMutability": "view",
      "type": "function"
    },
    {
      "inputs": [
        {
          "internalType": "uint256",
          "name": "_offerId",
          "type": "uint256"
        }
      ],
      "name": "acceptOffer",
      "outputs": [],
      "stateMutability": "payable",
      "type": "function"
    },
    {
      "inputs": [
        {
          "internalType": "address",
          "name": "to",
          "type": "address"
        },
        {
          "internalType": "uint256",
          "name": "tokenId",
          "type": "uint256"
        }
      ],
      "name": "approve",
      "outputs": [],
      "stateMutability": "nonpayable",
      "type": "function"
    },
    {
      "inputs": [
        {
          "internalType": "address",
          "name": "owner",
          "type": "address"
        }
      ],
      "name": "balanceOf",
      "outputs": [
        {
          "internalType": "uint256",
          "name": "",
          "type": "uint256"
        }
      ],
      "stateMutability": "view",
      "type": "function"
    },
    {
      "inputs": [
        {
          "internalType": "uint256",
          "name": "_offerId",
          "type": "uint256"
        }
      ],
      "name": "cancelOffer",
      "outputs": [],
      "stateMutability": "nonpayable",
      "type": "function"
    },
    {
      "inputs": [
        {
          "internalType": "uint256",
          "name": "_tokenId",
          "type": "uint256"
        }
      ],
      "name": "createOffer",
      "outputs": [],
      "stateMutability": "payable",
      "type": "function"
    },
    {
      "inputs": [
        {
          "internalType": "address",
          "name": "_owner",
          "type": "address"
        }
      ],
      "name": "getAllNFTByOwner",
      "outputs": [
        {
          "components": [
            {
              "internalType": "uint256",
              "name": "tokenId",
              "type": "uint256"
            },
            {
              "internalType": "address",
              "name": "creator",
              "type": "address"
            },
            {
              "internalType": "address",
              "name": "owner",
              "type": "address"
            },
            {
              "internalType": "string",
              "name": "uri",
              "type": "string"
            },
            {
              "internalType": "uint256",
              "name": "price",
              "type": "uint256"
            },
            {
              "internalType": "bool",
              "name": "isListed",
              "type": "bool"
            },
            {
              "internalType": "uint256",
              "name": "timestamp",
              "type": "uint256"
            }
          ],
          "internalType": "struct NFTCollection.NFT[]",
          "name": "",
          "type": "tuple[]"
        }
      ],
      "stateMutability": "view",
      "type": "function"
    },
    {
      "inputs": [
        {
          "internalType": "uint256",
          "name": "_tokenId",
          "type": "uint256"
        }
      ],
      "name": "getAllOffersByNft",
      "outputs": [
        {
          "components": [
            {
              "internalType": "uint256",
              "name": "offerId",
              "type": "uint256"
            },
            {
              "internalType": "uint256",
              "name": "tokenId",
              "type": "uint256"
            },
            {
              "internalType": "address",
              "name": "buyer",
              "type": "address"
            },
            {
              "internalType": "uint256",
              "name": "price",
              "type": "uint256"
            },
            {
              "internalType": "uint256",
              "name": "expirationDate",
              "type": "uint256"
            }
          ],
          "internalType": "struct NFTCollection.NFTOffer[]",
          "name": "",
          "type": "tuple[]"
        }
      ],
      "stateMutability": "view",
      "type": "function"
    },
    {
      "inputs": [
        {
          "internalType": "address",
          "name": "_owner",
          "type": "address"
        }
      ],
      "name": "getAllOffersByOwnerID",
      "outputs": [
        {
          "components": [
            {
              "internalType": "uint256",
              "name": "offerId",
              "type": "uint256"
            },
            {
              "internalType": "uint256",
              "name": "tokenId",
              "type": "uint256"
            },
            {
              "internalType": "address",
              "name": "buyer",
              "type": "address"
            },
            {
              "internalType": "uint256",
              "name": "price",
              "type": "uint256"
            },
            {
              "internalType": "uint256",
              "name": "expirationDate",
              "type": "uint256"
            }
          ],
          "internalType": "struct NFTCollection.NFTOffer[]",
          "name": "",
          "type": "tuple[]"
        }
      ],
      "stateMutability": "view",
      "type": "function"
    },
    {
      "inputs": [
        {
          "internalType": "uint256",
          "name": "tokenId",
          "type": "uint256"
        }
      ],
      "name": "getApproved",
      "outputs": [
        {
          "internalType": "address",
          "name": "",
          "type": "address"
        }
      ],
      "stateMutability": "view",
      "type": "function"
    },
    {
      "inputs": [
        {
          "internalType": "uint256",
          "name": "_tokenId",
          "type": "uint256"
        }
      ],
      "name": "getNFTById",
      "outputs": [
        {
          "components": [
            {
              "internalType": "uint256",
              "name": "tokenId",
              "type": "uint256"
            },
            {
              "internalType": "address",
              "name": "creator",
              "type": "address"
            },
            {
              "internalType": "address",
              "name": "owner",
              "type": "address"
            },
            {
              "internalType": "string",
              "name": "uri",
              "type": "string"
            },
            {
              "internalType": "uint256",
              "name": "price",
              "type": "uint256"
            },
            {
              "internalType": "bool",
              "name": "isListed",
              "type": "bool"
            },
            {
              "internalType": "uint256",
              "name": "timestamp",
              "type": "uint256"
            }
          ],
          "internalType": "struct NFTCollection.NFT",
          "name": "",
          "type": "tuple"
        }
      ],
      "stateMutability": "view",
      "type": "function"
    },
    {
      "inputs": [
        {
          "internalType": "address",
          "name": "_owner",
          "type": "address"
        },
        {
          "internalType": "uint256",
          "name": "_tokenId",
          "type": "uint256"
        }
      ],
      "name": "getNFTByOwner",
      "outputs": [
        {
          "components": [
            {
              "internalType": "uint256",
              "name": "tokenId",
              "type": "uint256"
            },
            {
              "internalType": "address",
              "name": "creator",
              "type": "address"
            },
            {
              "internalType": "address",
              "name": "owner",
              "type": "address"
            },
            {
              "internalType": "string",
              "name": "uri",
              "type": "string"
            },
            {
              "internalType": "uint256",
              "name": "price",
              "type": "uint256"
            },
            {
              "internalType": "bool",
              "name": "isListed",
              "type": "bool"
            },
            {
              "internalType": "uint256",
              "name": "timestamp",
              "type": "uint256"
            }
          ],
          "internalType": "struct NFTCollection.NFT",
          "name": "",
          "type": "tuple"
        }
      ],
      "stateMutability": "view",
      "type": "function"
    },
    {
      "inputs": [
        {
          "internalType": "uint256",
          "name": "_offset",
          "type": "uint256"
        },
        {
          "internalType": "uint256",
          "name": "_limit",
          "type": "uint256"
        }
      ],
      "name": "getNFTs",
      "outputs": [
        {
          "components": [
            {
              "internalType": "uint256",
              "name": "tokenId",
              "type": "uint256"
            },
            {
              "internalType": "address",
              "name": "creator",
              "type": "address"
            },
            {
              "internalType": "address",
              "name": "owner",
              "type": "address"
            },
            {
              "internalType": "string",
              "name": "uri",
              "type": "string"
            },
            {
              "internalType": "uint256",
              "name": "price",
              "type": "uint256"
            },
            {
              "internalType": "bool",
              "name": "isListed",
              "type": "bool"
            },
            {
              "internalType": "uint256",
              "name": "timestamp",
              "type": "uint256"
            }
          ],
          "internalType": "struct NFTCollection.NFT[]",
          "name": "",
          "type": "tuple[]"
        }
      ],
      "stateMutability": "view",
      "type": "function"
    },
    {
      "inputs": [
        {
          "internalType": "uint256",
          "name": "_offerId",
          "type": "uint256"
        }
      ],
      "name": "getOfferById",
      "outputs": [
        {
          "components": [
            {
              "internalType": "uint256",
              "name": "offerId",
              "type": "uint256"
            },
            {
              "internalType": "uint256",
              "name": "tokenId",
              "type": "uint256"
            },
            {
              "internalType": "address",
              "name": "buyer",
              "type": "address"
            },
            {
              "internalType": "uint256",
              "name": "price",
              "type": "uint256"
            },
            {
              "internalType": "uint256",
              "name": "expirationDate",
              "type": "uint256"
            }
          ],
          "internalType": "struct NFTCollection.NFTOffer",
          "name": "",
          "type": "tuple"
        }
      ],
      "stateMutability": "view",
      "type": "function"
    },
    {
      "inputs": [
        {
          "internalType": "address",
          "name": "_owner",
          "type": "address"
        },
        {
          "internalType": "uint256",
          "name": "_offerId",
          "type": "uint256"
        }
      ],
      "name": "getOfferByOwner",
      "outputs": [
        {
          "components": [
            {
              "internalType": "uint256",
              "name": "offerId",
              "type": "uint256"
            },
            {
              "internalType": "uint256",
              "name": "tokenId",
              "type": "uint256"
            },
            {
              "internalType": "address",
              "name": "buyer",
              "type": "address"
            },
            {
              "internalType": "uint256",
              "name": "price",
              "type": "uint256"
            },
            {
              "internalType": "uint256",
              "name": "expirationDate",
              "type": "uint256"
            }
          ],
          "internalType": "struct NFTCollection.NFTOffer",
          "name": "",
          "type": "tuple"
        }
      ],
      "stateMutability": "view",
      "type": "function"
    },
    {
      "inputs": [
        {
          "internalType": "uint256",
          "name": "_offset",
          "type": "uint256"
        },
        {
          "internalType": "uint256",
          "name": "_limit",
          "type": "uint256"
        }
      ],
      "name": "getOffers",
      "outputs": [
        {
          "components": [
            {
              "internalType": "uint256",
              "name": "offerId",
              "type": "uint256"
            },
            {
              "internalType": "uint256",
              "name": "tokenId",
              "type": "uint256"
            },
            {
              "internalType": "address",
              "name": "buyer",
              "type": "address"
            },
            {
              "internalType": "uint256",
              "name": "price",
              "type": "uint256"
            },
            {
              "internalType": "uint256",
              "name": "expirationDate",
              "type": "uint256"
            }
          ],
          "internalType": "struct NFTCollection.NFTOffer[]",
          "name": "",
          "type": "tuple[]"
        }
      ],
      "stateMutability": "view",
      "type": "function"
    },
    {
      "inputs": [
        {
          "internalType": "address",
          "name": "owner",
          "type": "address"
        },
        {
          "internalType": "address",
          "name": "operator",
          "type": "address"
        }
      ],
      "name": "isApprovedForAll",
      "outputs": [
        {
          "internalType": "bool",
          "name": "",
          "type": "bool"
        }
      ],
      "stateMutability": "view",
      "type": "function"
    },
    {
      "inputs": [
        {
          "internalType": "string",
          "name": "_uri",
          "type": "string"
        },
        {
          "internalType": "uint256",
          "name": "_price",
          "type": "uint256"
        }
      ],
      "name": "mintNFT",
      "outputs": [],
      "stateMutability": "nonpayable",
      "type": "function"
    },
    {
      "inputs": [],
      "name": "name",
      "outputs": [
        {
          "internalType": "string",
          "name": "",
          "type": "string"
        }
      ],
      "stateMutability": "view",
      "type": "function"
    },
    {
      "inputs": [],
      "name": "offersCount",
      "outputs": [
        {
          "internalType": "uint256",
          "name": "",
          "type": "uint256"
        }
      ],
      "stateMutability": "view",
      "type": "function"
    },
    {
      "inputs": [
        {
          "internalType": "uint256",
          "name": "tokenId",
          "type": "uint256"
        }
      ],
      "name": "ownerOf",
      "outputs": [
        {
          "internalType": "address",
          "name": "",
          "type": "address"
        }
      ],
      "stateMutability": "view",
      "type": "function"
    },
    {
      "inputs": [
        {
          "internalType": "address",
          "name": "_owner",
          "type": "address"
        },
        {
          "internalType": "uint256",
          "name": "_tokenId",
          "type": "uint256"
        }
      ],
      "name": "removeNFT",
      "outputs": [],
      "stateMutability": "nonpayable",
      "type": "function"
    },
    {
      "inputs": [
        {
          "internalType": "address",
          "name": "from",
          "type": "address"
        },
        {
          "internalType": "address",
          "name": "to",
          "type": "address"
        },
        {
          "internalType": "uint256",
          "name": "tokenId",
          "type": "uint256"
        }
      ],
      "name": "safeTransferFrom",
      "outputs": [],
      "stateMutability": "nonpayable",
      "type": "function"
    },
    {
      "inputs": [
        {
          "internalType": "address",
          "name": "from",
          "type": "address"
        },
        {
          "internalType": "address",
          "name": "to",
          "type": "address"
        },
        {
          "internalType": "uint256",
          "name": "tokenId",
          "type": "uint256"
        },
        {
          "internalType": "bytes",
          "name": "data",
          "type": "bytes"
        }
      ],
      "name": "safeTransferFrom",
      "outputs": [],
      "stateMutability": "nonpayable",
      "type": "function"
    },
    {
      "inputs": [
        {
          "internalType": "address",
          "name": "operator",
          "type": "address"
        },
        {
          "internalType": "bool",
          "name": "approved",
          "type": "bool"
        }
      ],
      "name": "setApprovalForAll",
      "outputs": [],
      "stateMutability": "nonpayable",
      "type": "function"
    },
    {
      "inputs": [
        {
          "internalType": "uint256",
          "name": "_tokenId",
          "type": "uint256"
        }
      ],
      "name": "setNFTAsListed",
      "outputs": [],
      "stateMutability": "nonpayable",
      "type": "function"
    },
    {
      "inputs": [
        {
          "internalType": "bytes4",
          "name": "interfaceId",
          "type": "bytes4"
        }
      ],
      "name": "supportsInterface",
      "outputs": [
        {
          "internalType": "bool",
          "name": "",
          "type": "bool"
        }
      ],
      "stateMutability": "view",
      "type": "function"
    },
    {
      "inputs": [],
      "name": "symbol",
      "outputs": [
        {
          "internalType": "string",
          "name": "",
          "type": "string"
        }
      ],
      "stateMutability": "view",
      "type": "function"
    },
    {
      "inputs": [
        {
          "internalType": "uint256",
          "name": "tokenId",
          "type": "uint256"
        }
      ],
      "name": "tokenURI",
      "outputs": [
        {
          "internalType": "string",
          "name": "",
          "type": "string"
        }
      ],
      "stateMutability": "view",
      "type": "function"
    },
    {
      "inputs": [
        {
          "internalType": "address",
          "name": "from",
          "type": "address"
        },
        {
          "internalType": "address",
          "name": "to",
          "type": "address"
        },
        {
          "internalType": "uint256",
          "name": "tokenId",
          "type": "uint256"
        }
      ],
      "name": "transferFrom",
      "outputs": [],
      "stateMutability": "nonpayable",
      "type": "function"
    }
  ],
  "bytecode": "0x60a060405234801561001057600080fd5b506040518060400160405280600e81526020016d27232a1021b7b63632b1ba34b7b760911b815250604051806040016040528060048152602001634e46544360e01b8152508160009081610064919061011c565b506001610071828261011c565b505033608052506101da565b634e487b7160e01b600052604160045260246000fd5b600181811c908216806100a757607f821691505b6020821081036100c757634e487b7160e01b600052602260045260246000fd5b50919050565b601f82111561011757806000526020600020601f840160051c810160208510156100f45750805b601f840160051c820191505b818110156101145760008155600101610100565b50505b505050565b81516001600160401b038111156101355761013561007d565b610149816101438454610093565b846100cd565b6020601f82116001811461017d57600083156101655750848201515b600019600385901b1c1916600184901b178455610114565b600084815260208120601f198516915b828110156101ad578785015182556020948501946001909201910161018d565b50848210156101cb5786840151600019600387901b60f8161c191681555b50505050600190811b01905550565b608051613d4d6101fc60003960008181611201015261123d0152613d4d6000f3fe6080604052600436106101cd5760003560e01c806370a08231116100f7578063b47dbd4411610095578063c815729d11610064578063c815729d14610559578063c87b56dd1461056c578063e985e9c51461058c578063ef706adf146105ac57600080fd5b8063b47dbd44146104e3578063b88d4fde14610503578063b8b32d2414610523578063bec02acc1461054357600080fd5b806397d6eb19116100d157806397d6eb1914610463578063a168b80514610483578063a22cb465146104b0578063a269993d146104d057600080fd5b806370a082311461040e5780638cb6f0691461042e57806395d89b411461044e57600080fd5b806323b872dd1161016f57806349fd566b1161013e57806349fd566b1461038e5780634f3d9a13146103ae5780635afa3a72146103ce5780636352211e146103ee57600080fd5b806323b872dd146103015780632c644ea914610321578063389318831461034e57806342842e0e1461036e57600080fd5b8063081812fc116101ab578063081812fc1461024d578063095ea7b3146102855780630ff711c3146102a75780631c838a46146102d457600080fd5b806301ffc9a7146101d257806303b94a5a1461020757806306fdde031461022b575b600080fd5b3480156101de57600080fd5b506101f26101ed3660046134b2565b6105cc565b60405190151581526020015b60405180910390f35b34801561021357600080fd5b5061021d60075481565b6040519081526020016101fe565b34801561023757600080fd5b506102406105f7565b6040516101fe919061351f565b34801561025957600080fd5b5061026d610268366004613532565b610689565b6040516001600160a01b0390911681526020016101fe565b34801561029157600080fd5b506102a56102a0366004613567565b6106b2565b005b3480156102b357600080fd5b506102c76102c2366004613591565b6106c1565b6040516101fe9190613622565b3480156102e057600080fd5b506102f46102ef366004613532565b610957565b6040516101fe9190613687565b34801561030d57600080fd5b506102a561031c3660046136fb565b610af4565b34801561032d57600080fd5b5061034161033c366004613567565b610b7f565b6040516101fe9190613738565b34801561035a57600080fd5b50610341610369366004613532565b610c1e565b34801561037a57600080fd5b506102a56103893660046136fb565b610caf565b34801561039a57600080fd5b506102a56103a9366004613567565b610ccf565b3480156103ba57600080fd5b506102c76103c9366004613776565b610fbf565b3480156103da57600080fd5b506102a56103e9366004613821565b6111f6565b3480156103fa57600080fd5b5061026d610409366004613532565b6114e7565b34801561041a57600080fd5b5061021d610429366004613776565b6114f2565b34801561043a57600080fd5b506102f4610449366004613776565b61153a565b34801561045a57600080fd5b506102406116bb565b34801561046f57600080fd5b506102f461047e366004613591565b6116ca565b34801561048f57600080fd5b506104a361049e366004613532565b611898565b6040516101fe919061387a565b3480156104bc57600080fd5b506102a56104cb36600461388d565b6119d9565b6102a56104de366004613532565b6119e4565b3480156104ef57600080fd5b506104a36104fe366004613567565b611e05565b34801561050f57600080fd5b506102a561051e3660046138c9565b611f51565b34801561052f57600080fd5b506102a561053e366004613532565b611f69565b34801561054f57600080fd5b5061021d60085481565b6102a5610567366004613532565b612122565b34801561057857600080fd5b50610240610587366004613532565b6125c9565b34801561059857600080fd5b506101f26105a7366004613945565b6126da565b3480156105b857600080fd5b506102a56105c7366004613532565b612708565b60006001600160e01b03198216632483248360e11b14806105f157506105f1826129ca565b92915050565b60606000805461060690613978565b80601f016020809104026020016040519081016040528092919081815260200182805461063290613978565b801561067f5780601f106106545761010080835404028352916020019161067f565b820191906000526020600020905b81548152906001019060200180831161066257829003601f168201915b5050505050905090565b600061069482612a1a565b506000828152600460205260409020546001600160a01b03166105f1565b6106bd828233612a53565b5050565b60606106d1565b60405180910390fd5b8282116106f05760405162461bcd60e51b81526004016106c8906139ac565b6007548211156107125760405162461bcd60e51b81526004016106c8906139ed565b6000835b838111610751576000818152600960205260409020541561073f578161073b81613a45565b9250505b8061074981613a45565b915050610716565b508060000361079457604080516000808252602082019092529061078b565b6107786133bd565b8152602001906001900390816107705790505b509150506105f1565b60008167ffffffffffffffff8111156107af576107af613791565b6040519080825280602002602001820160405280156107e857816020015b6107d56133bd565b8152602001906001900390816107cd5790505b5090506000855b85811161094c576000818152600960205260409020541561093a57600081815260096020908152604091829020825160e0810184528154815260018201546001600160a01b039081169382019390935260028201549092169282019290925260038201805491929160608401919061086690613978565b80601f016020809104026020016040519081016040528092919081815260200182805461089290613978565b80156108df5780601f106108b4576101008083540402835291602001916108df565b820191906000526020600020905b8154815290600101906020018083116108c257829003601f168201915b505050918352505060048201546020820152600582015460ff1615156040820152600690910154606090910152835184908490811061092057610920613a5e565b6020026020010181905250818061093690613a45565b9250505b8061094481613a45565b9150506107ef565b509095945050505050565b606081600754811180610968575080155b156109895760405163228b6eed60e21b8152600481018290526024016106c8565b6000838152601060209081526040808320805482518185028101850190935280835291929091908301828280156109df57602002820191906000526020600020905b8154815260200190600101908083116109cb575b5050505050905060008151905060008167ffffffffffffffff811115610a0757610a07613791565b604051908082528060200260200182016040528015610a4057816020015b610a2d61340e565b815260200190600190039081610a255790505b50905060005b82811015610ae857600a6000858381518110610a6457610a64613a5e565b6020908102919091018101518252818101929092526040908101600020815160a0810183528154815260018201549381019390935260028101546001600160a01b031691830191909152600381015460608301526004015460808201528251839083908110610ad557610ad5613a5e565b6020908102919091010152600101610a46565b50935050505b50919050565b6001600160a01b038216610b1e57604051633250574960e11b8152600060048201526024016106c8565b6000610b2b838333612a60565b9050836001600160a01b0316816001600160a01b031614610b79576040516364283d7b60e01b81526001600160a01b03808616600483015260248201849052821660448201526064016106c8565b50505050565b610b8761340e565b81600854811180610b96575080155b15610bb7576040516366b9bbdf60e11b8152600481018290526024016106c8565b50506001600160a01b039182166000908152600d6020908152604080832093835292815290829020825160a0810184528154815260018201549281019290925260028101549093169181019190915260038201546060820152600490910154608082015290565b610c2661340e565b81600854811180610c35575080155b15610c56576040516366b9bbdf60e11b8152600481018290526024016106c8565b50506000908152600a6020908152604091829020825160a0810184528154815260018201549281019290925260028101546001600160a01b03169282019290925260038201546060820152600490910154608082015290565b610cca83838360405180602001604052806000815250611f51565b505050565b80600754811180610cde575080155b15610cff5760405163228b6eed60e21b8152600481018290526024016106c8565b6000828152600960205260409020600201546001600160a01b03163314610d685760405162461bcd60e51b815260206004820152601d60248201527f4f6e6c79204e4654206f776e65722063616e2072656d6f7665204e465400000060448201526064016106c8565b600082815260106020908152604080832080548251818502810185019093528083529192909190830182828015610dbe57602002820191906000526020600020905b815481526020019060010190808311610daa575b5050505050905060005b8151811015610eae576000828281518110610de557610de5613a5e565b6020908102919091018101516000878152600f8352604080822083835284528082208281556001808201849055600280830180546001600160a01b031990811690915560038085018790556004948501879055338752600d895285872088885289528587208781558085018890558084018054841690558082018890558501879055600a90985293852085815591820185905581018054909316909255938101829055909201919091559050610e9b8582612b59565b610ea53382612c49565b50600101610dc8565b5060008381526009602052604081208181556001810180546001600160a01b0319908116909155600282018054909116905590610eee6003830182613446565b5060006004820181905560058201805460ff1916905560069091018190556001600160a01b0385168152600b6020908152604080832086845290915281208181556001810180546001600160a01b0319908116909155600282018054909116905590610f5d6003830182613446565b5060006004820181905560058201805460ff19169055600690910155610f838484612cd5565b60405183906001600160a01b038616907f169189fde9e469344f503c868364aa15dac2ed59abff404eb8ecbb2773a2200c90600090a350505050565b6001600160a01b0381166000908152600c6020908152604080832080548251818502810185019093528083526060949383018282801561101e57602002820191906000526020600020905b81548152602001906001019080831161100a575b5050505050905060008151905060008167ffffffffffffffff81111561104657611046613791565b60405190808252806020026020018201604052801561107f57816020015b61106c6133bd565b8152602001906001900390816110645790505b50905060005b828110156111ed576001600160a01b0386166000908152600b6020526040812085519091908690849081106110bc576110bc613a5e565b6020908102919091018101518252818101929092526040908101600020815160e0810183528154815260018201546001600160a01b039081169482019490945260028201549093169183019190915260038101805460608401919061112090613978565b80601f016020809104026020016040519081016040528092919081815260200182805461114c90613978565b80156111995780601f1061116e57610100808354040283529160200191611199565b820191906000526020600020905b81548152906001019060200180831161117c57829003601f168201915b505050918352505060048201546020820152600582015460ff161515604082015260069091015460609091015282518390839081106111da576111da613a5e565b6020908102919091010152600101611085565b50949350505050565b336001600160a01b037f0000000000000000000000000000000000000000000000000000000000000000161461126a57604051631efbf66f60e01b81526001600160a01b037f00000000000000000000000000000000000000000000000000000000000000001660048201526024016106c8565b60008251116112b15760405162461bcd60e51b81526020600482015260136024820152725552492063616e6e6f7420626520656d70747960681b60448201526064016106c8565b600081116113015760405162461bcd60e51b815260206004820152601f60248201527f5072696365206d7573742062652067726561746572207468616e207a65726f0060448201526064016106c8565b6007805490600061131183613a45565b90915550506040805160e0810182526007548082523360208084018281528486019283526060850188815260808601889052600060a087018190524260c08801529485526009909252949092208351815593516001850180546001600160a01b03199081166001600160a01b039384161790915591516002860180549093169116179055519091829160038201906113a99082613abb565b506080820151600482015560a082015160058201805460ff191691151591909117905560c090910151600690910155336000908152600b60209081526040808320600754845282529182902083518155908301516001820180546001600160a01b03199081166001600160a01b039384161790915592840151600283018054909416911617909155606082015182919060038201906114489082613abb565b506080820151600482015560a082015160058201805460ff191691151591909117905560c090910151600690910155336000818152600c602090815260408220600780548254600181018455928552929093200155546114a89190612d61565b6114b460075484612d7b565b60075460405133907f4cc0a9c4a99ddc700de1af2c9f916a7cbfdb71f14801ccff94061ad1ef8a804090600090a3505050565b60006105f182612a1a565b60006001600160a01b03821661151e576040516322718ad960e21b8152600060048201526024016106c8565b506001600160a01b031660009081526003602052604090205490565b6001600160a01b0381166000908152600e6020908152604080832080548251818502810185019093528083526060949383018282801561159957602002820191906000526020600020905b815481526020019060010190808311611585575b5050505050905060008151905060008167ffffffffffffffff8111156115c1576115c1613791565b6040519080825280602002602001820160405280156115fa57816020015b6115e761340e565b8152602001906001900390816115df5790505b50905060005b828110156111ed576001600160a01b0386166000908152600d60205260408120855190919086908490811061163757611637613a5e565b6020908102919091018101518252818101929092526040908101600020815160a0810183528154815260018201549381019390935260028101546001600160a01b0316918301919091526003810154606083015260040154608082015282518390839081106116a8576116a8613a5e565b6020908102919091010152600101611600565b60606001805461060690613978565b60608282116116eb5760405162461bcd60e51b81526004016106c8906139ac565b60085482111561170d5760405162461bcd60e51b81526004016106c8906139ed565b6000835b83811161174c576000818152600a60205260409020541561173a578161173681613a45565b9250505b8061174481613a45565b915050611711565b508060000361178e57604080516000808252602082019092529061078b565b61177361340e565b81526020019060019003908161176b579050509150506105f1565b60008167ffffffffffffffff8111156117a9576117a9613791565b6040519080825280602002602001820160405280156117e257816020015b6117cf61340e565b8152602001906001900390816117c75790505b5090506000855b85811161094c576000818152600a602052604090205415611886576000818152600a6020908152604091829020825160a0810184528154815260018201549281019290925260028101546001600160a01b031692820192909252600382015460608201526004909101546080820152835184908490811061186c5761186c613a5e565b6020026020010181905250818061188290613a45565b9250505b8061189081613a45565b9150506117e9565b6118a06133bd565b816007548111806118af575080155b156118d05760405163228b6eed60e21b8152600481018290526024016106c8565b600083815260096020908152604091829020825160e0810184528154815260018201546001600160a01b039081169382019390935260028201549092169282019290925260038201805491929160608401919061192c90613978565b80601f016020809104026020016040519081016040528092919081815260200182805461195890613978565b80156119a55780601f1061197a576101008083540402835291602001916119a5565b820191906000526020600020905b81548152906001019060200180831161198857829003601f168201915b505050918352505060048201546020820152600582015460ff16151560408201526006909101546060909101529392505050565b6106bd338383612dcb565b806007548111806119f3575080155b15611a145760405163228b6eed60e21b8152600481018290526024016106c8565b6000828152600960205260409020600401543411611a805760405162461bcd60e51b8152602060048201526024808201527f4f66666572206d7573742062652067726561746572207468616e204e465420706044820152637269636560e01b60648201526084016106c8565b60008281526009602052604090206005015460ff16611ae15760405162461bcd60e51b815260206004820152601a60248201527f4e4654206973206e6f74206c697374656420666f722073616c6500000000000060448201526064016106c8565b600082815260096020526040902060020154336001600160a01b0390911603611b585760405162461bcd60e51b815260206004820152602360248201527f4f776e6572206f66204e46542063616e6e6f742063726561746520616e206f666044820152623332b960e91b60648201526084016106c8565b60088054906000611b6883613a45565b919050555060006040518060a001604052806008548152602001848152602001336001600160a01b031681526020013481526020014262015180611bac9190613b7d565b815250905080600a60006008548152602001908152602001600020600082015181600001556020820151816001015560408201518160020160006101000a8154816001600160a01b0302191690836001600160a01b03160217905550606082015181600301556080820151816004015590505080600d6000336001600160a01b03166001600160a01b0316815260200190815260200160002060006008548152602001908152602001600020600082015181600001556020820151816001015560408201518160020160006101000a8154816001600160a01b0302191690836001600160a01b03160217905550606082015181600301556080820151816004015590505080600f600085815260200190815260200160002060006008548152602001908152602001600020600082015181600001556020820151816001015560408201518160020160006101000a8154816001600160a01b0302191690836001600160a01b031602179055506060820151816003015560808201518160040155905050600e6000336001600160a01b03166001600160a01b03168152602001908152602001600020600854908060018154018082558091505060019003906000526020600020016000909190919091505560106000848152602001908152602001600020600854908060018154018082558091505060019003906000526020600020016000909190919091505560085483336001600160a01b03167f3fae2a273d20dd8b0f4c8080fa3a4e0574580448d16be4638b41e18fe932bd6d34604051611df891815260200190565b60405180910390a4505050565b611e0d6133bd565b81600754811180611e1c575080155b15611e3d5760405163228b6eed60e21b8152600481018290526024016106c8565b6001600160a01b038085166000908152600b60209081526040808320878452825291829020825160e081018452815481526001820154851692810192909252600281015490931691810191909152600382018054919291606084019190611ea390613978565b80601f0160208091040260200160405190810160405280929190818152602001828054611ecf90613978565b8015611f1c5780601f10611ef157610100808354040283529160200191611f1c565b820191906000526020600020905b815481529060010190602001808311611eff57829003601f168201915b505050918352505060048201546020820152600582015460ff1615156040820152600690910154606090910152949350505050565b611f5c848484610af4565b610b793385858585612e6a565b80600754811180611f78575080155b15611f995760405163228b6eed60e21b8152600481018290526024016106c8565b6000828152600960205260409020600581015460ff1615611ff45760405162461bcd60e51b8152602060048201526015602482015274139195081a5cc8185b1c9958591e481b1a5cdd1959605a1b60448201526064016106c8565b60028101546001600160a01b031633146120505760405162461bcd60e51b815260206004820181905260248201527f4f6e6c79204e4654206f776e65722063616e20736574206173206c697374656460448201526064016106c8565b600581018054600160ff1990911681179091556000848152600960205260409020825481558183015491810180546001600160a01b039384166001600160a01b03199182161790915560028085015490830180549190941691161790915581906003808201906120c290840182613b90565b5060048281015490820155600580830154908201805460ff191660ff909216151591909117905560069182015491015560405183907fe61ba8f3709d513024466068827363bc90a62bd007cb525bfc4aa778736a037890600090a2505050565b80600854811180612131575080155b15612152576040516366b9bbdf60e11b8152600481018290526024016106c8565b6000828152600a60209081526040808320815160a081018352815481526001808301548286018190526002808501546001600160a01b0390811685880152600380870154606080880191909152600490970154608087015292895260098852868920875160e08101895281548152948101548216988501989098529087015416948201949094529284018054919594928401916121ee90613978565b80601f016020809104026020016040519081016040528092919081815260200182805461221a90613978565b80156122675780601f1061223c57610100808354040283529160200191612267565b820191906000526020600020905b81548152906001019060200180831161224a57829003601f168201915b505050918352505060048201546020820152600582015460ff1615156040808301919091526006909201546060909101528301519091506001600160a01b031633146122f55760405162461bcd60e51b815260206004820152601b60248201527f4f6e6c792062757965722063616e20616363657074206f66666572000000000060448201526064016106c8565b4282608001511161233c5760405162461bcd60e51b815260206004820152601160248201527013d999995c881a185cc8195e1c1a5c9959607a1b60448201526064016106c8565b602080830180516000908152600f8352604080822088835284528082208281556001808201849055600280830180546001600160a01b031990811690915560038085018790556004948501879055858b0180516001600160a01b03168852600d8a528688209851885297895285872087815580850188905580840180548416905580820188905585018790558c8752600a90985293852085815591820185905581018054909316909255938101829055909201919091555182516124009190612c49565b61240e338360200151612cd5565b6040808301516001600160a01b039081168383019081526020808601516000908152600982529390932084518155928401516001840180549184166001600160a01b03199283161790559051600284018054919093169116179055606082015182919060038201906124809082613abb565b506080820151600482015560a082015160058201805460ff191691151591909117905560c0909101516006909101556040828101516001600160a01b03166000908152600c602090815282822084518154600181018355918452918320015560608401519151909133918381818185875af1925050503d8060008114612522576040519150601f19603f3d011682016040523d82523d6000602084013e612527565b606091505b50509050806125825760405162461bcd60e51b815260206004820152602160248201527f4661696c656420746f2073656e6420457468657220746f204e4654206f776e656044820152603960f91b60648201526084016106c8565b84836020015184604001516001600160a01b03167fe5859ac8d1453deb0c67398ebdbb3eb123d30a902475652b5ccd8f794429306a60405160405180910390a45050505050565b60606125d482612a1a565b50600082815260066020526040812080546125ee90613978565b80601f016020809104026020016040519081016040528092919081815260200182805461261a90613978565b80156126675780601f1061263c57610100808354040283529160200191612667565b820191906000526020600020905b81548152906001019060200180831161264a57829003601f168201915b50505050509050600061268560408051602081019091526000815290565b90508051600003612697575092915050565b8151156126c95780826040516020016126b1929190613c65565b60405160208183030381529060405292505050919050565b6126d284612f93565b949350505050565b6001600160a01b03918216600090815260056020908152604080832093909416825291909152205460ff1690565b80600854811180612717575080155b15612738576040516366b9bbdf60e11b8152600481018290526024016106c8565b6000828152600a60209081526040808320815160a081018352815481526001808301548286018190526002808501546001600160a01b0390811685880152600380870154606080880191909152600490970154608087015292895260098852868920875160e08101895281548152948101548216988501989098529087015416948201949094529284018054919594928401916127d490613978565b80601f016020809104026020016040519081016040528092919081815260200182805461280090613978565b801561284d5780601f106128225761010080835404028352916020019161284d565b820191906000526020600020905b81548152906001019060200180831161283057829003601f168201915b505050918352505060048201546020820152600582015460ff1615156040808301919091526006909201546060909101528301519091506001600160a01b031633146128db5760405162461bcd60e51b815260206004820152601b60248201527f4f6e6c792062757965722063616e2063616e63656c206f66666572000000000060448201526064016106c8565b80516000908152600f6020908152604080832087845282528083208381556001808201859055600280830180546001600160a01b03199081169091556003808501889055600494850188905533808952600d88528689208b8901518a5288528689208981558086018a90558085018054851690558083018a905586018990558c8952600a90975294872087815592830187905590820180549091169055918201849055019190915561298d9085612c49565b80516129999085612b59565b60405184907fdac96ffadf545e896a607358aefe0834edaf531523bde67f81dcba02bd0ba36790600090a250505050565b60006001600160e01b031982166380ac58cd60e01b14806129fb57506001600160e01b03198216635b5e139f60e01b145b806105f157506301ffc9a760e01b6001600160e01b03198316146105f1565b6000818152600260205260408120546001600160a01b0316806105f157604051637e27328960e01b8152600481018490526024016106c8565b610cca8383836001613008565b6000828152600260205260408120546001600160a01b0390811690831615612a8d57612a8d81848661310e565b6001600160a01b03811615612acb57612aaa600085600080613008565b6001600160a01b038116600090815260036020526040902080546000190190555b6001600160a01b03851615612afa576001600160a01b0385166000908152600360205260409020805460010190555b60008481526002602052604080822080546001600160a01b0319166001600160a01b0389811691821790925591518793918516917fddf252ad1be2c89b69c2b068fc378daa952ba7f163c4a11628f55a4df523b3ef91a4949350505050565b81600754811180612b68575080155b15612b895760405163228b6eed60e21b8152600481018290526024016106c8565b6000838152601060205260408120805490915b81811015612c415784838281548110612bb757612bb7613a5e565b906000526020600020015403612c395782612bd3600184613c94565b81548110612be357612be3613a5e565b9060005260206000200154838281548110612c0057612c00613a5e565b906000526020600020018190555082805480612c1e57612c1e613ca7565b60019003818190600052602060002001600090559055612c41565b600101612b9c565b505050505050565b80600854811180612c58575080155b15612c79576040516366b9bbdf60e11b8152600481018290526024016106c8565b6001600160a01b0383166000908152600e60205260408120805490915b81811015612c415784838281548110612cb157612cb1613a5e565b906000526020600020015403612ccd5782612bd3600184613c94565b600101612c96565b80600754811180612ce4575080155b15612d055760405163228b6eed60e21b8152600481018290526024016106c8565b6001600160a01b0383166000908152600c60205260408120805490915b81811015612c415784838281548110612d3d57612d3d613a5e565b906000526020600020015403612d595782612bd3600184613c94565b600101612d22565b6106bd828260405180602001604052806000815250613172565b6000828152600660205260409020612d938282613abb565b506040518281527ff8e1a15aba9398e019f0b49df1a4fde98ee17ae345cb5f6b5e2c27f5033e8ce79060200160405180910390a15050565b6001600160a01b038216612dfd57604051630b61174360e31b81526001600160a01b03831660048201526024016106c8565b6001600160a01b03838116600081815260056020908152604080832094871680845294825291829020805460ff191686151590811790915591519182527f17307eab39ab6107e8899845ad3d59bd9653f200f220920489ca2b5937696c31910160405180910390a3505050565b6001600160a01b0383163b15612f8c57604051630a85bd0160e11b81526001600160a01b0384169063150b7a0290612eac908890889087908790600401613cbd565b6020604051808303816000875af1925050508015612ee7575060408051601f3d908101601f19168201909252612ee491810190613cfa565b60015b612f50573d808015612f15576040519150601f19603f3d011682016040523d82523d6000602084013e612f1a565b606091505b508051600003612f4857604051633250574960e11b81526001600160a01b03851660048201526024016106c8565b805181602001fd5b6001600160e01b03198116630a85bd0160e11b14612c4157604051633250574960e11b81526001600160a01b03851660048201526024016106c8565b5050505050565b6060612f9e82612a1a565b506000612fb660408051602081019091526000815290565b90506000815111612fd65760405180602001604052806000815250613001565b80612fe08461318a565b604051602001612ff1929190613c65565b6040516020818303038152906040525b9392505050565b808061301c57506001600160a01b03821615155b156130de57600061302c84612a1a565b90506001600160a01b038316158015906130585750826001600160a01b0316816001600160a01b031614155b801561306b575061306981846126da565b155b156130945760405163a9fbf51f60e01b81526001600160a01b03841660048201526024016106c8565b81156130dc5783856001600160a01b0316826001600160a01b03167f8c5be1e5ebec7d5bd14f71427d1e84f3dd0314c0f7b2291e5b200ac8c7c3b92560405160405180910390a45b505b5050600090815260046020526040902080546001600160a01b0319166001600160a01b0392909216919091179055565b61311983838361321d565b610cca576001600160a01b03831661314757604051637e27328960e01b8152600481018290526024016106c8565b60405163177e802f60e01b81526001600160a01b0383166004820152602481018290526044016106c8565b61317c8383613280565b610cca336000858585612e6a565b60606000613197836132e5565b600101905060008167ffffffffffffffff8111156131b7576131b7613791565b6040519080825280601f01601f1916602001820160405280156131e1576020820181803683370190505b5090508181016020015b600019016f181899199a1a9b1b9c1cb0b131b232b360811b600a86061a8153600a85049450846131eb57509392505050565b60006001600160a01b038316158015906126d25750826001600160a01b0316846001600160a01b03161480613257575061325784846126da565b806126d25750506000908152600460205260409020546001600160a01b03908116911614919050565b6001600160a01b0382166132aa57604051633250574960e11b8152600060048201526024016106c8565b60006132b883836000612a60565b90506001600160a01b03811615610cca576040516339e3563760e11b8152600060048201526024016106c8565b60008072184f03e93ff9f4daa797ed6e38ed64bf6a1f0160401b83106133245772184f03e93ff9f4daa797ed6e38ed64bf6a1f0160401b830492506040015b6d04ee2d6d415b85acef81000000008310613350576d04ee2d6d415b85acef8100000000830492506020015b662386f26fc10000831061336e57662386f26fc10000830492506010015b6305f5e1008310613386576305f5e100830492506008015b612710831061339a57612710830492506004015b606483106133ac576064830492506002015b600a83106105f15760010192915050565b6040518060e001604052806000815260200160006001600160a01b0316815260200160006001600160a01b031681526020016060815260200160008152602001600015158152602001600081525090565b6040518060a00160405280600081526020016000815260200160006001600160a01b0316815260200160008152602001600081525090565b50805461345290613978565b6000825580601f10613462575050565b601f0160209004906000526020600020908101906134809190613483565b50565b5b808211156134985760008155600101613484565b5090565b6001600160e01b03198116811461348057600080fd5b6000602082840312156134c457600080fd5b81356130018161349c565b60005b838110156134ea5781810151838201526020016134d2565b50506000910152565b6000815180845261350b8160208601602086016134cf565b601f01601f19169290920160200192915050565b60208152600061300160208301846134f3565b60006020828403121561354457600080fd5b5035919050565b80356001600160a01b038116811461356257600080fd5b919050565b6000806040838503121561357a57600080fd5b6135838361354b565b946020939093013593505050565b600080604083850312156135a457600080fd5b50508035926020909101359150565b8051825260018060a01b03602082015116602083015260018060a01b0360408201511660408301526000606082015160e060608501526135f660e08501826134f3565b90506080830151608085015260a0830151151560a085015260c083015160c08501528091505092915050565b6000602082016020835280845180835260408501915060408160051b86010192506020860160005b8281101561367b57603f198786030184526136668583516135b3565b9450602093840193919091019060010161364a565b50929695505050505050565b602080825282518282018190526000918401906040840190835b8181101561094c576136e583855180518252602080820151908301526040808201516001600160a01b03169083015260608082015190830152608090810151910152565b6020939093019260a092909201916001016136a1565b60008060006060848603121561371057600080fd5b6137198461354b565b92506137276020850161354b565b929592945050506040919091013590565b81518152602080830151908201526040808301516001600160a01b031690820152606080830151908201526080808301519082015260a081016105f1565b60006020828403121561378857600080fd5b6130018261354b565b634e487b7160e01b600052604160045260246000fd5b60008067ffffffffffffffff8411156137c2576137c2613791565b50604051601f19601f85018116603f0116810181811067ffffffffffffffff821117156137f1576137f1613791565b60405283815290508082840185101561380957600080fd5b83836020830137600060208583010152509392505050565b6000806040838503121561383457600080fd5b823567ffffffffffffffff81111561384b57600080fd5b8301601f8101851361385c57600080fd5b61386b858235602084016137a7565b95602094909401359450505050565b60208152600061300160208301846135b3565b600080604083850312156138a057600080fd5b6138a98361354b565b9150602083013580151581146138be57600080fd5b809150509250929050565b600080600080608085870312156138df57600080fd5b6138e88561354b565b93506138f66020860161354b565b925060408501359150606085013567ffffffffffffffff81111561391957600080fd5b8501601f8101871361392a57600080fd5b613939878235602084016137a7565b91505092959194509250565b6000806040838503121561395857600080fd5b6139618361354b565b915061396f6020840161354b565b90509250929050565b600181811c9082168061398c57607f821691505b602082108103610aee57634e487b7160e01b600052602260045260246000fd5b60208082526021908201527f4c696d6974206d7573742062652067726561746572207468616e206f666673656040820152601d60fa1b606082015260800190565b60208082526022908201527f4c696d6974206d757374206265206c657373207468616e20746f74616c204e46604082015261547360f01b606082015260800190565b634e487b7160e01b600052601160045260246000fd5b600060018201613a5757613a57613a2f565b5060010190565b634e487b7160e01b600052603260045260246000fd5b601f821115610cca57806000526020600020601f840160051c81016020851015613a9b5750805b601f840160051c820191505b81811015612f8c5760008155600101613aa7565b815167ffffffffffffffff811115613ad557613ad5613791565b613ae981613ae38454613978565b84613a74565b6020601f821160018114613b205760008315613b055750848201515b600184901b600019600386901b1c198216175b855550612f8c565b600084815260208120601f198516915b82811015613b505787850151825560209485019460019092019101613b30565b5084821015613b6e5786840151600019600387901b60f8161c191681555b50505050600190811b01905550565b808201808211156105f1576105f1613a2f565b818103613b9b575050565b613ba58254613978565b67ffffffffffffffff811115613bbd57613bbd613791565b613bcb81613ae38454613978565b6000601f821160018114613bfd5760008315613b05575081850154600184901b600019600386901b1c19821617613b18565b600085815260209020601f19841690600086815260209020845b83811015613c375782860154825560019586019590910190602001613c17565b5085831015613c555781850154600019600388901b60f8161c191681555b5050505050600190811b01905550565b60008351613c778184602088016134cf565b835190830190613c8b8183602088016134cf565b01949350505050565b818103818111156105f1576105f1613a2f565b634e487b7160e01b600052603160045260246000fd5b6001600160a01b0385811682528416602082015260408101839052608060608201819052600090613cf0908301846134f3565b9695505050505050565b600060208284031215613d0c57600080fd5b81516130018161349c56fea2646970667358221220f4611d06720985d0de2252cf486a1702b605fdfcfe50f38882df877e8e000e2e64736f6c634300081c0033",
  "linkReferences": {},
  "deployedLinkReferences": {}
}