{
  "_format": "hh-sol-artifact-1",
  "contractName": "NFTMarketplace",
  "sourceName": "contracts/NFTMarketplace.sol",
  "abi": [
    {
      "inputs": [],
      "stateMutability": "nonpayable",
      "type": "constructor"
    },
    {
      "inputs": [
        {
          "internalType": "address",
          "name": "sender",
          "type": "address"
        },
        {
          "internalType": "uint256",
          "name": "tokenId",
          "type": "uint256"
        },
        {
          "internalType": "address",
          "name": "owner",
          "type": "address"
        }
      ],
      "name": "ERC721IncorrectOwner",
      "type": "error"
    },
    {
      "inputs": [
        {
          "internalType": "address",
          "name": "operator",
          "type": "address"
        },
        {
          "internalType": "uint256",
          "name": "tokenId",
          "type": "uint256"
        }
      ],
      "name": "ERC721InsufficientApproval",
      "type": "error"
    },
    {
      "inputs": [
        {
          "internalType": "address",
          "name": "approver",
          "type": "address"
        }
      ],
      "name": "ERC721InvalidApprover",
      "type": "error"
    },
    {
      "inputs": [
        {
          "internalType": "address",
          "name": "operator",
          "type": "address"
        }
      ],
      "name": "ERC721InvalidOperator",
      "type": "error"
    },
    {
      "inputs": [
        {
          "internalType": "address",
          "name": "owner",
          "type": "address"
        }
      ],
      "name": "ERC721InvalidOwner",
      "type": "error"
    },
    {
      "inputs": [
        {
          "internalType": "address",
          "name": "receiver",
          "type": "address"
        }
      ],
      "name": "ERC721InvalidReceiver",
      "type": "error"
    },
    {
      "inputs": [
        {
          "internalType": "address",
          "name": "sender",
          "type": "address"
        }
      ],
      "name": "ERC721InvalidSender",
      "type": "error"
    },
    {
      "inputs": [
        {
          "internalType": "uint256",
          "name": "tokenId",
          "type": "uint256"
        }
      ],
      "name": "ERC721NonexistentToken",
      "type": "error"
    },
    {
      "anonymous": false,
      "inputs": [
        {
          "indexed": true,
          "internalType": "address",
          "name": "owner",
          "type": "address"
        },
        {
          "indexed": true,
          "internalType": "address",
          "name": "approved",
          "type": "address"
        },
        {
          "indexed": true,
          "internalType": "uint256",
          "name": "tokenId",
          "type": "uint256"
        }
      ],
      "name": "Approval",
      "type": "event"
    },
    {
      "anonymous": false,
      "inputs": [
        {
          "indexed": true,
          "internalType": "address",
          "name": "owner",
          "type": "address"
        },
        {
          "indexed": true,
          "internalType": "address",
          "name": "operator",
          "type": "address"
        },
        {
          "indexed": false,
          "internalType": "bool",
          "name": "approved",
          "type": "bool"
        }
      ],
      "name": "ApprovalForAll",
      "type": "event"
    },
    {
      "anonymous": false,
      "inputs": [
        {
          "indexed": false,
          "internalType": "uint256",
          "name": "_fromTokenId",
          "type": "uint256"
        },
        {
          "indexed": false,
          "internalType": "uint256",
          "name": "_toTokenId",
          "type": "uint256"
        }
      ],
      "name": "BatchMetadataUpdate",
      "type": "event"
    },
    {
      "anonymous": false,
      "inputs": [
        {
          "indexed": true,
          "internalType": "uint256",
          "name": "tokenId",
          "type": "uint256"
        },
        {
          "indexed": false,
          "internalType": "address",
          "name": "seller",
          "type": "address"
        },
        {
          "indexed": false,
          "internalType": "address",
          "name": "owner",
          "type": "address"
        },
        {
          "indexed": false,
          "internalType": "uint256",
          "name": "price",
          "type": "uint256"
        },
        {
          "indexed": false,
          "internalType": "bool",
          "name": "sold",
          "type": "bool"
        }
      ],
      "name": "MarketItemCreated",
      "type": "event"
    },
    {
      "anonymous": false,
      "inputs": [
        {
          "indexed": false,
          "internalType": "uint256",
          "name": "_tokenId",
          "type": "uint256"
        }
      ],
      "name": "MetadataUpdate",
      "type": "event"
    },
    {
      "anonymous": false,
      "inputs": [
        {
          "indexed": true,
          "internalType": "address",
          "name": "from",
          "type": "address"
        },
        {
          "indexed": true,
          "internalType": "address",
          "name": "to",
          "type": "address"
        },
        {
          "indexed": true,
          "internalType": "uint256",
          "name": "tokenId",
          "type": "uint256"
        }
      ],
      "name": "Transfer",
      "type": "event"
    },
    {
      "inputs": [
        {
          "internalType": "address",
          "name": "to",
          "type": "address"
        },
        {
          "internalType": "uint256",
          "name": "tokenId",
          "type": "uint256"
        }
      ],
      "name": "approve",
      "outputs": [],
      "stateMutability": "nonpayable",
      "type": "function"
    },
    {
      "inputs": [
        {
          "internalType": "address",
          "name": "owner",
          "type": "address"
        }
      ],
      "name": "balanceOf",
      "outputs": [
        {
          "internalType": "uint256",
          "name": "",
          "type": "uint256"
        }
      ],
      "stateMutability": "view",
      "type": "function"
    },
    {
      "inputs": [
        {
          "internalType": "uint256",
          "name": "tokenId",
          "type": "uint256"
        }
      ],
      "name": "createMarketSale",
      "outputs": [],
      "stateMutability": "payable",
      "type": "function"
    },
    {
      "inputs": [
        {
          "internalType": "string",
          "name": "tokenURI",
          "type": "string"
        },
        {
          "internalType": "uint256",
          "name": "price",
          "type": "uint256"
        }
      ],
      "name": "createToken",
      "outputs": [
        {
          "internalType": "uint256",
          "name": "",
          "type": "uint256"
        }
      ],
      "stateMutability": "payable",
      "type": "function"
    },
    {
      "inputs": [],
      "name": "fetchItemsListed",
      "outputs": [
        {
          "components": [
            {
              "internalType": "uint256",
              "name": "tokenId",
              "type": "uint256"
            },
            {
              "internalType": "address payable",
              "name": "seller",
              "type": "address"
            },
            {
              "internalType": "address payable",
              "name": "owner",
              "type": "address"
            },
            {
              "internalType": "uint256",
              "name": "price",
              "type": "uint256"
            },
            {
              "internalType": "bool",
              "name": "sold",
              "type": "bool"
            }
          ],
          "internalType": "struct NFTMarketplace.MarketItem[]",
          "name": "",
          "type": "tuple[]"
        }
      ],
      "stateMutability": "view",
      "type": "function"
    },
    {
      "inputs": [],
      "name": "fetchMarketItems",
      "outputs": [
        {
          "components": [
            {
              "internalType": "uint256",
              "name": "tokenId",
              "type": "uint256"
            },
            {
              "internalType": "address payable",
              "name": "seller",
              "type": "address"
            },
            {
              "internalType": "address payable",
              "name": "owner",
              "type": "address"
            },
            {
              "internalType": "uint256",
              "name": "price",
              "type": "uint256"
            },
            {
              "internalType": "bool",
              "name": "sold",
              "type": "bool"
            }
          ],
          "internalType": "struct NFTMarketplace.MarketItem[]",
          "name": "",
          "type": "tuple[]"
        }
      ],
      "stateMutability": "view",
      "type": "function"
    },
    {
      "inputs": [],
      "name": "fetchMyNFTs",
      "outputs": [
        {
          "components": [
            {
              "internalType": "uint256",
              "name": "tokenId",
              "type": "uint256"
            },
            {
              "internalType": "address payable",
              "name": "seller",
              "type": "address"
            },
            {
              "internalType": "address payable",
              "name": "owner",
              "type": "address"
            },
            {
              "internalType": "uint256",
              "name": "price",
              "type": "uint256"
            },
            {
              "internalType": "bool",
              "name": "sold",
              "type": "bool"
            }
          ],
          "internalType": "struct NFTMarketplace.MarketItem[]",
          "name": "",
          "type": "tuple[]"
        }
      ],
      "stateMutability": "view",
      "type": "function"
    },
    {
      "inputs": [
        {
          "internalType": "uint256",
          "name": "tokenId",
          "type": "uint256"
        }
      ],
      "name": "getApproved",
      "outputs": [
        {
          "internalType": "address",
          "name": "",
          "type": "address"
        }
      ],
      "stateMutability": "view",
      "type": "function"
    },
    {
      "inputs": [],
      "name": "getListingPrice",
      "outputs": [
        {
          "internalType": "uint256",
          "name": "",
          "type": "uint256"
        }
      ],
      "stateMutability": "pure",
      "type": "function"
    },
    {
      "inputs": [
        {
          "internalType": "address",
          "name": "owner",
          "type": "address"
        },
        {
          "internalType": "address",
          "name": "operator",
          "type": "address"
        }
      ],
      "name": "isApprovedForAll",
      "outputs": [
        {
          "internalType": "bool",
          "name": "",
          "type": "bool"
        }
      ],
      "stateMutability": "view",
      "type": "function"
    },
    {
      "inputs": [],
      "name": "name",
      "outputs": [
        {
          "internalType": "string",
          "name": "",
          "type": "string"
        }
      ],
      "stateMutability": "view",
      "type": "function"
    },
    {
      "inputs": [
        {
          "internalType": "uint256",
          "name": "tokenId",
          "type": "uint256"
        }
      ],
      "name": "ownerOf",
      "outputs": [
        {
          "internalType": "address",
          "name": "",
          "type": "address"
        }
      ],
      "stateMutability": "view",
      "type": "function"
    },
    {
      "inputs": [
        {
          "internalType": "uint256",
          "name": "tokenId",
          "type": "uint256"
        },
        {
          "internalType": "uint256",
          "name": "price",
          "type": "uint256"
        }
      ],
      "name": "reSellToken",
      "outputs": [],
      "stateMutability": "payable",
      "type": "function"
    },
    {
      "inputs": [
        {
          "internalType": "address",
          "name": "from",
          "type": "address"
        },
        {
          "internalType": "address",
          "name": "to",
          "type": "address"
        },
        {
          "internalType": "uint256",
          "name": "tokenId",
          "type": "uint256"
        }
      ],
      "name": "safeTransferFrom",
      "outputs": [],
      "stateMutability": "nonpayable",
      "type": "function"
    },
    {
      "inputs": [
        {
          "internalType": "address",
          "name": "from",
          "type": "address"
        },
        {
          "internalType": "address",
          "name": "to",
          "type": "address"
        },
        {
          "internalType": "uint256",
          "name": "tokenId",
          "type": "uint256"
        },
        {
          "internalType": "bytes",
          "name": "data",
          "type": "bytes"
        }
      ],
      "name": "safeTransferFrom",
      "outputs": [],
      "stateMutability": "nonpayable",
      "type": "function"
    },
    {
      "inputs": [
        {
          "internalType": "address",
          "name": "operator",
          "type": "address"
        },
        {
          "internalType": "bool",
          "name": "approved",
          "type": "bool"
        }
      ],
      "name": "setApprovalForAll",
      "outputs": [],
      "stateMutability": "nonpayable",
      "type": "function"
    },
    {
      "inputs": [
        {
          "internalType": "bytes4",
          "name": "interfaceId",
          "type": "bytes4"
        }
      ],
      "name": "supportsInterface",
      "outputs": [
        {
          "internalType": "bool",
          "name": "",
          "type": "bool"
        }
      ],
      "stateMutability": "view",
      "type": "function"
    },
    {
      "inputs": [],
      "name": "symbol",
      "outputs": [
        {
          "internalType": "string",
          "name": "",
          "type": "string"
        }
      ],
      "stateMutability": "view",
      "type": "function"
    },
    {
      "inputs": [
        {
          "internalType": "uint256",
          "name": "tokenId",
          "type": "uint256"
        }
      ],
      "name": "tokenURI",
      "outputs": [
        {
          "internalType": "string",
          "name": "",
          "type": "string"
        }
      ],
      "stateMutability": "view",
      "type": "function"
    },
    {
      "inputs": [
        {
          "internalType": "address",
          "name": "from",
          "type": "address"
        },
        {
          "internalType": "address",
          "name": "to",
          "type": "address"
        },
        {
          "internalType": "uint256",
          "name": "tokenId",
          "type": "uint256"
        }
      ],
      "name": "transferFrom",
      "outputs": [],
      "stateMutability": "nonpayable",
      "type": "function"
    },
    {
      "inputs": [
        {
          "internalType": "uint256",
          "name": "_listingPrice",
          "type": "uint256"
        }
      ],
      "name": "updateListingPrice",
      "outputs": [],
      "stateMutability": "payable",
      "type": "function"
    }
  ],
  "bytecode": "0x60806040526605543df729c00060095534801561001b57600080fd5b506040518060400160405280600f81526020017f4e4654204d61726b6574706c61636500000000000000000000000000000000008152506040518060400160405280600481526020017f4e46544d0000000000000000000000000000000000000000000000000000000081525081600090816100979190610340565b5080600190816100a79190610340565b50505033600a60006101000a81548173ffffffffffffffffffffffffffffffffffffffff021916908373ffffffffffffffffffffffffffffffffffffffff160217905550610412565b600081519050919050565b7f4e487b7100000000000000000000000000000000000000000000000000000000600052604160045260246000fd5b7f4e487b7100000000000000000000000000000000000000000000000000000000600052602260045260246000fd5b6000600282049050600182168061017157607f821691505b6020821081036101845761018361012a565b5b50919050565b60008190508160005260206000209050919050565b60006020601f8301049050919050565b600082821b905092915050565b6000600883026101ec7fffffffffffffffffffffffffffffffffffffffffffffffffffffffffffffffff826101af565b6101f686836101af565b95508019841693508086168417925050509392505050565b6000819050919050565b6000819050919050565b600061023d6102386102338461020e565b610218565b61020e565b9050919050565b6000819050919050565b61025783610222565b61026b61026382610244565b8484546101bc565b825550505050565b600090565b610280610273565b61028b81848461024e565b505050565b5b818110156102af576102a4600082610278565b600181019050610291565b5050565b601f8211156102f4576102c58161018a565b6102ce8461019f565b810160208510156102dd578190505b6102f16102e98561019f565b830182610290565b50505b505050565b600082821c905092915050565b6000610317600019846008026102f9565b1980831691505092915050565b60006103308383610306565b9150826002028217905092915050565b610349826100f0565b67ffffffffffffffff811115610362576103616100fb565b5b61036c8254610159565b6103778282856102b3565b600060209050601f8311600181146103aa5760008415610398578287015190505b6103a28582610324565b86555061040a565b601f1984166103b88661018a565b60005b828110156103e0578489015182556001820191506020850194506020810190506103bb565b868310156103fd57848901516103f9601f891682610306565b8355505b6001600288020188555050505b505050505050565b613b57806104216000396000f3fe60806040526004361061012a5760003560e01c80636352211e116100ab578063a22cb4651161006f578063a22cb465146103ec578063ae677aa314610415578063b88d4fde14610431578063be9af5361461045a578063c87b56dd14610476578063e985e9c5146104b35761012a565b80636352211e146102fb57806370a082311461033857806372b3b6201461037557806385535b25146103a557806395d89b41146103c15761012a565b806312e85585116100f257806312e8558514610228578063202e37401461025357806323b872dd1461027e57806342842e0e146102a757806345f8fa80146102d05761012a565b806301ffc9a71461012f57806306fdde031461016c578063081812fc14610197578063095ea7b3146101d45780630f08efe0146101fd575b600080fd5b34801561013b57600080fd5b5061015660048036038101906101519190612aaf565b6104f0565b6040516101639190612af7565b60405180910390f35b34801561017857600080fd5b50610181610551565b60405161018e9190612ba2565b60405180910390f35b3480156101a357600080fd5b506101be60048036038101906101b99190612bfa565b6105e3565b6040516101cb9190612c68565b60405180910390f35b3480156101e057600080fd5b506101fb60048036038101906101f69190612caf565b6105ff565b005b34801561020957600080fd5b50610212610615565b60405161021f9190612e45565b60405180910390f35b34801561023457600080fd5b5061023d610862565b60405161024a9190612e76565b60405180910390f35b34801561025f57600080fd5b50610268610871565b6040516102759190612e45565b60405180910390f35b34801561028a57600080fd5b506102a560048036038101906102a09190612e91565b610b4a565b005b3480156102b357600080fd5b506102ce60048036038101906102c99190612e91565b610c4c565b005b3480156102dc57600080fd5b506102e5610c6c565b6040516102f29190612e45565b60405180910390f35b34801561030757600080fd5b50610322600480360381019061031d9190612bfa565b610f45565b60405161032f9190612c68565b60405180910390f35b34801561034457600080fd5b5061035f600480360381019061035a9190612ee4565b610f57565b60405161036c9190612e76565b60405180910390f35b61038f600480360381019061038a9190613046565b611011565b60405161039c9190612e76565b60405180910390f35b6103bf60048036038101906103ba91906130a2565b611057565b005b3480156103cd57600080fd5b506103d6611257565b6040516103e39190612ba2565b60405180910390f35b3480156103f857600080fd5b50610413600480360381019061040e919061310e565b6112e9565b005b61042f600480360381019061042a9190612bfa565b6112ff565b005b34801561043d57600080fd5b50610458600480360381019061045391906131ef565b611399565b005b610474600480360381019061046f9190612bfa565b6113be565b005b34801561048257600080fd5b5061049d60048036038101906104989190612bfa565b6115ab565b6040516104aa9190612ba2565b60405180910390f35b3480156104bf57600080fd5b506104da60048036038101906104d59190613272565b6116be565b6040516104e79190612af7565b60405180910390f35b6000634906490660e01b7bffffffffffffffffffffffffffffffffffffffffffffffffffffffff1916827bffffffffffffffffffffffffffffffffffffffffffffffffffffffff1916148061054a575061054982611752565b5b9050919050565b606060008054610560906132e1565b80601f016020809104026020016040519081016040528092919081815260200182805461058c906132e1565b80156105d95780601f106105ae576101008083540402835291602001916105d9565b820191906000526020600020905b8154815290600101906020018083116105bc57829003601f168201915b5050505050905090565b60006105ee82611834565b506105f8826118bc565b9050919050565b610611828261060c6118f9565b611901565b5050565b60606000600754905060006008546007546106309190613341565b90506000808267ffffffffffffffff81111561064f5761064e612f1b565b5b60405190808252806020026020018201604052801561068857816020015b6106756129e6565b81526020019060019003908161066d5790505b50905060005b84811015610857573073ffffffffffffffffffffffffffffffffffffffff16600b60006001846106be9190613375565b815260200190815260200160002060020160009054906101000a900473ffffffffffffffffffffffffffffffffffffffff1673ffffffffffffffffffffffffffffffffffffffff160361084a57600060018261071a9190613375565b90506000600b60008381526020019081526020016000209050806040518060a0016040529081600082015481526020016001820160009054906101000a900473ffffffffffffffffffffffffffffffffffffffff1673ffffffffffffffffffffffffffffffffffffffff1673ffffffffffffffffffffffffffffffffffffffff1681526020016002820160009054906101000a900473ffffffffffffffffffffffffffffffffffffffff1673ffffffffffffffffffffffffffffffffffffffff1673ffffffffffffffffffffffffffffffffffffffff168152602001600382015481526020016004820160009054906101000a900460ff16151515158152505084868151811061082d5761082c6133a9565b5b60200260200101819052506001856108459190613375565b945050505b808060010191505061068e565b508094505050505090565b60006605543df729c000905090565b60606000600754905060008060005b8381101561091a573373ffffffffffffffffffffffffffffffffffffffff16600b60006001846108b09190613375565b815260200190815260200160002060020160009054906101000a900473ffffffffffffffffffffffffffffffffffffffff1673ffffffffffffffffffffffffffffffffffffffff160361090d5760018361090a9190613375565b92505b8080600101915050610880565b5060008267ffffffffffffffff81111561093757610936612f1b565b5b60405190808252806020026020018201604052801561097057816020015b61095d6129e6565b8152602001906001900390816109555790505b50905060005b84811015610b3f573373ffffffffffffffffffffffffffffffffffffffff16600b60006001846109a69190613375565b815260200190815260200160002060020160009054906101000a900473ffffffffffffffffffffffffffffffffffffffff1673ffffffffffffffffffffffffffffffffffffffff1603610b32576000600182610a029190613375565b90506000600b60008381526020019081526020016000209050806040518060a0016040529081600082015481526020016001820160009054906101000a900473ffffffffffffffffffffffffffffffffffffffff1673ffffffffffffffffffffffffffffffffffffffff1673ffffffffffffffffffffffffffffffffffffffff1681526020016002820160009054906101000a900473ffffffffffffffffffffffffffffffffffffffff1673ffffffffffffffffffffffffffffffffffffffff1673ffffffffffffffffffffffffffffffffffffffff168152602001600382015481526020016004820160009054906101000a900460ff161515151581525050848681518110610b1557610b146133a9565b5b6020026020010181905250600185610b2d9190613375565b945050505b8080600101915050610976565b508094505050505090565b600073ffffffffffffffffffffffffffffffffffffffff168273ffffffffffffffffffffffffffffffffffffffff1603610bbc5760006040517f64a0ae92000000000000000000000000000000000000000000000000000000008152600401610bb39190612c68565b60405180910390fd5b6000610bd08383610bcb6118f9565b611913565b90508373ffffffffffffffffffffffffffffffffffffffff168173ffffffffffffffffffffffffffffffffffffffff1614610c46578382826040517f64283d7b000000000000000000000000000000000000000000000000000000008152600401610c3d939291906133d8565b60405180910390fd5b50505050565b610c6783838360405180602001604052806000815250611399565b505050565b60606000600754905060008060005b83811015610d15573373ffffffffffffffffffffffffffffffffffffffff16600b6000600184610cab9190613375565b815260200190815260200160002060010160009054906101000a900473ffffffffffffffffffffffffffffffffffffffff1673ffffffffffffffffffffffffffffffffffffffff1603610d0857600183610d059190613375565b92505b8080600101915050610c7b565b5060008267ffffffffffffffff811115610d3257610d31612f1b565b5b604051908082528060200260200182016040528015610d6b57816020015b610d586129e6565b815260200190600190039081610d505790505b50905060005b84811015610f3a573373ffffffffffffffffffffffffffffffffffffffff16600b6000600184610da19190613375565b815260200190815260200160002060010160009054906101000a900473ffffffffffffffffffffffffffffffffffffffff1673ffffffffffffffffffffffffffffffffffffffff1603610f2d576000600182610dfd9190613375565b90506000600b60008381526020019081526020016000209050806040518060a0016040529081600082015481526020016001820160009054906101000a900473ffffffffffffffffffffffffffffffffffffffff1673ffffffffffffffffffffffffffffffffffffffff1673ffffffffffffffffffffffffffffffffffffffff1681526020016002820160009054906101000a900473ffffffffffffffffffffffffffffffffffffffff1673ffffffffffffffffffffffffffffffffffffffff1673ffffffffffffffffffffffffffffffffffffffff168152602001600382015481526020016004820160009054906101000a900460ff161515151581525050848681518110610f1057610f0f6133a9565b5b6020026020010181905250600185610f289190613375565b945050505b8080600101915050610d71565b508094505050505090565b6000610f5082611834565b9050919050565b60008073ffffffffffffffffffffffffffffffffffffffff168273ffffffffffffffffffffffffffffffffffffffff1603610fca5760006040517f89c62b64000000000000000000000000000000000000000000000000000000008152600401610fc19190612c68565b60405180910390fd5b600360008373ffffffffffffffffffffffffffffffffffffffff1673ffffffffffffffffffffffffffffffffffffffff168152602001908152602001600020549050919050565b600060016007546110229190613375565b600781905550600060075490506110393382611b2d565b6110438185611b4b565b61104d8184611ba7565b8091505092915050565b3373ffffffffffffffffffffffffffffffffffffffff16600b600084815260200190815260200160002060020160009054906101000a900473ffffffffffffffffffffffffffffffffffffffff1673ffffffffffffffffffffffffffffffffffffffff16146110fb576040517f08c379a00000000000000000000000000000000000000000000000000000000081526004016110f290613481565b60405180910390fd5b600954341461113f576040517f08c379a000000000000000000000000000000000000000000000000000000000815260040161113690613513565b60405180910390fd5b33600b600084815260200190815260200160002060010160006101000a81548173ffffffffffffffffffffffffffffffffffffffff021916908373ffffffffffffffffffffffffffffffffffffffff16021790555030600b600084815260200190815260200160002060020160006101000a81548173ffffffffffffffffffffffffffffffffffffffff021916908373ffffffffffffffffffffffffffffffffffffffff16021790555080600b6000848152602001908152602001600020600301819055506000600b600084815260200190815260200160002060040160006101000a81548160ff02191690831515021790555060016008546112429190613375565b600881905550611253333084611daa565b5050565b606060018054611266906132e1565b80601f0160208091040260200160405190810160405280929190818152602001828054611292906132e1565b80156112df5780601f106112b4576101008083540402835291602001916112df565b820191906000526020600020905b8154815290600101906020018083116112c257829003601f168201915b5050505050905090565b6112fb6112f46118f9565b8383611f17565b5050565b600a60009054906101000a900473ffffffffffffffffffffffffffffffffffffffff1673ffffffffffffffffffffffffffffffffffffffff163373ffffffffffffffffffffffffffffffffffffffff161461138f576040517f08c379a0000000000000000000000000000000000000000000000000000000008152600401611386906135a5565b60405180910390fd5b8060098190555050565b6113a4848484610b4a565b6113b86113af6118f9565b85858585612086565b50505050565b6000600b600083815260200190815260200160002060030154905080341461141b576040517f08c379a000000000000000000000000000000000000000000000000000000000815260040161141290613637565b60405180910390fd5b33600b600084815260200190815260200160002060020160006101000a81548173ffffffffffffffffffffffffffffffffffffffff021916908373ffffffffffffffffffffffffffffffffffffffff1602179055506001600b600084815260200190815260200160002060040160006101000a81548160ff02191690831515021790555060016008546114ae9190613375565b6008819055506114bf303384611daa565b600a60009054906101000a900473ffffffffffffffffffffffffffffffffffffffff1673ffffffffffffffffffffffffffffffffffffffff166108fc6009549081150290604051600060405180830381858888f19350505050158015611529573d6000803e3d6000fd5b50600b600083815260200190815260200160002060010160009054906101000a900473ffffffffffffffffffffffffffffffffffffffff1673ffffffffffffffffffffffffffffffffffffffff166108fc349081150290604051600060405180830381858888f193505050501580156115a6573d6000803e3d6000fd5b505050565b60606115b682611834565b5060006006600084815260200190815260200160002080546115d7906132e1565b80601f0160208091040260200160405190810160405280929190818152602001828054611603906132e1565b80156116505780601f1061162557610100808354040283529160200191611650565b820191906000526020600020905b81548152906001019060200180831161163357829003601f168201915b505050505090506000611661612237565b905060008151036116765781925050506116b9565b6000825111156116ab578082604051602001611693929190613693565b604051602081830303815290604052925050506116b9565b6116b48461224e565b925050505b919050565b6000600560008473ffffffffffffffffffffffffffffffffffffffff1673ffffffffffffffffffffffffffffffffffffffff16815260200190815260200160002060008373ffffffffffffffffffffffffffffffffffffffff1673ffffffffffffffffffffffffffffffffffffffff16815260200190815260200160002060009054906101000a900460ff16905092915050565b60007f80ac58cd000000000000000000000000000000000000000000000000000000007bffffffffffffffffffffffffffffffffffffffffffffffffffffffff1916827bffffffffffffffffffffffffffffffffffffffffffffffffffffffff1916148061181d57507f5b5e139f000000000000000000000000000000000000000000000000000000007bffffffffffffffffffffffffffffffffffffffffffffffffffffffff1916827bffffffffffffffffffffffffffffffffffffffffffffffffffffffff1916145b8061182d575061182c826122b7565b5b9050919050565b60008061184083612321565b9050600073ffffffffffffffffffffffffffffffffffffffff168173ffffffffffffffffffffffffffffffffffffffff16036118b357826040517f7e2732890000000000000000000000000000000000000000000000000000000081526004016118aa9190612e76565b60405180910390fd5b80915050919050565b60006004600083815260200190815260200160002060009054906101000a900473ffffffffffffffffffffffffffffffffffffffff169050919050565b600033905090565b61190e838383600161235e565b505050565b60008061191f84612321565b9050600073ffffffffffffffffffffffffffffffffffffffff168373ffffffffffffffffffffffffffffffffffffffff161461196157611960818486612523565b5b600073ffffffffffffffffffffffffffffffffffffffff168173ffffffffffffffffffffffffffffffffffffffff16146119f2576119a360008560008061235e565b6001600360008373ffffffffffffffffffffffffffffffffffffffff1673ffffffffffffffffffffffffffffffffffffffff168152602001908152602001600020600082825403925050819055505b600073ffffffffffffffffffffffffffffffffffffffff168573ffffffffffffffffffffffffffffffffffffffff1614611a75576001600360008773ffffffffffffffffffffffffffffffffffffffff1673ffffffffffffffffffffffffffffffffffffffff168152602001908152602001600020600082825401925050819055505b846002600086815260200190815260200160002060006101000a81548173ffffffffffffffffffffffffffffffffffffffff021916908373ffffffffffffffffffffffffffffffffffffffff160217905550838573ffffffffffffffffffffffffffffffffffffffff168273ffffffffffffffffffffffffffffffffffffffff167fddf252ad1be2c89b69c2b068fc378daa952ba7f163c4a11628f55a4df523b3ef60405160405180910390a4809150509392505050565b611b478282604051806020016040528060008152506125e7565b5050565b80600660008481526020019081526020016000209081611b6b9190613863565b507ff8e1a15aba9398e019f0b49df1a4fde98ee17ae345cb5f6b5e2c27f5033e8ce782604051611b9b9190612e76565b60405180910390a15050565b60008111611bea576040517f08c379a0000000000000000000000000000000000000000000000000000000008152600401611be190613981565b60405180910390fd5b6009543414611c2e576040517f08c379a0000000000000000000000000000000000000000000000000000000008152600401611c2590613513565b60405180910390fd5b6040518060a001604052808381526020013373ffffffffffffffffffffffffffffffffffffffff1681526020013073ffffffffffffffffffffffffffffffffffffffff16815260200182815260200160001515815250600b60008481526020019081526020016000206000820151816000015560208201518160010160006101000a81548173ffffffffffffffffffffffffffffffffffffffff021916908373ffffffffffffffffffffffffffffffffffffffff16021790555060408201518160020160006101000a81548173ffffffffffffffffffffffffffffffffffffffff021916908373ffffffffffffffffffffffffffffffffffffffff1602179055506060820151816003015560808201518160040160006101000a81548160ff021916908315150217905550905050611d67333084611daa565b817fb640004f1d14576d0c209e240cad0410e0d8c0c33a09375861fbadae2588a98d3330846000604051611d9e94939291906139a1565b60405180910390a25050565b600073ffffffffffffffffffffffffffffffffffffffff168273ffffffffffffffffffffffffffffffffffffffff1603611e1c5760006040517f64a0ae92000000000000000000000000000000000000000000000000000000008152600401611e139190612c68565b60405180910390fd5b6000611e2a83836000611913565b9050600073ffffffffffffffffffffffffffffffffffffffff168173ffffffffffffffffffffffffffffffffffffffff1603611e9d57816040517f7e273289000000000000000000000000000000000000000000000000000000008152600401611e949190612e76565b60405180910390fd5b8373ffffffffffffffffffffffffffffffffffffffff168173ffffffffffffffffffffffffffffffffffffffff1614611f11578382826040517f64283d7b000000000000000000000000000000000000000000000000000000008152600401611f08939291906133d8565b60405180910390fd5b50505050565b600073ffffffffffffffffffffffffffffffffffffffff168273ffffffffffffffffffffffffffffffffffffffff1603611f8857816040517f5b08ba18000000000000000000000000000000000000000000000000000000008152600401611f7f9190612c68565b60405180910390fd5b80600560008573ffffffffffffffffffffffffffffffffffffffff1673ffffffffffffffffffffffffffffffffffffffff16815260200190815260200160002060008473ffffffffffffffffffffffffffffffffffffffff1673ffffffffffffffffffffffffffffffffffffffff16815260200190815260200160002060006101000a81548160ff0219169083151502179055508173ffffffffffffffffffffffffffffffffffffffff168373ffffffffffffffffffffffffffffffffffffffff167f17307eab39ab6107e8899845ad3d59bd9653f200f220920489ca2b5937696c31836040516120799190612af7565b60405180910390a3505050565b60008373ffffffffffffffffffffffffffffffffffffffff163b1115612230578273ffffffffffffffffffffffffffffffffffffffff1663150b7a02868685856040518563ffffffff1660e01b81526004016120e59493929190613a3b565b6020604051808303816000875af192505050801561212157506040513d601f19601f8201168201806040525081019061211e9190613a9c565b60015b6121a5573d8060008114612151576040519150601f19603f3d011682016040523d82523d6000602084013e612156565b606091505b50600081510361219d57836040517f64a0ae920000000000000000000000000000000000000000000000000000000081526004016121949190612c68565b60405180910390fd5b805181602001fd5b63150b7a0260e01b7bffffffffffffffffffffffffffffffffffffffffffffffffffffffff1916817bffffffffffffffffffffffffffffffffffffffffffffffffffffffff19161461222e57836040517f64a0ae920000000000000000000000000000000000000000000000000000000081526004016122259190612c68565b60405180910390fd5b505b5050505050565b606060405180602001604052806000815250905090565b606061225982611834565b506000612264612237565b9050600081511161228457604051806020016040528060008152506122af565b8061228e8461260b565b60405160200161229f929190613693565b6040516020818303038152906040525b915050919050565b60007f01ffc9a7000000000000000000000000000000000000000000000000000000007bffffffffffffffffffffffffffffffffffffffffffffffffffffffff1916827bffffffffffffffffffffffffffffffffffffffffffffffffffffffff1916149050919050565b60006002600083815260200190815260200160002060009054906101000a900473ffffffffffffffffffffffffffffffffffffffff169050919050565b80806123975750600073ffffffffffffffffffffffffffffffffffffffff168273ffffffffffffffffffffffffffffffffffffffff1614155b156124cb5760006123a784611834565b9050600073ffffffffffffffffffffffffffffffffffffffff168373ffffffffffffffffffffffffffffffffffffffff161415801561241257508273ffffffffffffffffffffffffffffffffffffffff168173ffffffffffffffffffffffffffffffffffffffff1614155b8015612425575061242381846116be565b155b1561246757826040517fa9fbf51f00000000000000000000000000000000000000000000000000000000815260040161245e9190612c68565b60405180910390fd5b81156124c957838573ffffffffffffffffffffffffffffffffffffffff168273ffffffffffffffffffffffffffffffffffffffff167f8c5be1e5ebec7d5bd14f71427d1e84f3dd0314c0f7b2291e5b200ac8c7c3b92560405160405180910390a45b505b836004600085815260200190815260200160002060006101000a81548173ffffffffffffffffffffffffffffffffffffffff021916908373ffffffffffffffffffffffffffffffffffffffff16021790555050505050565b61252e8383836126d9565b6125e257600073ffffffffffffffffffffffffffffffffffffffff168373ffffffffffffffffffffffffffffffffffffffff16036125a357806040517f7e27328900000000000000000000000000000000000000000000000000000000815260040161259a9190612e76565b60405180910390fd5b81816040517f177e802f0000000000000000000000000000000000000000000000000000000081526004016125d9929190613ac9565b60405180910390fd5b505050565b6125f1838361279a565b6126066125fc6118f9565b6000858585612086565b505050565b60606000600161261a84612893565b01905060008167ffffffffffffffff81111561263957612638612f1b565b5b6040519080825280601f01601f19166020018201604052801561266b5781602001600182028036833780820191505090505b509050600082602001820190505b6001156126ce578080600190039150507f3031323334353637383961626364656600000000000000000000000000000000600a86061a8153600a85816126c2576126c1613af2565b5b04945060008503612679575b819350505050919050565b60008073ffffffffffffffffffffffffffffffffffffffff168373ffffffffffffffffffffffffffffffffffffffff161415801561279157508273ffffffffffffffffffffffffffffffffffffffff168473ffffffffffffffffffffffffffffffffffffffff161480612752575061275184846116be565b5b8061279057508273ffffffffffffffffffffffffffffffffffffffff16612778836118bc565b73ffffffffffffffffffffffffffffffffffffffff16145b5b90509392505050565b600073ffffffffffffffffffffffffffffffffffffffff168273ffffffffffffffffffffffffffffffffffffffff160361280c5760006040517f64a0ae920000000000000000000000000000000000000000000000000000000081526004016128039190612c68565b60405180910390fd5b600061281a83836000611913565b9050600073ffffffffffffffffffffffffffffffffffffffff168173ffffffffffffffffffffffffffffffffffffffff161461288e5760006040517f73c6ac6e0000000000000000000000000000000000000000000000000000000081526004016128859190612c68565b60405180910390fd5b505050565b600080600090507a184f03e93ff9f4daa797ed6e38ed64bf6a1f01000000000000000083106128f1577a184f03e93ff9f4daa797ed6e38ed64bf6a1f01000000000000000083816128e7576128e6613af2565b5b0492506040810190505b6d04ee2d6d415b85acef8100000000831061292e576d04ee2d6d415b85acef8100000000838161292457612923613af2565b5b0492506020810190505b662386f26fc10000831061295d57662386f26fc10000838161295357612952613af2565b5b0492506010810190505b6305f5e1008310612986576305f5e100838161297c5761297b613af2565b5b0492506008810190505b61271083106129ab5761271083816129a1576129a0613af2565b5b0492506004810190505b606483106129ce57606483816129c4576129c3613af2565b5b0492506002810190505b600a83106129dd576001810190505b80915050919050565b6040518060a0016040528060008152602001600073ffffffffffffffffffffffffffffffffffffffff168152602001600073ffffffffffffffffffffffffffffffffffffffff168152602001600081526020016000151581525090565b6000604051905090565b600080fd5b600080fd5b60007fffffffff0000000000000000000000000000000000000000000000000000000082169050919050565b612a8c81612a57565b8114612a9757600080fd5b50565b600081359050612aa981612a83565b92915050565b600060208284031215612ac557612ac4612a4d565b5b6000612ad384828501612a9a565b91505092915050565b60008115159050919050565b612af181612adc565b82525050565b6000602082019050612b0c6000830184612ae8565b92915050565b600081519050919050565b600082825260208201905092915050565b60005b83811015612b4c578082015181840152602081019050612b31565b60008484015250505050565b6000601f19601f8301169050919050565b6000612b7482612b12565b612b7e8185612b1d565b9350612b8e818560208601612b2e565b612b9781612b58565b840191505092915050565b60006020820190508181036000830152612bbc8184612b69565b905092915050565b6000819050919050565b612bd781612bc4565b8114612be257600080fd5b50565b600081359050612bf481612bce565b92915050565b600060208284031215612c1057612c0f612a4d565b5b6000612c1e84828501612be5565b91505092915050565b600073ffffffffffffffffffffffffffffffffffffffff82169050919050565b6000612c5282612c27565b9050919050565b612c6281612c47565b82525050565b6000602082019050612c7d6000830184612c59565b92915050565b612c8c81612c47565b8114612c9757600080fd5b50565b600081359050612ca981612c83565b92915050565b60008060408385031215612cc657612cc5612a4d565b5b6000612cd485828601612c9a565b9250506020612ce585828601612be5565b9150509250929050565b600081519050919050565b600082825260208201905092915050565b6000819050602082019050919050565b612d2481612bc4565b82525050565b6000612d3582612c27565b9050919050565b612d4581612d2a565b82525050565b612d5481612adc565b82525050565b60a082016000820151612d706000850182612d1b565b506020820151612d836020850182612d3c565b506040820151612d966040850182612d3c565b506060820151612da96060850182612d1b565b506080820151612dbc6080850182612d4b565b50505050565b6000612dce8383612d5a565b60a08301905092915050565b6000602082019050919050565b6000612df282612cef565b612dfc8185612cfa565b9350612e0783612d0b565b8060005b83811015612e38578151612e1f8882612dc2565b9750612e2a83612dda565b925050600181019050612e0b565b5085935050505092915050565b60006020820190508181036000830152612e5f8184612de7565b905092915050565b612e7081612bc4565b82525050565b6000602082019050612e8b6000830184612e67565b92915050565b600080600060608486031215612eaa57612ea9612a4d565b5b6000612eb886828701612c9a565b9350506020612ec986828701612c9a565b9250506040612eda86828701612be5565b9150509250925092565b600060208284031215612efa57612ef9612a4d565b5b6000612f0884828501612c9a565b91505092915050565b600080fd5b600080fd5b7f4e487b7100000000000000000000000000000000000000000000000000000000600052604160045260246000fd5b612f5382612b58565b810181811067ffffffffffffffff82111715612f7257612f71612f1b565b5b80604052505050565b6000612f85612a43565b9050612f918282612f4a565b919050565b600067ffffffffffffffff821115612fb157612fb0612f1b565b5b612fba82612b58565b9050602081019050919050565b82818337600083830152505050565b6000612fe9612fe484612f96565b612f7b565b90508281526020810184848401111561300557613004612f16565b5b613010848285612fc7565b509392505050565b600082601f83011261302d5761302c612f11565b5b813561303d848260208601612fd6565b91505092915050565b6000806040838503121561305d5761305c612a4d565b5b600083013567ffffffffffffffff81111561307b5761307a612a52565b5b61308785828601613018565b925050602061309885828601612be5565b9150509250929050565b600080604083850312156130b9576130b8612a4d565b5b60006130c785828601612be5565b92505060206130d885828601612be5565b9150509250929050565b6130eb81612adc565b81146130f657600080fd5b50565b600081359050613108816130e2565b92915050565b6000806040838503121561312557613124612a4d565b5b600061313385828601612c9a565b9250506020613144858286016130f9565b9150509250929050565b600067ffffffffffffffff82111561316957613168612f1b565b5b61317282612b58565b9050602081019050919050565b600061319261318d8461314e565b612f7b565b9050828152602081018484840111156131ae576131ad612f16565b5b6131b9848285612fc7565b509392505050565b600082601f8301126131d6576131d5612f11565b5b81356131e684826020860161317f565b91505092915050565b6000806000806080858703121561320957613208612a4d565b5b600061321787828801612c9a565b945050602061322887828801612c9a565b935050604061323987828801612be5565b925050606085013567ffffffffffffffff81111561325a57613259612a52565b5b613266878288016131c1565b91505092959194509250565b6000806040838503121561328957613288612a4d565b5b600061329785828601612c9a565b92505060206132a885828601612c9a565b9150509250929050565b7f4e487b7100000000000000000000000000000000000000000000000000000000600052602260045260246000fd5b600060028204905060018216806132f957607f821691505b60208210810361330c5761330b6132b2565b5b50919050565b7f4e487b7100000000000000000000000000000000000000000000000000000000600052601160045260246000fd5b600061334c82612bc4565b915061335783612bc4565b925082820390508181111561336f5761336e613312565b5b92915050565b600061338082612bc4565b915061338b83612bc4565b92508282019050808211156133a3576133a2613312565b5b92915050565b7f4e487b7100000000000000000000000000000000000000000000000000000000600052603260045260246000fd5b60006060820190506133ed6000830186612c59565b6133fa6020830185612e67565b6134076040830184612c59565b949350505050565b7f4f6e6c79206974656d206f776e65722063616e20706572666f726d207468697360008201527f206f7065726174696f6e00000000000000000000000000000000000000000000602082015250565b600061346b602a83612b1d565b91506134768261340f565b604082019050919050565b6000602082019050818103600083015261349a8161345e565b9050919050565b7f5072696365206d75737420626520657175616c20746f206c697374696e67207060008201527f7269636500000000000000000000000000000000000000000000000000000000602082015250565b60006134fd602483612b1d565b9150613508826134a1565b604082019050919050565b6000602082019050818103600083015261352c816134f0565b9050919050565b7f4f6e6c79206f776e65722063616e2063616c6c20746869732066756e6374696f60008201527f6e2e000000000000000000000000000000000000000000000000000000000000602082015250565b600061358f602283612b1d565b915061359a82613533565b604082019050919050565b600060208201905081810360008301526135be81613582565b9050919050565b7f506c65617365207375626d6974207468652061736b696e67207072696365206960008201527f6e206f7264657220746f20636f6d706c65746520746865207075726368617365602082015250565b6000613621604083612b1d565b915061362c826135c5565b604082019050919050565b6000602082019050818103600083015261365081613614565b9050919050565b600081905092915050565b600061366d82612b12565b6136778185613657565b9350613687818560208601612b2e565b80840191505092915050565b600061369f8285613662565b91506136ab8284613662565b91508190509392505050565b60008190508160005260206000209050919050565b60006020601f8301049050919050565b600082821b905092915050565b6000600883026137197fffffffffffffffffffffffffffffffffffffffffffffffffffffffffffffffff826136dc565b61372386836136dc565b95508019841693508086168417925050509392505050565b6000819050919050565b600061376061375b61375684612bc4565b61373b565b612bc4565b9050919050565b6000819050919050565b61377a83613745565b61378e61378682613767565b8484546136e9565b825550505050565b600090565b6137a3613796565b6137ae818484613771565b505050565b5b818110156137d2576137c760008261379b565b6001810190506137b4565b5050565b601f821115613817576137e8816136b7565b6137f1846136cc565b81016020851015613800578190505b61381461380c856136cc565b8301826137b3565b50505b505050565b600082821c905092915050565b600061383a6000198460080261381c565b1980831691505092915050565b60006138538383613829565b9150826002028217905092915050565b61386c82612b12565b67ffffffffffffffff81111561388557613884612f1b565b5b61388f82546132e1565b61389a8282856137d6565b600060209050601f8311600181146138cd57600084156138bb578287015190505b6138c58582613847565b86555061392d565b601f1984166138db866136b7565b60005b82811015613903578489015182556001820191506020850194506020810190506138de565b86831015613920578489015161391c601f891682613829565b8355505b6001600288020188555050505b505050505050565b7f5072696365206d757374206265206174206c6561737420312077656900000000600082015250565b600061396b601c83612b1d565b915061397682613935565b602082019050919050565b6000602082019050818103600083015261399a8161395e565b9050919050565b60006080820190506139b66000830187612c59565b6139c36020830186612c59565b6139d06040830185612e67565b6139dd6060830184612ae8565b95945050505050565b600081519050919050565b600082825260208201905092915050565b6000613a0d826139e6565b613a1781856139f1565b9350613a27818560208601612b2e565b613a3081612b58565b840191505092915050565b6000608082019050613a506000830187612c59565b613a5d6020830186612c59565b613a6a6040830185612e67565b8181036060830152613a7c8184613a02565b905095945050505050565b600081519050613a9681612a83565b92915050565b600060208284031215613ab257613ab1612a4d565b5b6000613ac084828501613a87565b91505092915050565b6000604082019050613ade6000830185612c59565b613aeb6020830184612e67565b9392505050565b7f4e487b7100000000000000000000000000000000000000000000000000000000600052601260045260246000fdfea26469706673582212209b7821dadee2d7089c26d0eaee137ff071f5bb9d4dcc353f5a5aafcd2915dfab64736f6c634300081c0033",
  "linkReferences": {},
  "deployedLinkReferences": {}
}