{
  "_format": "hh-sol-artifact-1",
  "contractName": "NFTMarketplace",
  "sourceName": "contracts/NFTMarketplace.sol",
  "abi": [
    {
      "inputs": [],
      "stateMutability": "nonpayable",
      "type": "constructor"
    },
    {
      "inputs": [
        {
          "internalType": "address",
          "name": "sender",
          "type": "address"
        },
        {
          "internalType": "uint256",
          "name": "tokenId",
          "type": "uint256"
        },
        {
          "internalType": "address",
          "name": "owner",
          "type": "address"
        }
      ],
      "name": "ERC721IncorrectOwner",
      "type": "error"
    },
    {
      "inputs": [
        {
          "internalType": "address",
          "name": "operator",
          "type": "address"
        },
        {
          "internalType": "uint256",
          "name": "tokenId",
          "type": "uint256"
        }
      ],
      "name": "ERC721InsufficientApproval",
      "type": "error"
    },
    {
      "inputs": [
        {
          "internalType": "address",
          "name": "approver",
          "type": "address"
        }
      ],
      "name": "ERC721InvalidApprover",
      "type": "error"
    },
    {
      "inputs": [
        {
          "internalType": "address",
          "name": "operator",
          "type": "address"
        }
      ],
      "name": "ERC721InvalidOperator",
      "type": "error"
    },
    {
      "inputs": [
        {
          "internalType": "address",
          "name": "owner",
          "type": "address"
        }
      ],
      "name": "ERC721InvalidOwner",
      "type": "error"
    },
    {
      "inputs": [
        {
          "internalType": "address",
          "name": "receiver",
          "type": "address"
        }
      ],
      "name": "ERC721InvalidReceiver",
      "type": "error"
    },
    {
      "inputs": [
        {
          "internalType": "address",
          "name": "sender",
          "type": "address"
        }
      ],
      "name": "ERC721InvalidSender",
      "type": "error"
    },
    {
      "inputs": [
        {
          "internalType": "uint256",
          "name": "tokenId",
          "type": "uint256"
        }
      ],
      "name": "ERC721NonexistentToken",
      "type": "error"
    },
    {
      "anonymous": false,
      "inputs": [
        {
          "indexed": true,
          "internalType": "address",
          "name": "owner",
          "type": "address"
        },
        {
          "indexed": true,
          "internalType": "address",
          "name": "approved",
          "type": "address"
        },
        {
          "indexed": true,
          "internalType": "uint256",
          "name": "tokenId",
          "type": "uint256"
        }
      ],
      "name": "Approval",
      "type": "event"
    },
    {
      "anonymous": false,
      "inputs": [
        {
          "indexed": true,
          "internalType": "address",
          "name": "owner",
          "type": "address"
        },
        {
          "indexed": true,
          "internalType": "address",
          "name": "operator",
          "type": "address"
        },
        {
          "indexed": false,
          "internalType": "bool",
          "name": "approved",
          "type": "bool"
        }
      ],
      "name": "ApprovalForAll",
      "type": "event"
    },
    {
      "anonymous": false,
      "inputs": [
        {
          "indexed": false,
          "internalType": "uint256",
          "name": "_fromTokenId",
          "type": "uint256"
        },
        {
          "indexed": false,
          "internalType": "uint256",
          "name": "_toTokenId",
          "type": "uint256"
        }
      ],
      "name": "BatchMetadataUpdate",
      "type": "event"
    },
    {
      "anonymous": false,
      "inputs": [
        {
          "indexed": true,
          "internalType": "uint256",
          "name": "tokenId",
          "type": "uint256"
        },
        {
          "indexed": false,
          "internalType": "address",
          "name": "seller",
          "type": "address"
        },
        {
          "indexed": false,
          "internalType": "address",
          "name": "owner",
          "type": "address"
        },
        {
          "indexed": false,
          "internalType": "uint256",
          "name": "price",
          "type": "uint256"
        },
        {
          "indexed": false,
          "internalType": "bool",
          "name": "sold",
          "type": "bool"
        }
      ],
      "name": "MarketItemCreated",
      "type": "event"
    },
    {
      "anonymous": false,
      "inputs": [
        {
          "indexed": false,
          "internalType": "uint256",
          "name": "_tokenId",
          "type": "uint256"
        }
      ],
      "name": "MetadataUpdate",
      "type": "event"
    },
    {
      "anonymous": false,
      "inputs": [
        {
          "indexed": true,
          "internalType": "address",
          "name": "from",
          "type": "address"
        },
        {
          "indexed": true,
          "internalType": "address",
          "name": "to",
          "type": "address"
        },
        {
          "indexed": true,
          "internalType": "uint256",
          "name": "tokenId",
          "type": "uint256"
        }
      ],
      "name": "Transfer",
      "type": "event"
    },
    {
      "inputs": [
        {
          "internalType": "address",
          "name": "to",
          "type": "address"
        },
        {
          "internalType": "uint256",
          "name": "tokenId",
          "type": "uint256"
        }
      ],
      "name": "approve",
      "outputs": [],
      "stateMutability": "nonpayable",
      "type": "function"
    },
    {
      "inputs": [
        {
          "internalType": "address",
          "name": "owner",
          "type": "address"
        }
      ],
      "name": "balanceOf",
      "outputs": [
        {
          "internalType": "uint256",
          "name": "",
          "type": "uint256"
        }
      ],
      "stateMutability": "view",
      "type": "function"
    },
    {
      "inputs": [
        {
          "internalType": "uint256",
          "name": "tokenId",
          "type": "uint256"
        }
      ],
      "name": "createMarketSale",
      "outputs": [],
      "stateMutability": "payable",
      "type": "function"
    },
    {
      "inputs": [
        {
          "internalType": "string",
          "name": "tokenURI",
          "type": "string"
        },
        {
          "internalType": "uint256",
          "name": "price",
          "type": "uint256"
        }
      ],
      "name": "createToken",
      "outputs": [
        {
          "internalType": "uint256",
          "name": "",
          "type": "uint256"
        }
      ],
      "stateMutability": "payable",
      "type": "function"
    },
    {
      "inputs": [],
      "name": "fetchItemsListed",
      "outputs": [
        {
          "components": [
            {
              "internalType": "uint256",
              "name": "tokenId",
              "type": "uint256"
            },
            {
              "internalType": "address payable",
              "name": "seller",
              "type": "address"
            },
            {
              "internalType": "address payable",
              "name": "owner",
              "type": "address"
            },
            {
              "internalType": "uint256",
              "name": "price",
              "type": "uint256"
            },
            {
              "internalType": "bool",
              "name": "sold",
              "type": "bool"
            }
          ],
          "internalType": "struct NFTMarketplace.MarketItem[]",
          "name": "",
          "type": "tuple[]"
        }
      ],
      "stateMutability": "view",
      "type": "function"
    },
    {
      "inputs": [],
      "name": "fetchMarketItems",
      "outputs": [
        {
          "components": [
            {
              "internalType": "uint256",
              "name": "tokenId",
              "type": "uint256"
            },
            {
              "internalType": "address payable",
              "name": "seller",
              "type": "address"
            },
            {
              "internalType": "address payable",
              "name": "owner",
              "type": "address"
            },
            {
              "internalType": "uint256",
              "name": "price",
              "type": "uint256"
            },
            {
              "internalType": "bool",
              "name": "sold",
              "type": "bool"
            }
          ],
          "internalType": "struct NFTMarketplace.MarketItem[]",
          "name": "",
          "type": "tuple[]"
        }
      ],
      "stateMutability": "view",
      "type": "function"
    },
    {
      "inputs": [],
      "name": "fetchMyNFTs",
      "outputs": [
        {
          "components": [
            {
              "internalType": "uint256",
              "name": "tokenId",
              "type": "uint256"
            },
            {
              "internalType": "address payable",
              "name": "seller",
              "type": "address"
            },
            {
              "internalType": "address payable",
              "name": "owner",
              "type": "address"
            },
            {
              "internalType": "uint256",
              "name": "price",
              "type": "uint256"
            },
            {
              "internalType": "bool",
              "name": "sold",
              "type": "bool"
            }
          ],
          "internalType": "struct NFTMarketplace.MarketItem[]",
          "name": "",
          "type": "tuple[]"
        }
      ],
      "stateMutability": "view",
      "type": "function"
    },
    {
      "inputs": [
        {
          "internalType": "uint256",
          "name": "tokenId",
          "type": "uint256"
        }
      ],
      "name": "getApproved",
      "outputs": [
        {
          "internalType": "address",
          "name": "",
          "type": "address"
        }
      ],
      "stateMutability": "view",
      "type": "function"
    },
    {
      "inputs": [],
      "name": "getListingPrice",
      "outputs": [
        {
          "internalType": "uint256",
          "name": "",
          "type": "uint256"
        }
      ],
      "stateMutability": "view",
      "type": "function"
    },
    {
      "inputs": [
        {
          "internalType": "address",
          "name": "owner",
          "type": "address"
        },
        {
          "internalType": "address",
          "name": "operator",
          "type": "address"
        }
      ],
      "name": "isApprovedForAll",
      "outputs": [
        {
          "internalType": "bool",
          "name": "",
          "type": "bool"
        }
      ],
      "stateMutability": "view",
      "type": "function"
    },
    {
      "inputs": [],
      "name": "name",
      "outputs": [
        {
          "internalType": "string",
          "name": "",
          "type": "string"
        }
      ],
      "stateMutability": "view",
      "type": "function"
    },
    {
      "inputs": [
        {
          "internalType": "uint256",
          "name": "tokenId",
          "type": "uint256"
        }
      ],
      "name": "ownerOf",
      "outputs": [
        {
          "internalType": "address",
          "name": "",
          "type": "address"
        }
      ],
      "stateMutability": "view",
      "type": "function"
    },
    {
      "inputs": [
        {
          "internalType": "uint256",
          "name": "tokenId",
          "type": "uint256"
        },
        {
          "internalType": "uint256",
          "name": "price",
          "type": "uint256"
        }
      ],
      "name": "reSellToken",
      "outputs": [],
      "stateMutability": "payable",
      "type": "function"
    },
    {
      "inputs": [
        {
          "internalType": "address",
          "name": "from",
          "type": "address"
        },
        {
          "internalType": "address",
          "name": "to",
          "type": "address"
        },
        {
          "internalType": "uint256",
          "name": "tokenId",
          "type": "uint256"
        }
      ],
      "name": "safeTransferFrom",
      "outputs": [],
      "stateMutability": "nonpayable",
      "type": "function"
    },
    {
      "inputs": [
        {
          "internalType": "address",
          "name": "from",
          "type": "address"
        },
        {
          "internalType": "address",
          "name": "to",
          "type": "address"
        },
        {
          "internalType": "uint256",
          "name": "tokenId",
          "type": "uint256"
        },
        {
          "internalType": "bytes",
          "name": "data",
          "type": "bytes"
        }
      ],
      "name": "safeTransferFrom",
      "outputs": [],
      "stateMutability": "nonpayable",
      "type": "function"
    },
    {
      "inputs": [
        {
          "internalType": "address",
          "name": "operator",
          "type": "address"
        },
        {
          "internalType": "bool",
          "name": "approved",
          "type": "bool"
        }
      ],
      "name": "setApprovalForAll",
      "outputs": [],
      "stateMutability": "nonpayable",
      "type": "function"
    },
    {
      "inputs": [
        {
          "internalType": "bytes4",
          "name": "interfaceId",
          "type": "bytes4"
        }
      ],
      "name": "supportsInterface",
      "outputs": [
        {
          "internalType": "bool",
          "name": "",
          "type": "bool"
        }
      ],
      "stateMutability": "view",
      "type": "function"
    },
    {
      "inputs": [],
      "name": "symbol",
      "outputs": [
        {
          "internalType": "string",
          "name": "",
          "type": "string"
        }
      ],
      "stateMutability": "view",
      "type": "function"
    },
    {
      "inputs": [
        {
          "internalType": "uint256",
          "name": "tokenId",
          "type": "uint256"
        }
      ],
      "name": "tokenURI",
      "outputs": [
        {
          "internalType": "string",
          "name": "",
          "type": "string"
        }
      ],
      "stateMutability": "view",
      "type": "function"
    },
    {
      "inputs": [
        {
          "internalType": "address",
          "name": "from",
          "type": "address"
        },
        {
          "internalType": "address",
          "name": "to",
          "type": "address"
        },
        {
          "internalType": "uint256",
          "name": "tokenId",
          "type": "uint256"
        }
      ],
      "name": "transferFrom",
      "outputs": [],
      "stateMutability": "nonpayable",
      "type": "function"
    },
    {
      "inputs": [
        {
          "internalType": "uint256",
          "name": "_listingPrice",
          "type": "uint256"
        }
      ],
      "name": "updateListingPrice",
      "outputs": [],
      "stateMutability": "payable",
      "type": "function"
    }
  ],
  "bytecode": "0x60806040526605543df729c00060095534801561001b57600080fd5b506040518060400160405280600f81526020017f4e4654204d61726b6574706c61636500000000000000000000000000000000008152506040518060400160405280600481526020017f4e46544d0000000000000000000000000000000000000000000000000000000081525081600090816100979190610325565b5080600190816100a79190610325565b5050503373ffffffffffffffffffffffffffffffffffffffff16600a60009054906101000a905050506103f7565b600081519050919050565b7f4e487b7100000000000000000000000000000000000000000000000000000000600052604160045260246000fd5b7f4e487b7100000000000000000000000000000000000000000000000000000000600052602260045260246000fd5b6000600282049050600182168061015657607f821691505b6020821081036101695761016861010f565b5b50919050565b60008190508160005260206000209050919050565b60006020601f8301049050919050565b600082821b905092915050565b6000600883026101d17fffffffffffffffffffffffffffffffffffffffffffffffffffffffffffffffff82610194565b6101db8683610194565b95508019841693508086168417925050509392505050565b6000819050919050565b6000819050919050565b600061022261021d610218846101f3565b6101fd565b6101f3565b9050919050565b6000819050919050565b61023c83610207565b61025061024882610229565b8484546101a1565b825550505050565b600090565b610265610258565b610270818484610233565b505050565b5b818110156102945761028960008261025d565b600181019050610276565b5050565b601f8211156102d9576102aa8161016f565b6102b384610184565b810160208510156102c2578190505b6102d66102ce85610184565b830182610275565b50505b505050565b600082821c905092915050565b60006102fc600019846008026102de565b1980831691505092915050565b600061031583836102eb565b9150826002028217905092915050565b61032e826100d5565b67ffffffffffffffff811115610347576103466100e0565b5b610351825461013e565b61035c828285610298565b600060209050601f83116001811461038f576000841561037d578287015190505b6103878582610309565b8655506103ef565b601f19841661039d8661016f565b60005b828110156103c5578489015182556001820191506020850194506020810190506103a0565b868310156103e257848901516103de601f8916826102eb565b8355505b6001600288020188555050505b505050505050565b613a86806104066000396000f3fe60806040526004361061012a5760003560e01c80636352211e116100ab578063a22cb4651161006f578063a22cb465146103ec578063ae677aa314610415578063b88d4fde14610431578063be9af5361461045a578063c87b56dd14610476578063e985e9c5146104b35761012a565b80636352211e146102fb57806370a082311461033857806372b3b6201461037557806385535b25146103a557806395d89b41146103c15761012a565b806312e85585116100f257806312e8558514610228578063202e37401461025357806323b872dd1461027e57806342842e0e146102a757806345f8fa80146102d05761012a565b806301ffc9a71461012f57806306fdde031461016c578063081812fc14610197578063095ea7b3146101d45780630f08efe0146101fd575b600080fd5b34801561013b57600080fd5b5061015660048036038101906101519190612a70565b6104f0565b6040516101639190612ab8565b60405180910390f35b34801561017857600080fd5b50610181610551565b60405161018e9190612b63565b60405180910390f35b3480156101a357600080fd5b506101be60048036038101906101b99190612bbb565b6105e3565b6040516101cb9190612c29565b60405180910390f35b3480156101e057600080fd5b506101fb60048036038101906101f69190612c70565b6105ff565b005b34801561020957600080fd5b50610212610615565b60405161021f9190612e06565b60405180910390f35b34801561023457600080fd5b5061023d610862565b60405161024a9190612e37565b60405180910390f35b34801561025f57600080fd5b5061026861086c565b6040516102759190612e06565b60405180910390f35b34801561028a57600080fd5b506102a560048036038101906102a09190612e52565b610b45565b005b3480156102b357600080fd5b506102ce60048036038101906102c99190612e52565b610c47565b005b3480156102dc57600080fd5b506102e5610c67565b6040516102f29190612e06565b60405180910390f35b34801561030757600080fd5b50610322600480360381019061031d9190612bbb565b610f40565b60405161032f9190612c29565b60405180910390f35b34801561034457600080fd5b5061035f600480360381019061035a9190612ea5565b610f52565b60405161036c9190612e37565b60405180910390f35b61038f600480360381019061038a9190613007565b61100c565b60405161039c9190612e37565b60405180910390f35b6103bf60048036038101906103ba9190613063565b611052565b005b3480156103cd57600080fd5b506103d6611252565b6040516103e39190612b63565b60405180910390f35b3480156103f857600080fd5b50610413600480360381019061040e91906130cf565b6112e4565b005b61042f600480360381019061042a9190612bbb565b6112fa565b005b34801561043d57600080fd5b50610458600480360381019061045391906131b0565b611304565b005b610474600480360381019061046f9190612bbb565b611329565b005b34801561048257600080fd5b5061049d60048036038101906104989190612bbb565b61156c565b6040516104aa9190612b63565b60405180910390f35b3480156104bf57600080fd5b506104da60048036038101906104d59190613233565b61167f565b6040516104e79190612ab8565b60405180910390f35b6000634906490660e01b7bffffffffffffffffffffffffffffffffffffffffffffffffffffffff1916827bffffffffffffffffffffffffffffffffffffffffffffffffffffffff1916148061054a575061054982611713565b5b9050919050565b606060008054610560906132a2565b80601f016020809104026020016040519081016040528092919081815260200182805461058c906132a2565b80156105d95780601f106105ae576101008083540402835291602001916105d9565b820191906000526020600020905b8154815290600101906020018083116105bc57829003601f168201915b5050505050905090565b60006105ee826117f5565b506105f88261187d565b9050919050565b610611828261060c6118ba565b6118c2565b5050565b60606000600754905060006008546007546106309190613302565b90506000808267ffffffffffffffff81111561064f5761064e612edc565b5b60405190808252806020026020018201604052801561068857816020015b6106756129a7565b81526020019060019003908161066d5790505b50905060005b84811015610857573073ffffffffffffffffffffffffffffffffffffffff16600b60006001846106be9190613336565b815260200190815260200160002060020160009054906101000a900473ffffffffffffffffffffffffffffffffffffffff1673ffffffffffffffffffffffffffffffffffffffff160361084a57600060018261071a9190613336565b90506000600b60008381526020019081526020016000209050806040518060a0016040529081600082015481526020016001820160009054906101000a900473ffffffffffffffffffffffffffffffffffffffff1673ffffffffffffffffffffffffffffffffffffffff1673ffffffffffffffffffffffffffffffffffffffff1681526020016002820160009054906101000a900473ffffffffffffffffffffffffffffffffffffffff1673ffffffffffffffffffffffffffffffffffffffff1673ffffffffffffffffffffffffffffffffffffffff168152602001600382015481526020016004820160009054906101000a900460ff16151515158152505084868151811061082d5761082c61336a565b5b60200260200101819052506001856108459190613336565b945050505b808060010191505061068e565b508094505050505090565b6000600954905090565b60606000600754905060008060005b83811015610915573373ffffffffffffffffffffffffffffffffffffffff16600b60006001846108ab9190613336565b815260200190815260200160002060020160009054906101000a900473ffffffffffffffffffffffffffffffffffffffff1673ffffffffffffffffffffffffffffffffffffffff1603610908576001836109059190613336565b92505b808060010191505061087b565b5060008267ffffffffffffffff81111561093257610931612edc565b5b60405190808252806020026020018201604052801561096b57816020015b6109586129a7565b8152602001906001900390816109505790505b50905060005b84811015610b3a573373ffffffffffffffffffffffffffffffffffffffff16600b60006001846109a19190613336565b815260200190815260200160002060020160009054906101000a900473ffffffffffffffffffffffffffffffffffffffff1673ffffffffffffffffffffffffffffffffffffffff1603610b2d5760006001826109fd9190613336565b90506000600b60008381526020019081526020016000209050806040518060a0016040529081600082015481526020016001820160009054906101000a900473ffffffffffffffffffffffffffffffffffffffff1673ffffffffffffffffffffffffffffffffffffffff1673ffffffffffffffffffffffffffffffffffffffff1681526020016002820160009054906101000a900473ffffffffffffffffffffffffffffffffffffffff1673ffffffffffffffffffffffffffffffffffffffff1673ffffffffffffffffffffffffffffffffffffffff168152602001600382015481526020016004820160009054906101000a900460ff161515151581525050848681518110610b1057610b0f61336a565b5b6020026020010181905250600185610b289190613336565b945050505b8080600101915050610971565b508094505050505090565b600073ffffffffffffffffffffffffffffffffffffffff168273ffffffffffffffffffffffffffffffffffffffff1603610bb75760006040517f64a0ae92000000000000000000000000000000000000000000000000000000008152600401610bae9190612c29565b60405180910390fd5b6000610bcb8383610bc66118ba565b6118d4565b90508373ffffffffffffffffffffffffffffffffffffffff168173ffffffffffffffffffffffffffffffffffffffff1614610c41578382826040517f64283d7b000000000000000000000000000000000000000000000000000000008152600401610c3893929190613399565b60405180910390fd5b50505050565b610c6283838360405180602001604052806000815250611304565b505050565b60606000600754905060008060005b83811015610d10573373ffffffffffffffffffffffffffffffffffffffff16600b6000600184610ca69190613336565b815260200190815260200160002060010160009054906101000a900473ffffffffffffffffffffffffffffffffffffffff1673ffffffffffffffffffffffffffffffffffffffff1603610d0357600183610d009190613336565b92505b8080600101915050610c76565b5060008267ffffffffffffffff811115610d2d57610d2c612edc565b5b604051908082528060200260200182016040528015610d6657816020015b610d536129a7565b815260200190600190039081610d4b5790505b50905060005b84811015610f35573373ffffffffffffffffffffffffffffffffffffffff16600b6000600184610d9c9190613336565b815260200190815260200160002060010160009054906101000a900473ffffffffffffffffffffffffffffffffffffffff1673ffffffffffffffffffffffffffffffffffffffff1603610f28576000600182610df89190613336565b90506000600b60008381526020019081526020016000209050806040518060a0016040529081600082015481526020016001820160009054906101000a900473ffffffffffffffffffffffffffffffffffffffff1673ffffffffffffffffffffffffffffffffffffffff1673ffffffffffffffffffffffffffffffffffffffff1681526020016002820160009054906101000a900473ffffffffffffffffffffffffffffffffffffffff1673ffffffffffffffffffffffffffffffffffffffff1673ffffffffffffffffffffffffffffffffffffffff168152602001600382015481526020016004820160009054906101000a900460ff161515151581525050848681518110610f0b57610f0a61336a565b5b6020026020010181905250600185610f239190613336565b945050505b8080600101915050610d6c565b508094505050505090565b6000610f4b826117f5565b9050919050565b60008073ffffffffffffffffffffffffffffffffffffffff168273ffffffffffffffffffffffffffffffffffffffff1603610fc55760006040517f89c62b64000000000000000000000000000000000000000000000000000000008152600401610fbc9190612c29565b60405180910390fd5b600360008373ffffffffffffffffffffffffffffffffffffffff1673ffffffffffffffffffffffffffffffffffffffff168152602001908152602001600020549050919050565b6000600160075461101d9190613336565b600781905550600060075490506110343382611aee565b61103e8185611b0c565b6110488184611b68565b8091505092915050565b3373ffffffffffffffffffffffffffffffffffffffff16600b600084815260200190815260200160002060020160009054906101000a900473ffffffffffffffffffffffffffffffffffffffff1673ffffffffffffffffffffffffffffffffffffffff16146110f6576040517f08c379a00000000000000000000000000000000000000000000000000000000081526004016110ed90613442565b60405180910390fd5b600954341461113a576040517f08c379a0000000000000000000000000000000000000000000000000000000008152600401611131906134d4565b60405180910390fd5b33600b600084815260200190815260200160002060010160006101000a81548173ffffffffffffffffffffffffffffffffffffffff021916908373ffffffffffffffffffffffffffffffffffffffff16021790555030600b600084815260200190815260200160002060020160006101000a81548173ffffffffffffffffffffffffffffffffffffffff021916908373ffffffffffffffffffffffffffffffffffffffff16021790555080600b6000848152602001908152602001600020600301819055506000600b600084815260200190815260200160002060040160006101000a81548160ff021916908315150217905550600160085461123d9190613336565b60088190555061124e333084611d6b565b5050565b606060018054611261906132a2565b80601f016020809104026020016040519081016040528092919081815260200182805461128d906132a2565b80156112da5780601f106112af576101008083540402835291602001916112da565b820191906000526020600020905b8154815290600101906020018083116112bd57829003601f168201915b5050505050905090565b6112f66112ef6118ba565b8383611ed8565b5050565b8060098190555050565b61130f848484610b45565b61132361131a6118ba565b85858585612047565b50505050565b6000600b6000838152602001908152602001600020600301549050803414611386576040517f08c379a000000000000000000000000000000000000000000000000000000000815260040161137d90613566565b60405180910390fd5b33600b600084815260200190815260200160002060020160006101000a81548173ffffffffffffffffffffffffffffffffffffffff021916908373ffffffffffffffffffffffffffffffffffffffff1602179055506001600b600084815260200190815260200160002060040160006101000a81548160ff0219169083151502179055506000600b600084815260200190815260200160002060020160006101000a81548173ffffffffffffffffffffffffffffffffffffffff021916908373ffffffffffffffffffffffffffffffffffffffff160217905550600160085461146f9190613336565b600881905550611480303384611d6b565b600a60009054906101000a900473ffffffffffffffffffffffffffffffffffffffff1673ffffffffffffffffffffffffffffffffffffffff166108fc6009549081150290604051600060405180830381858888f193505050501580156114ea573d6000803e3d6000fd5b50600b600083815260200190815260200160002060010160009054906101000a900473ffffffffffffffffffffffffffffffffffffffff1673ffffffffffffffffffffffffffffffffffffffff166108fc349081150290604051600060405180830381858888f19350505050158015611567573d6000803e3d6000fd5b505050565b6060611577826117f5565b506000600660008481526020019081526020016000208054611598906132a2565b80601f01602080910402602001604051908101604052809291908181526020018280546115c4906132a2565b80156116115780601f106115e657610100808354040283529160200191611611565b820191906000526020600020905b8154815290600101906020018083116115f457829003601f168201915b5050505050905060006116226121f8565b9050600081510361163757819250505061167a565b60008251111561166c5780826040516020016116549291906135c2565b6040516020818303038152906040529250505061167a565b6116758461220f565b925050505b919050565b6000600560008473ffffffffffffffffffffffffffffffffffffffff1673ffffffffffffffffffffffffffffffffffffffff16815260200190815260200160002060008373ffffffffffffffffffffffffffffffffffffffff1673ffffffffffffffffffffffffffffffffffffffff16815260200190815260200160002060009054906101000a900460ff16905092915050565b60007f80ac58cd000000000000000000000000000000000000000000000000000000007bffffffffffffffffffffffffffffffffffffffffffffffffffffffff1916827bffffffffffffffffffffffffffffffffffffffffffffffffffffffff191614806117de57507f5b5e139f000000000000000000000000000000000000000000000000000000007bffffffffffffffffffffffffffffffffffffffffffffffffffffffff1916827bffffffffffffffffffffffffffffffffffffffffffffffffffffffff1916145b806117ee57506117ed82612278565b5b9050919050565b600080611801836122e2565b9050600073ffffffffffffffffffffffffffffffffffffffff168173ffffffffffffffffffffffffffffffffffffffff160361187457826040517f7e27328900000000000000000000000000000000000000000000000000000000815260040161186b9190612e37565b60405180910390fd5b80915050919050565b60006004600083815260200190815260200160002060009054906101000a900473ffffffffffffffffffffffffffffffffffffffff169050919050565b600033905090565b6118cf838383600161231f565b505050565b6000806118e0846122e2565b9050600073ffffffffffffffffffffffffffffffffffffffff168373ffffffffffffffffffffffffffffffffffffffff1614611922576119218184866124e4565b5b600073ffffffffffffffffffffffffffffffffffffffff168173ffffffffffffffffffffffffffffffffffffffff16146119b35761196460008560008061231f565b6001600360008373ffffffffffffffffffffffffffffffffffffffff1673ffffffffffffffffffffffffffffffffffffffff168152602001908152602001600020600082825403925050819055505b600073ffffffffffffffffffffffffffffffffffffffff168573ffffffffffffffffffffffffffffffffffffffff1614611a36576001600360008773ffffffffffffffffffffffffffffffffffffffff1673ffffffffffffffffffffffffffffffffffffffff168152602001908152602001600020600082825401925050819055505b846002600086815260200190815260200160002060006101000a81548173ffffffffffffffffffffffffffffffffffffffff021916908373ffffffffffffffffffffffffffffffffffffffff160217905550838573ffffffffffffffffffffffffffffffffffffffff168273ffffffffffffffffffffffffffffffffffffffff167fddf252ad1be2c89b69c2b068fc378daa952ba7f163c4a11628f55a4df523b3ef60405160405180910390a4809150509392505050565b611b088282604051806020016040528060008152506125a8565b5050565b80600660008481526020019081526020016000209081611b2c9190613792565b507ff8e1a15aba9398e019f0b49df1a4fde98ee17ae345cb5f6b5e2c27f5033e8ce782604051611b5c9190612e37565b60405180910390a15050565b60008111611bab576040517f08c379a0000000000000000000000000000000000000000000000000000000008152600401611ba2906138b0565b60405180910390fd5b6009543414611bef576040517f08c379a0000000000000000000000000000000000000000000000000000000008152600401611be6906134d4565b60405180910390fd5b6040518060a001604052808381526020013373ffffffffffffffffffffffffffffffffffffffff1681526020013073ffffffffffffffffffffffffffffffffffffffff16815260200182815260200160001515815250600b60008481526020019081526020016000206000820151816000015560208201518160010160006101000a81548173ffffffffffffffffffffffffffffffffffffffff021916908373ffffffffffffffffffffffffffffffffffffffff16021790555060408201518160020160006101000a81548173ffffffffffffffffffffffffffffffffffffffff021916908373ffffffffffffffffffffffffffffffffffffffff1602179055506060820151816003015560808201518160040160006101000a81548160ff021916908315150217905550905050611d28333084611d6b565b817fb640004f1d14576d0c209e240cad0410e0d8c0c33a09375861fbadae2588a98d3330846000604051611d5f94939291906138d0565b60405180910390a25050565b600073ffffffffffffffffffffffffffffffffffffffff168273ffffffffffffffffffffffffffffffffffffffff1603611ddd5760006040517f64a0ae92000000000000000000000000000000000000000000000000000000008152600401611dd49190612c29565b60405180910390fd5b6000611deb838360006118d4565b9050600073ffffffffffffffffffffffffffffffffffffffff168173ffffffffffffffffffffffffffffffffffffffff1603611e5e57816040517f7e273289000000000000000000000000000000000000000000000000000000008152600401611e559190612e37565b60405180910390fd5b8373ffffffffffffffffffffffffffffffffffffffff168173ffffffffffffffffffffffffffffffffffffffff1614611ed2578382826040517f64283d7b000000000000000000000000000000000000000000000000000000008152600401611ec993929190613399565b60405180910390fd5b50505050565b600073ffffffffffffffffffffffffffffffffffffffff168273ffffffffffffffffffffffffffffffffffffffff1603611f4957816040517f5b08ba18000000000000000000000000000000000000000000000000000000008152600401611f409190612c29565b60405180910390fd5b80600560008573ffffffffffffffffffffffffffffffffffffffff1673ffffffffffffffffffffffffffffffffffffffff16815260200190815260200160002060008473ffffffffffffffffffffffffffffffffffffffff1673ffffffffffffffffffffffffffffffffffffffff16815260200190815260200160002060006101000a81548160ff0219169083151502179055508173ffffffffffffffffffffffffffffffffffffffff168373ffffffffffffffffffffffffffffffffffffffff167f17307eab39ab6107e8899845ad3d59bd9653f200f220920489ca2b5937696c318360405161203a9190612ab8565b60405180910390a3505050565b60008373ffffffffffffffffffffffffffffffffffffffff163b11156121f1578273ffffffffffffffffffffffffffffffffffffffff1663150b7a02868685856040518563ffffffff1660e01b81526004016120a6949392919061396a565b6020604051808303816000875af19250505080156120e257506040513d601f19601f820116820180604052508101906120df91906139cb565b60015b612166573d8060008114612112576040519150601f19603f3d011682016040523d82523d6000602084013e612117565b606091505b50600081510361215e57836040517f64a0ae920000000000000000000000000000000000000000000000000000000081526004016121559190612c29565b60405180910390fd5b805181602001fd5b63150b7a0260e01b7bffffffffffffffffffffffffffffffffffffffffffffffffffffffff1916817bffffffffffffffffffffffffffffffffffffffffffffffffffffffff1916146121ef57836040517f64a0ae920000000000000000000000000000000000000000000000000000000081526004016121e69190612c29565b60405180910390fd5b505b5050505050565b606060405180602001604052806000815250905090565b606061221a826117f5565b5060006122256121f8565b905060008151116122455760405180602001604052806000815250612270565b8061224f846125cc565b6040516020016122609291906135c2565b6040516020818303038152906040525b915050919050565b60007f01ffc9a7000000000000000000000000000000000000000000000000000000007bffffffffffffffffffffffffffffffffffffffffffffffffffffffff1916827bffffffffffffffffffffffffffffffffffffffffffffffffffffffff1916149050919050565b60006002600083815260200190815260200160002060009054906101000a900473ffffffffffffffffffffffffffffffffffffffff169050919050565b80806123585750600073ffffffffffffffffffffffffffffffffffffffff168273ffffffffffffffffffffffffffffffffffffffff1614155b1561248c576000612368846117f5565b9050600073ffffffffffffffffffffffffffffffffffffffff168373ffffffffffffffffffffffffffffffffffffffff16141580156123d357508273ffffffffffffffffffffffffffffffffffffffff168173ffffffffffffffffffffffffffffffffffffffff1614155b80156123e657506123e4818461167f565b155b1561242857826040517fa9fbf51f00000000000000000000000000000000000000000000000000000000815260040161241f9190612c29565b60405180910390fd5b811561248a57838573ffffffffffffffffffffffffffffffffffffffff168273ffffffffffffffffffffffffffffffffffffffff167f8c5be1e5ebec7d5bd14f71427d1e84f3dd0314c0f7b2291e5b200ac8c7c3b92560405160405180910390a45b505b836004600085815260200190815260200160002060006101000a81548173ffffffffffffffffffffffffffffffffffffffff021916908373ffffffffffffffffffffffffffffffffffffffff16021790555050505050565b6124ef83838361269a565b6125a357600073ffffffffffffffffffffffffffffffffffffffff168373ffffffffffffffffffffffffffffffffffffffff160361256457806040517f7e27328900000000000000000000000000000000000000000000000000000000815260040161255b9190612e37565b60405180910390fd5b81816040517f177e802f00000000000000000000000000000000000000000000000000000000815260040161259a9291906139f8565b60405180910390fd5b505050565b6125b2838361275b565b6125c76125bd6118ba565b6000858585612047565b505050565b6060600060016125db84612854565b01905060008167ffffffffffffffff8111156125fa576125f9612edc565b5b6040519080825280601f01601f19166020018201604052801561262c5781602001600182028036833780820191505090505b509050600082602001820190505b60011561268f578080600190039150507f3031323334353637383961626364656600000000000000000000000000000000600a86061a8153600a858161268357612682613a21565b5b0494506000850361263a575b819350505050919050565b60008073ffffffffffffffffffffffffffffffffffffffff168373ffffffffffffffffffffffffffffffffffffffff161415801561275257508273ffffffffffffffffffffffffffffffffffffffff168473ffffffffffffffffffffffffffffffffffffffff1614806127135750612712848461167f565b5b8061275157508273ffffffffffffffffffffffffffffffffffffffff166127398361187d565b73ffffffffffffffffffffffffffffffffffffffff16145b5b90509392505050565b600073ffffffffffffffffffffffffffffffffffffffff168273ffffffffffffffffffffffffffffffffffffffff16036127cd5760006040517f64a0ae920000000000000000000000000000000000000000000000000000000081526004016127c49190612c29565b60405180910390fd5b60006127db838360006118d4565b9050600073ffffffffffffffffffffffffffffffffffffffff168173ffffffffffffffffffffffffffffffffffffffff161461284f5760006040517f73c6ac6e0000000000000000000000000000000000000000000000000000000081526004016128469190612c29565b60405180910390fd5b505050565b600080600090507a184f03e93ff9f4daa797ed6e38ed64bf6a1f01000000000000000083106128b2577a184f03e93ff9f4daa797ed6e38ed64bf6a1f01000000000000000083816128a8576128a7613a21565b5b0492506040810190505b6d04ee2d6d415b85acef810000000083106128ef576d04ee2d6d415b85acef810000000083816128e5576128e4613a21565b5b0492506020810190505b662386f26fc10000831061291e57662386f26fc10000838161291457612913613a21565b5b0492506010810190505b6305f5e1008310612947576305f5e100838161293d5761293c613a21565b5b0492506008810190505b612710831061296c57612710838161296257612961613a21565b5b0492506004810190505b6064831061298f576064838161298557612984613a21565b5b0492506002810190505b600a831061299e576001810190505b80915050919050565b6040518060a0016040528060008152602001600073ffffffffffffffffffffffffffffffffffffffff168152602001600073ffffffffffffffffffffffffffffffffffffffff168152602001600081526020016000151581525090565b6000604051905090565b600080fd5b600080fd5b60007fffffffff0000000000000000000000000000000000000000000000000000000082169050919050565b612a4d81612a18565b8114612a5857600080fd5b50565b600081359050612a6a81612a44565b92915050565b600060208284031215612a8657612a85612a0e565b5b6000612a9484828501612a5b565b91505092915050565b60008115159050919050565b612ab281612a9d565b82525050565b6000602082019050612acd6000830184612aa9565b92915050565b600081519050919050565b600082825260208201905092915050565b60005b83811015612b0d578082015181840152602081019050612af2565b60008484015250505050565b6000601f19601f8301169050919050565b6000612b3582612ad3565b612b3f8185612ade565b9350612b4f818560208601612aef565b612b5881612b19565b840191505092915050565b60006020820190508181036000830152612b7d8184612b2a565b905092915050565b6000819050919050565b612b9881612b85565b8114612ba357600080fd5b50565b600081359050612bb581612b8f565b92915050565b600060208284031215612bd157612bd0612a0e565b5b6000612bdf84828501612ba6565b91505092915050565b600073ffffffffffffffffffffffffffffffffffffffff82169050919050565b6000612c1382612be8565b9050919050565b612c2381612c08565b82525050565b6000602082019050612c3e6000830184612c1a565b92915050565b612c4d81612c08565b8114612c5857600080fd5b50565b600081359050612c6a81612c44565b92915050565b60008060408385031215612c8757612c86612a0e565b5b6000612c9585828601612c5b565b9250506020612ca685828601612ba6565b9150509250929050565b600081519050919050565b600082825260208201905092915050565b6000819050602082019050919050565b612ce581612b85565b82525050565b6000612cf682612be8565b9050919050565b612d0681612ceb565b82525050565b612d1581612a9d565b82525050565b60a082016000820151612d316000850182612cdc565b506020820151612d446020850182612cfd565b506040820151612d576040850182612cfd565b506060820151612d6a6060850182612cdc565b506080820151612d7d6080850182612d0c565b50505050565b6000612d8f8383612d1b565b60a08301905092915050565b6000602082019050919050565b6000612db382612cb0565b612dbd8185612cbb565b9350612dc883612ccc565b8060005b83811015612df9578151612de08882612d83565b9750612deb83612d9b565b925050600181019050612dcc565b5085935050505092915050565b60006020820190508181036000830152612e208184612da8565b905092915050565b612e3181612b85565b82525050565b6000602082019050612e4c6000830184612e28565b92915050565b600080600060608486031215612e6b57612e6a612a0e565b5b6000612e7986828701612c5b565b9350506020612e8a86828701612c5b565b9250506040612e9b86828701612ba6565b9150509250925092565b600060208284031215612ebb57612eba612a0e565b5b6000612ec984828501612c5b565b91505092915050565b600080fd5b600080fd5b7f4e487b7100000000000000000000000000000000000000000000000000000000600052604160045260246000fd5b612f1482612b19565b810181811067ffffffffffffffff82111715612f3357612f32612edc565b5b80604052505050565b6000612f46612a04565b9050612f528282612f0b565b919050565b600067ffffffffffffffff821115612f7257612f71612edc565b5b612f7b82612b19565b9050602081019050919050565b82818337600083830152505050565b6000612faa612fa584612f57565b612f3c565b905082815260208101848484011115612fc657612fc5612ed7565b5b612fd1848285612f88565b509392505050565b600082601f830112612fee57612fed612ed2565b5b8135612ffe848260208601612f97565b91505092915050565b6000806040838503121561301e5761301d612a0e565b5b600083013567ffffffffffffffff81111561303c5761303b612a13565b5b61304885828601612fd9565b925050602061305985828601612ba6565b9150509250929050565b6000806040838503121561307a57613079612a0e565b5b600061308885828601612ba6565b925050602061309985828601612ba6565b9150509250929050565b6130ac81612a9d565b81146130b757600080fd5b50565b6000813590506130c9816130a3565b92915050565b600080604083850312156130e6576130e5612a0e565b5b60006130f485828601612c5b565b9250506020613105858286016130ba565b9150509250929050565b600067ffffffffffffffff82111561312a57613129612edc565b5b61313382612b19565b9050602081019050919050565b600061315361314e8461310f565b612f3c565b90508281526020810184848401111561316f5761316e612ed7565b5b61317a848285612f88565b509392505050565b600082601f83011261319757613196612ed2565b5b81356131a7848260208601613140565b91505092915050565b600080600080608085870312156131ca576131c9612a0e565b5b60006131d887828801612c5b565b94505060206131e987828801612c5b565b93505060406131fa87828801612ba6565b925050606085013567ffffffffffffffff81111561321b5761321a612a13565b5b61322787828801613182565b91505092959194509250565b6000806040838503121561324a57613249612a0e565b5b600061325885828601612c5b565b925050602061326985828601612c5b565b9150509250929050565b7f4e487b7100000000000000000000000000000000000000000000000000000000600052602260045260246000fd5b600060028204905060018216806132ba57607f821691505b6020821081036132cd576132cc613273565b5b50919050565b7f4e487b7100000000000000000000000000000000000000000000000000000000600052601160045260246000fd5b600061330d82612b85565b915061331883612b85565b92508282039050818111156133305761332f6132d3565b5b92915050565b600061334182612b85565b915061334c83612b85565b9250828201905080821115613364576133636132d3565b5b92915050565b7f4e487b7100000000000000000000000000000000000000000000000000000000600052603260045260246000fd5b60006060820190506133ae6000830186612c1a565b6133bb6020830185612e28565b6133c86040830184612c1a565b949350505050565b7f4f6e6c79206974656d206f776e65722063616e20706572666f726d207468697360008201527f206f7065726174696f6e00000000000000000000000000000000000000000000602082015250565b600061342c602a83612ade565b9150613437826133d0565b604082019050919050565b6000602082019050818103600083015261345b8161341f565b9050919050565b7f5072696365206d75737420626520657175616c20746f206c697374696e67207060008201527f7269636500000000000000000000000000000000000000000000000000000000602082015250565b60006134be602483612ade565b91506134c982613462565b604082019050919050565b600060208201905081810360008301526134ed816134b1565b9050919050565b7f506c65617365207375626d6974207468652061736b696e67207072696365206960008201527f6e206f7264657220746f20636f6d706c65746520746865207075726368617365602082015250565b6000613550604083612ade565b915061355b826134f4565b604082019050919050565b6000602082019050818103600083015261357f81613543565b9050919050565b600081905092915050565b600061359c82612ad3565b6135a68185613586565b93506135b6818560208601612aef565b80840191505092915050565b60006135ce8285613591565b91506135da8284613591565b91508190509392505050565b60008190508160005260206000209050919050565b60006020601f8301049050919050565b600082821b905092915050565b6000600883026136487fffffffffffffffffffffffffffffffffffffffffffffffffffffffffffffffff8261360b565b613652868361360b565b95508019841693508086168417925050509392505050565b6000819050919050565b600061368f61368a61368584612b85565b61366a565b612b85565b9050919050565b6000819050919050565b6136a983613674565b6136bd6136b582613696565b848454613618565b825550505050565b600090565b6136d26136c5565b6136dd8184846136a0565b505050565b5b81811015613701576136f66000826136ca565b6001810190506136e3565b5050565b601f82111561374657613717816135e6565b613720846135fb565b8101602085101561372f578190505b61374361373b856135fb565b8301826136e2565b50505b505050565b600082821c905092915050565b60006137696000198460080261374b565b1980831691505092915050565b60006137828383613758565b9150826002028217905092915050565b61379b82612ad3565b67ffffffffffffffff8111156137b4576137b3612edc565b5b6137be82546132a2565b6137c9828285613705565b600060209050601f8311600181146137fc57600084156137ea578287015190505b6137f48582613776565b86555061385c565b601f19841661380a866135e6565b60005b828110156138325784890151825560018201915060208501945060208101905061380d565b8683101561384f578489015161384b601f891682613758565b8355505b6001600288020188555050505b505050505050565b7f5072696365206d757374206265206174206c6561737420312077656900000000600082015250565b600061389a601c83612ade565b91506138a582613864565b602082019050919050565b600060208201905081810360008301526138c98161388d565b9050919050565b60006080820190506138e56000830187612c1a565b6138f26020830186612c1a565b6138ff6040830185612e28565b61390c6060830184612aa9565b95945050505050565b600081519050919050565b600082825260208201905092915050565b600061393c82613915565b6139468185613920565b9350613956818560208601612aef565b61395f81612b19565b840191505092915050565b600060808201905061397f6000830187612c1a565b61398c6020830186612c1a565b6139996040830185612e28565b81810360608301526139ab8184613931565b905095945050505050565b6000815190506139c581612a44565b92915050565b6000602082840312156139e1576139e0612a0e565b5b60006139ef848285016139b6565b91505092915050565b6000604082019050613a0d6000830185612c1a565b613a1a6020830184612e28565b9392505050565b7f4e487b7100000000000000000000000000000000000000000000000000000000600052601260045260246000fdfea264697066735822122041d616f22b6aadea63fcf9357a2bf0a2beb9bf2543fcf2f4890d397dfb31637c64736f6c634300081c0033",
  "linkReferences": {},
  "deployedLinkReferences": {}
}