{
  "_format": "hh-sol-artifact-1",
  "contractName": "NFTMarketplace",
  "sourceName": "contracts/NFTMarketplace.sol",
  "abi": [
    {
      "inputs": [],
      "stateMutability": "nonpayable",
      "type": "constructor"
    },
    {
      "inputs": [
        {
          "internalType": "address",
          "name": "sender",
          "type": "address"
        },
        {
          "internalType": "uint256",
          "name": "tokenId",
          "type": "uint256"
        },
        {
          "internalType": "address",
          "name": "owner",
          "type": "address"
        }
      ],
      "name": "ERC721IncorrectOwner",
      "type": "error"
    },
    {
      "inputs": [
        {
          "internalType": "address",
          "name": "operator",
          "type": "address"
        },
        {
          "internalType": "uint256",
          "name": "tokenId",
          "type": "uint256"
        }
      ],
      "name": "ERC721InsufficientApproval",
      "type": "error"
    },
    {
      "inputs": [
        {
          "internalType": "address",
          "name": "approver",
          "type": "address"
        }
      ],
      "name": "ERC721InvalidApprover",
      "type": "error"
    },
    {
      "inputs": [
        {
          "internalType": "address",
          "name": "operator",
          "type": "address"
        }
      ],
      "name": "ERC721InvalidOperator",
      "type": "error"
    },
    {
      "inputs": [
        {
          "internalType": "address",
          "name": "owner",
          "type": "address"
        }
      ],
      "name": "ERC721InvalidOwner",
      "type": "error"
    },
    {
      "inputs": [
        {
          "internalType": "address",
          "name": "receiver",
          "type": "address"
        }
      ],
      "name": "ERC721InvalidReceiver",
      "type": "error"
    },
    {
      "inputs": [
        {
          "internalType": "address",
          "name": "sender",
          "type": "address"
        }
      ],
      "name": "ERC721InvalidSender",
      "type": "error"
    },
    {
      "inputs": [
        {
          "internalType": "uint256",
          "name": "tokenId",
          "type": "uint256"
        }
      ],
      "name": "ERC721NonexistentToken",
      "type": "error"
    },
    {
      "anonymous": false,
      "inputs": [
        {
          "indexed": true,
          "internalType": "address",
          "name": "owner",
          "type": "address"
        },
        {
          "indexed": true,
          "internalType": "address",
          "name": "approved",
          "type": "address"
        },
        {
          "indexed": true,
          "internalType": "uint256",
          "name": "tokenId",
          "type": "uint256"
        }
      ],
      "name": "Approval",
      "type": "event"
    },
    {
      "anonymous": false,
      "inputs": [
        {
          "indexed": true,
          "internalType": "address",
          "name": "owner",
          "type": "address"
        },
        {
          "indexed": true,
          "internalType": "address",
          "name": "operator",
          "type": "address"
        },
        {
          "indexed": false,
          "internalType": "bool",
          "name": "approved",
          "type": "bool"
        }
      ],
      "name": "ApprovalForAll",
      "type": "event"
    },
    {
      "anonymous": false,
      "inputs": [
        {
          "indexed": false,
          "internalType": "uint256",
          "name": "_fromTokenId",
          "type": "uint256"
        },
        {
          "indexed": false,
          "internalType": "uint256",
          "name": "_toTokenId",
          "type": "uint256"
        }
      ],
      "name": "BatchMetadataUpdate",
      "type": "event"
    },
    {
      "anonymous": false,
      "inputs": [
        {
          "indexed": false,
          "internalType": "uint256",
          "name": "_tokenId",
          "type": "uint256"
        }
      ],
      "name": "MetadataUpdate",
      "type": "event"
    },
    {
      "anonymous": false,
      "inputs": [
        {
          "indexed": true,
          "internalType": "address",
          "name": "owner",
          "type": "address"
        },
        {
          "indexed": true,
          "internalType": "string",
          "name": "tokenURI",
          "type": "string"
        }
      ],
      "name": "NFTMinted",
      "type": "event"
    },
    {
      "anonymous": false,
      "inputs": [
        {
          "indexed": true,
          "internalType": "address",
          "name": "from",
          "type": "address"
        },
        {
          "indexed": true,
          "internalType": "address",
          "name": "to",
          "type": "address"
        },
        {
          "indexed": false,
          "internalType": "uint256",
          "name": "price",
          "type": "uint256"
        }
      ],
      "name": "NFTSelled",
      "type": "event"
    },
    {
      "anonymous": false,
      "inputs": [
        {
          "indexed": true,
          "internalType": "address",
          "name": "from",
          "type": "address"
        },
        {
          "indexed": true,
          "internalType": "address",
          "name": "to",
          "type": "address"
        },
        {
          "indexed": true,
          "internalType": "uint256",
          "name": "tokenId",
          "type": "uint256"
        }
      ],
      "name": "Transfer",
      "type": "event"
    },
    {
      "inputs": [
        {
          "internalType": "address",
          "name": "to",
          "type": "address"
        },
        {
          "internalType": "uint256",
          "name": "tokenId",
          "type": "uint256"
        }
      ],
      "name": "approve",
      "outputs": [],
      "stateMutability": "nonpayable",
      "type": "function"
    },
    {
      "inputs": [
        {
          "internalType": "address",
          "name": "owner",
          "type": "address"
        }
      ],
      "name": "balanceOf",
      "outputs": [
        {
          "internalType": "uint256",
          "name": "",
          "type": "uint256"
        }
      ],
      "stateMutability": "view",
      "type": "function"
    },
    {
      "inputs": [],
      "name": "currentId",
      "outputs": [
        {
          "internalType": "uint256",
          "name": "",
          "type": "uint256"
        }
      ],
      "stateMutability": "view",
      "type": "function"
    },
    {
      "inputs": [
        {
          "internalType": "uint256",
          "name": "tokenId",
          "type": "uint256"
        }
      ],
      "name": "getApproved",
      "outputs": [
        {
          "internalType": "address",
          "name": "",
          "type": "address"
        }
      ],
      "stateMutability": "view",
      "type": "function"
    },
    {
      "inputs": [
        {
          "internalType": "address",
          "name": "owner",
          "type": "address"
        },
        {
          "internalType": "address",
          "name": "operator",
          "type": "address"
        }
      ],
      "name": "isApprovedForAll",
      "outputs": [
        {
          "internalType": "bool",
          "name": "",
          "type": "bool"
        }
      ],
      "stateMutability": "view",
      "type": "function"
    },
    {
      "inputs": [],
      "name": "listNFTs",
      "outputs": [
        {
          "components": [
            {
              "internalType": "uint256",
              "name": "id",
              "type": "uint256"
            },
            {
              "internalType": "address",
              "name": "owner",
              "type": "address"
            },
            {
              "internalType": "string",
              "name": "tokenURI",
              "type": "string"
            },
            {
              "internalType": "uint256",
              "name": "price",
              "type": "uint256"
            }
          ],
          "internalType": "struct NFTMarketplace.NFT[]",
          "name": "",
          "type": "tuple[]"
        }
      ],
      "stateMutability": "view",
      "type": "function"
    },
    {
      "inputs": [],
      "name": "listOwnedNFTs",
      "outputs": [
        {
          "components": [
            {
              "internalType": "uint256",
              "name": "id",
              "type": "uint256"
            },
            {
              "internalType": "address",
              "name": "owner",
              "type": "address"
            },
            {
              "internalType": "string",
              "name": "tokenURI",
              "type": "string"
            },
            {
              "internalType": "uint256",
              "name": "price",
              "type": "uint256"
            }
          ],
          "internalType": "struct NFTMarketplace.NFT[]",
          "name": "",
          "type": "tuple[]"
        }
      ],
      "stateMutability": "view",
      "type": "function"
    },
    {
      "inputs": [
        {
          "internalType": "string",
          "name": "_tokenURI",
          "type": "string"
        },
        {
          "internalType": "uint256",
          "name": "_price",
          "type": "uint256"
        }
      ],
      "name": "mintNFT",
      "outputs": [],
      "stateMutability": "nonpayable",
      "type": "function"
    },
    {
      "inputs": [],
      "name": "name",
      "outputs": [
        {
          "internalType": "string",
          "name": "",
          "type": "string"
        }
      ],
      "stateMutability": "view",
      "type": "function"
    },
    {
      "inputs": [
        {
          "internalType": "uint256",
          "name": "tokenId",
          "type": "uint256"
        }
      ],
      "name": "ownerOf",
      "outputs": [
        {
          "internalType": "address",
          "name": "",
          "type": "address"
        }
      ],
      "stateMutability": "view",
      "type": "function"
    },
    {
      "inputs": [
        {
          "internalType": "address",
          "name": "from",
          "type": "address"
        },
        {
          "internalType": "address",
          "name": "to",
          "type": "address"
        },
        {
          "internalType": "uint256",
          "name": "tokenId",
          "type": "uint256"
        }
      ],
      "name": "safeTransferFrom",
      "outputs": [],
      "stateMutability": "nonpayable",
      "type": "function"
    },
    {
      "inputs": [
        {
          "internalType": "address",
          "name": "from",
          "type": "address"
        },
        {
          "internalType": "address",
          "name": "to",
          "type": "address"
        },
        {
          "internalType": "uint256",
          "name": "tokenId",
          "type": "uint256"
        },
        {
          "internalType": "bytes",
          "name": "data",
          "type": "bytes"
        }
      ],
      "name": "safeTransferFrom",
      "outputs": [],
      "stateMutability": "nonpayable",
      "type": "function"
    },
    {
      "inputs": [
        {
          "internalType": "uint256",
          "name": "_id",
          "type": "uint256"
        },
        {
          "internalType": "address",
          "name": "_to",
          "type": "address"
        }
      ],
      "name": "sellNFT",
      "outputs": [],
      "stateMutability": "payable",
      "type": "function"
    },
    {
      "inputs": [
        {
          "internalType": "address",
          "name": "operator",
          "type": "address"
        },
        {
          "internalType": "bool",
          "name": "approved",
          "type": "bool"
        }
      ],
      "name": "setApprovalForAll",
      "outputs": [],
      "stateMutability": "nonpayable",
      "type": "function"
    },
    {
      "inputs": [
        {
          "internalType": "bytes4",
          "name": "interfaceId",
          "type": "bytes4"
        }
      ],
      "name": "supportsInterface",
      "outputs": [
        {
          "internalType": "bool",
          "name": "",
          "type": "bool"
        }
      ],
      "stateMutability": "view",
      "type": "function"
    },
    {
      "inputs": [],
      "name": "symbol",
      "outputs": [
        {
          "internalType": "string",
          "name": "",
          "type": "string"
        }
      ],
      "stateMutability": "view",
      "type": "function"
    },
    {
      "inputs": [
        {
          "internalType": "uint256",
          "name": "tokenId",
          "type": "uint256"
        }
      ],
      "name": "tokenURI",
      "outputs": [
        {
          "internalType": "string",
          "name": "",
          "type": "string"
        }
      ],
      "stateMutability": "view",
      "type": "function"
    },
    {
      "inputs": [
        {
          "internalType": "address",
          "name": "from",
          "type": "address"
        },
        {
          "internalType": "address",
          "name": "to",
          "type": "address"
        },
        {
          "internalType": "uint256",
          "name": "tokenId",
          "type": "uint256"
        }
      ],
      "name": "transferFrom",
      "outputs": [],
      "stateMutability": "nonpayable",
      "type": "function"
    }
  ],
  "bytecode": "0x608060405234801561001057600080fd5b506040518060400160405280600f81526020017f4e4654204d61726b6574706c61636500000000000000000000000000000000008152506040518060400160405280600481526020017f4e46544d00000000000000000000000000000000000000000000000000000000815250816000908161008c9190610335565b50806001908161009c9190610335565b50505033600860006101000a81548173ffffffffffffffffffffffffffffffffffffffff021916908373ffffffffffffffffffffffffffffffffffffffff160217905550610407565b600081519050919050565b7f4e487b7100000000000000000000000000000000000000000000000000000000600052604160045260246000fd5b7f4e487b7100000000000000000000000000000000000000000000000000000000600052602260045260246000fd5b6000600282049050600182168061016657607f821691505b6020821081036101795761017861011f565b5b50919050565b60008190508160005260206000209050919050565b60006020601f8301049050919050565b600082821b905092915050565b6000600883026101e17fffffffffffffffffffffffffffffffffffffffffffffffffffffffffffffffff826101a4565b6101eb86836101a4565b95508019841693508086168417925050509392505050565b6000819050919050565b6000819050919050565b600061023261022d61022884610203565b61020d565b610203565b9050919050565b6000819050919050565b61024c83610217565b61026061025882610239565b8484546101b1565b825550505050565b600090565b610275610268565b610280818484610243565b505050565b5b818110156102a45761029960008261026d565b600181019050610286565b5050565b601f8211156102e9576102ba8161017f565b6102c384610194565b810160208510156102d2578190505b6102e66102de85610194565b830182610285565b50505b505050565b600082821c905092915050565b600061030c600019846008026102ee565b1980831691505092915050565b600061032583836102fb565b9150826002028217905092915050565b61033e826100e5565b67ffffffffffffffff811115610357576103566100f0565b5b610361825461014e565b61036c8282856102a8565b600060209050601f83116001811461039f576000841561038d578287015190505b6103978582610319565b8655506103ff565b601f1984166103ad8661017f565b60005b828110156103d5578489015182556001820191506020850194506020810190506103b0565b868310156103f257848901516103ee601f8916826102fb565b8355505b6001600288020188555050505b505050505050565b61354a806104166000396000f3fe6080604052600436106101095760003560e01c80635afa3a7211610095578063a22cb46511610064578063a22cb4651461036e578063b88d4fde14610397578063c87b56dd146103c0578063e00dd161146103fd578063e985e9c51461042857610109565b80635afa3a72146102a05780636352211e146102c957806370a082311461030657806395d89b411461034357610109565b806323b872dd116100dc57806323b872dd146101dc578063309506c61461020557806342842e0e1461023057806349bdf9d6146102595780635728ad491461028457610109565b806301ffc9a71461010e57806306fdde031461014b578063081812fc14610176578063095ea7b3146101b3575b600080fd5b34801561011a57600080fd5b506101356004803603810190610130919061251d565b610465565b6040516101429190612565565b60405180910390f35b34801561015757600080fd5b506101606104c6565b60405161016d9190612610565b60405180910390f35b34801561018257600080fd5b5061019d60048036038101906101989190612668565b610558565b6040516101aa91906126d6565b60405180910390f35b3480156101bf57600080fd5b506101da60048036038101906101d5919061271d565b610574565b005b3480156101e857600080fd5b5061020360048036038101906101fe919061275d565b61058a565b005b34801561021157600080fd5b5061021a61068c565b604051610227919061293d565b60405180910390f35b34801561023c57600080fd5b506102576004803603810190610252919061275d565b610a28565b005b34801561026557600080fd5b5061026e610a48565b60405161027b919061293d565b60405180910390f35b61029e6004803603810190610299919061295f565b610be0565b005b3480156102ac57600080fd5b506102c760048036038101906102c29190612ad4565b610f49565b005b3480156102d557600080fd5b506102f060048036038101906102eb9190612668565b611161565b6040516102fd91906126d6565b60405180910390f35b34801561031257600080fd5b5061032d60048036038101906103289190612b30565b611173565b60405161033a9190612b6c565b60405180910390f35b34801561034f57600080fd5b5061035861122d565b6040516103659190612610565b60405180910390f35b34801561037a57600080fd5b5061039560048036038101906103909190612bb3565b6112bf565b005b3480156103a357600080fd5b506103be60048036038101906103b99190612c94565b6112d5565b005b3480156103cc57600080fd5b506103e760048036038101906103e29190612668565b6112fa565b6040516103f49190612610565b60405180910390f35b34801561040957600080fd5b5061041261140d565b60405161041f9190612b6c565b60405180910390f35b34801561043457600080fd5b5061044f600480360381019061044a9190612d17565b611413565b60405161045c9190612565565b60405180910390f35b6000634906490660e01b7bffffffffffffffffffffffffffffffffffffffffffffffffffffffff1916827bffffffffffffffffffffffffffffffffffffffffffffffffffffffff191614806104bf57506104be826114a7565b5b9050919050565b6060600080546104d590612d86565b80601f016020809104026020016040519081016040528092919081815260200182805461050190612d86565b801561054e5780601f106105235761010080835404028352916020019161054e565b820191906000526020600020905b81548152906001019060200180831161053157829003601f168201915b5050505050905090565b600061056382611589565b5061056d82611611565b9050919050565b610586828261058161164e565b611656565b5050565b600073ffffffffffffffffffffffffffffffffffffffff168273ffffffffffffffffffffffffffffffffffffffff16036105fc5760006040517f64a0ae920000000000000000000000000000000000000000000000000000000081526004016105f391906126d6565b60405180910390fd5b6000610610838361060b61164e565b611668565b90508373ffffffffffffffffffffffffffffffffffffffff168173ffffffffffffffffffffffffffffffffffffffff1614610686578382826040517f64283d7b00000000000000000000000000000000000000000000000000000000815260040161067d93929190612db7565b60405180910390fd5b50505050565b6060600080600090505b60098054905081101561073e57600a6000600983815481106106bb576106ba612dee565b5b9060005260206000200160009054906101000a900473ffffffffffffffffffffffffffffffffffffffff1673ffffffffffffffffffffffffffffffffffffffff1673ffffffffffffffffffffffffffffffffffffffff168152602001908152602001600020805490508261072f9190612e4c565b91508080600101915050610696565b5060008167ffffffffffffffff81111561075b5761075a6129a9565b5b60405190808252806020026020018201604052801561079457816020015b610781612473565b8152602001906001900390816107795790505b5090506000805b600980549050811015610a1e5760005b600a6000600984815481106107c3576107c2612dee565b5b9060005260206000200160009054906101000a900473ffffffffffffffffffffffffffffffffffffffff1673ffffffffffffffffffffffffffffffffffffffff1673ffffffffffffffffffffffffffffffffffffffff16815260200190815260200160002080549050811015610a1057600a60006009848154811061084b5761084a612dee565b5b9060005260206000200160009054906101000a900473ffffffffffffffffffffffffffffffffffffffff1673ffffffffffffffffffffffffffffffffffffffff1673ffffffffffffffffffffffffffffffffffffffff16815260200190815260200160002081815481106108c2576108c1612dee565b5b9060005260206000209060040201604051806080016040529081600082015481526020016001820160009054906101000a900473ffffffffffffffffffffffffffffffffffffffff1673ffffffffffffffffffffffffffffffffffffffff1673ffffffffffffffffffffffffffffffffffffffff16815260200160028201805461094b90612d86565b80601f016020809104026020016040519081016040528092919081815260200182805461097790612d86565b80156109c45780601f10610999576101008083540402835291602001916109c4565b820191906000526020600020905b8154815290600101906020018083116109a757829003601f168201915b505050505081526020016003820154815250508484815181106109ea576109e9612dee565b5b60200260200101819052508280610a0090612e80565b93505080806001019150506107ab565b50808060010191505061079b565b5081935050505090565b610a43838383604051806020016040528060008152506112d5565b505050565b6060600a60003373ffffffffffffffffffffffffffffffffffffffff1673ffffffffffffffffffffffffffffffffffffffff168152602001908152602001600020805480602002602001604051908101604052809291908181526020016000905b82821015610bd75783829060005260206000209060040201604051806080016040529081600082015481526020016001820160009054906101000a900473ffffffffffffffffffffffffffffffffffffffff1673ffffffffffffffffffffffffffffffffffffffff1673ffffffffffffffffffffffffffffffffffffffff168152602001600282018054610b3c90612d86565b80601f0160208091040260200160405190810160405280929190818152602001828054610b6890612d86565b8015610bb55780601f10610b8a57610100808354040283529160200191610bb5565b820191906000526020600020905b815481529060010190602001808311610b9857829003601f168201915b5050505050815260200160038201548152505081526020019060010190610aa9565b50505050905090565b6000610beb33611882565b905080610c2d576040517f08c379a0000000000000000000000000000000000000000000000000000000008152600401610c2490612f14565b60405180910390fd5b60008080600090505b600a60003373ffffffffffffffffffffffffffffffffffffffff1673ffffffffffffffffffffffffffffffffffffffff16815260200190815260200160002080549050811015610d025785600a60003373ffffffffffffffffffffffffffffffffffffffff1673ffffffffffffffffffffffffffffffffffffffff1681526020019081526020016000208281548110610cd257610cd1612dee565b5b90600052602060002090600402016000015403610cf55760019250809150610d02565b8080600101915050610c36565b5081610d43576040517f08c379a0000000000000000000000000000000000000000000000000000000008152600401610d3a90612fa6565b60405180910390fd5b6000600a60003373ffffffffffffffffffffffffffffffffffffffff1673ffffffffffffffffffffffffffffffffffffffff1681526020019081526020016000208281548110610d9657610d95612dee565b5b9060005260206000209060040201905034816003015414610dec576040517f08c379a0000000000000000000000000000000000000000000000000000000008152600401610de390613012565b60405180910390fd5b60003373ffffffffffffffffffffffffffffffffffffffff1634604051610e1290613063565b60006040518083038185875af1925050503d8060008114610e4f576040519150601f19603f3d011682016040523d82523d6000602084013e610e54565b606091505b5050905080610e98576040517f08c379a0000000000000000000000000000000000000000000000000000000008152600401610e8f906130c4565b60405180910390fd5b858260010160006101000a81548173ffffffffffffffffffffffffffffffffffffffff021916908373ffffffffffffffffffffffffffffffffffffffff1602179055508573ffffffffffffffffffffffffffffffffffffffff163373ffffffffffffffffffffffffffffffffffffffff167f067c98e94aee7094ccba284d7e3d3698f62cff2f728fd75cfc72f2c87121a0aa34604051610f389190612b6c565b60405180910390a350505050505050565b60076000815480929190610f5c90612e80565b91905055506000604051806080016040528060075481526020013373ffffffffffffffffffffffffffffffffffffffff168152602001848152602001838152509050610fa733611882565b61100f576009339080600181540180825580915050600190039060005260206000200160009091909190916101000a81548173ffffffffffffffffffffffffffffffffffffffff021916908373ffffffffffffffffffffffffffffffffffffffff1602179055505b600a60003373ffffffffffffffffffffffffffffffffffffffff1673ffffffffffffffffffffffffffffffffffffffff1681526020019081526020016000208190806001815401808255809150506001900390600052602060002090600402016000909190919091506000820151816000015560208201518160010160006101000a81548173ffffffffffffffffffffffffffffffffffffffff021916908373ffffffffffffffffffffffffffffffffffffffff16021790555060408201518160020190816110de9190613290565b506060820151816003015550506110f73360075461192a565b61110360075484611948565b82604051611111919061339e565b60405180910390203373ffffffffffffffffffffffffffffffffffffffff167f371f376692dd846fa34380a8fd44c6a140dc5cd442cd8ae5657963685f17ebed60405160405180910390a3505050565b600061116c82611589565b9050919050565b60008073ffffffffffffffffffffffffffffffffffffffff168273ffffffffffffffffffffffffffffffffffffffff16036111e65760006040517f89c62b640000000000000000000000000000000000000000000000000000000081526004016111dd91906126d6565b60405180910390fd5b600360008373ffffffffffffffffffffffffffffffffffffffff1673ffffffffffffffffffffffffffffffffffffffff168152602001908152602001600020549050919050565b60606001805461123c90612d86565b80601f016020809104026020016040519081016040528092919081815260200182805461126890612d86565b80156112b55780601f1061128a576101008083540402835291602001916112b5565b820191906000526020600020905b81548152906001019060200180831161129857829003601f168201915b5050505050905090565b6112d16112ca61164e565b83836119a4565b5050565b6112e084848461058a565b6112f46112eb61164e565b85858585611b13565b50505050565b606061130582611589565b50600060066000848152602001908152602001600020805461132690612d86565b80601f016020809104026020016040519081016040528092919081815260200182805461135290612d86565b801561139f5780601f106113745761010080835404028352916020019161139f565b820191906000526020600020905b81548152906001019060200180831161138257829003601f168201915b5050505050905060006113b0611cc4565b905060008151036113c5578192505050611408565b6000825111156113fa5780826040516020016113e29291906133b5565b60405160208183030381529060405292505050611408565b61140384611cdb565b925050505b919050565b60075481565b6000600560008473ffffffffffffffffffffffffffffffffffffffff1673ffffffffffffffffffffffffffffffffffffffff16815260200190815260200160002060008373ffffffffffffffffffffffffffffffffffffffff1673ffffffffffffffffffffffffffffffffffffffff16815260200190815260200160002060009054906101000a900460ff16905092915050565b60007f80ac58cd000000000000000000000000000000000000000000000000000000007bffffffffffffffffffffffffffffffffffffffffffffffffffffffff1916827bffffffffffffffffffffffffffffffffffffffffffffffffffffffff1916148061157257507f5b5e139f000000000000000000000000000000000000000000000000000000007bffffffffffffffffffffffffffffffffffffffffffffffffffffffff1916827bffffffffffffffffffffffffffffffffffffffffffffffffffffffff1916145b80611582575061158182611d44565b5b9050919050565b60008061159583611dae565b9050600073ffffffffffffffffffffffffffffffffffffffff168173ffffffffffffffffffffffffffffffffffffffff160361160857826040517f7e2732890000000000000000000000000000000000000000000000000000000081526004016115ff9190612b6c565b60405180910390fd5b80915050919050565b60006004600083815260200190815260200160002060009054906101000a900473ffffffffffffffffffffffffffffffffffffffff169050919050565b600033905090565b6116638383836001611deb565b505050565b60008061167484611dae565b9050600073ffffffffffffffffffffffffffffffffffffffff168373ffffffffffffffffffffffffffffffffffffffff16146116b6576116b5818486611fb0565b5b600073ffffffffffffffffffffffffffffffffffffffff168173ffffffffffffffffffffffffffffffffffffffff1614611747576116f8600085600080611deb565b6001600360008373ffffffffffffffffffffffffffffffffffffffff1673ffffffffffffffffffffffffffffffffffffffff168152602001908152602001600020600082825403925050819055505b600073ffffffffffffffffffffffffffffffffffffffff168573ffffffffffffffffffffffffffffffffffffffff16146117ca576001600360008773ffffffffffffffffffffffffffffffffffffffff1673ffffffffffffffffffffffffffffffffffffffff168152602001908152602001600020600082825401925050819055505b846002600086815260200190815260200160002060006101000a81548173ffffffffffffffffffffffffffffffffffffffff021916908373ffffffffffffffffffffffffffffffffffffffff160217905550838573ffffffffffffffffffffffffffffffffffffffff168273ffffffffffffffffffffffffffffffffffffffff167fddf252ad1be2c89b69c2b068fc378daa952ba7f163c4a11628f55a4df523b3ef60405160405180910390a4809150509392505050565b600080600090505b60098054905081101561191f578273ffffffffffffffffffffffffffffffffffffffff16600982815481106118c2576118c1612dee565b5b9060005260206000200160009054906101000a900473ffffffffffffffffffffffffffffffffffffffff1673ffffffffffffffffffffffffffffffffffffffff1603611912576001915050611925565b808060010191505061188a565b50600090505b919050565b611944828260405180602001604052806000815250612074565b5050565b806006600084815260200190815260200160002090816119689190613290565b507ff8e1a15aba9398e019f0b49df1a4fde98ee17ae345cb5f6b5e2c27f5033e8ce7826040516119989190612b6c565b60405180910390a15050565b600073ffffffffffffffffffffffffffffffffffffffff168273ffffffffffffffffffffffffffffffffffffffff1603611a1557816040517f5b08ba18000000000000000000000000000000000000000000000000000000008152600401611a0c91906126d6565b60405180910390fd5b80600560008573ffffffffffffffffffffffffffffffffffffffff1673ffffffffffffffffffffffffffffffffffffffff16815260200190815260200160002060008473ffffffffffffffffffffffffffffffffffffffff1673ffffffffffffffffffffffffffffffffffffffff16815260200190815260200160002060006101000a81548160ff0219169083151502179055508173ffffffffffffffffffffffffffffffffffffffff168373ffffffffffffffffffffffffffffffffffffffff167f17307eab39ab6107e8899845ad3d59bd9653f200f220920489ca2b5937696c3183604051611b069190612565565b60405180910390a3505050565b60008373ffffffffffffffffffffffffffffffffffffffff163b1115611cbd578273ffffffffffffffffffffffffffffffffffffffff1663150b7a02868685856040518563ffffffff1660e01b8152600401611b72949392919061342e565b6020604051808303816000875af1925050508015611bae57506040513d601f19601f82011682018060405250810190611bab919061348f565b60015b611c32573d8060008114611bde576040519150601f19603f3d011682016040523d82523d6000602084013e611be3565b606091505b506000815103611c2a57836040517f64a0ae92000000000000000000000000000000000000000000000000000000008152600401611c2191906126d6565b60405180910390fd5b805181602001fd5b63150b7a0260e01b7bffffffffffffffffffffffffffffffffffffffffffffffffffffffff1916817bffffffffffffffffffffffffffffffffffffffffffffffffffffffff191614611cbb57836040517f64a0ae92000000000000000000000000000000000000000000000000000000008152600401611cb291906126d6565b60405180910390fd5b505b5050505050565b606060405180602001604052806000815250905090565b6060611ce682611589565b506000611cf1611cc4565b90506000815111611d115760405180602001604052806000815250611d3c565b80611d1b84612098565b604051602001611d2c9291906133b5565b6040516020818303038152906040525b915050919050565b60007f01ffc9a7000000000000000000000000000000000000000000000000000000007bffffffffffffffffffffffffffffffffffffffffffffffffffffffff1916827bffffffffffffffffffffffffffffffffffffffffffffffffffffffff1916149050919050565b60006002600083815260200190815260200160002060009054906101000a900473ffffffffffffffffffffffffffffffffffffffff169050919050565b8080611e245750600073ffffffffffffffffffffffffffffffffffffffff168273ffffffffffffffffffffffffffffffffffffffff1614155b15611f58576000611e3484611589565b9050600073ffffffffffffffffffffffffffffffffffffffff168373ffffffffffffffffffffffffffffffffffffffff1614158015611e9f57508273ffffffffffffffffffffffffffffffffffffffff168173ffffffffffffffffffffffffffffffffffffffff1614155b8015611eb25750611eb08184611413565b155b15611ef457826040517fa9fbf51f000000000000000000000000000000000000000000000000000000008152600401611eeb91906126d6565b60405180910390fd5b8115611f5657838573ffffffffffffffffffffffffffffffffffffffff168273ffffffffffffffffffffffffffffffffffffffff167f8c5be1e5ebec7d5bd14f71427d1e84f3dd0314c0f7b2291e5b200ac8c7c3b92560405160405180910390a45b505b836004600085815260200190815260200160002060006101000a81548173ffffffffffffffffffffffffffffffffffffffff021916908373ffffffffffffffffffffffffffffffffffffffff16021790555050505050565b611fbb838383612166565b61206f57600073ffffffffffffffffffffffffffffffffffffffff168373ffffffffffffffffffffffffffffffffffffffff160361203057806040517f7e2732890000000000000000000000000000000000000000000000000000000081526004016120279190612b6c565b60405180910390fd5b81816040517f177e802f0000000000000000000000000000000000000000000000000000000081526004016120669291906134bc565b60405180910390fd5b505050565b61207e8383612227565b61209361208961164e565b6000858585611b13565b505050565b6060600060016120a784612320565b01905060008167ffffffffffffffff8111156120c6576120c56129a9565b5b6040519080825280601f01601f1916602001820160405280156120f85781602001600182028036833780820191505090505b509050600082602001820190505b60011561215b578080600190039150507f3031323334353637383961626364656600000000000000000000000000000000600a86061a8153600a858161214f5761214e6134e5565b5b04945060008503612106575b819350505050919050565b60008073ffffffffffffffffffffffffffffffffffffffff168373ffffffffffffffffffffffffffffffffffffffff161415801561221e57508273ffffffffffffffffffffffffffffffffffffffff168473ffffffffffffffffffffffffffffffffffffffff1614806121df57506121de8484611413565b5b8061221d57508273ffffffffffffffffffffffffffffffffffffffff1661220583611611565b73ffffffffffffffffffffffffffffffffffffffff16145b5b90509392505050565b600073ffffffffffffffffffffffffffffffffffffffff168273ffffffffffffffffffffffffffffffffffffffff16036122995760006040517f64a0ae9200000000000000000000000000000000000000000000000000000000815260040161229091906126d6565b60405180910390fd5b60006122a783836000611668565b9050600073ffffffffffffffffffffffffffffffffffffffff168173ffffffffffffffffffffffffffffffffffffffff161461231b5760006040517f73c6ac6e00000000000000000000000000000000000000000000000000000000815260040161231291906126d6565b60405180910390fd5b505050565b600080600090507a184f03e93ff9f4daa797ed6e38ed64bf6a1f010000000000000000831061237e577a184f03e93ff9f4daa797ed6e38ed64bf6a1f0100000000000000008381612374576123736134e5565b5b0492506040810190505b6d04ee2d6d415b85acef810000000083106123bb576d04ee2d6d415b85acef810000000083816123b1576123b06134e5565b5b0492506020810190505b662386f26fc1000083106123ea57662386f26fc1000083816123e0576123df6134e5565b5b0492506010810190505b6305f5e1008310612413576305f5e1008381612409576124086134e5565b5b0492506008810190505b612710831061243857612710838161242e5761242d6134e5565b5b0492506004810190505b6064831061245b5760648381612451576124506134e5565b5b0492506002810190505b600a831061246a576001810190505b80915050919050565b604051806080016040528060008152602001600073ffffffffffffffffffffffffffffffffffffffff16815260200160608152602001600081525090565b6000604051905090565b600080fd5b600080fd5b60007fffffffff0000000000000000000000000000000000000000000000000000000082169050919050565b6124fa816124c5565b811461250557600080fd5b50565b600081359050612517816124f1565b92915050565b600060208284031215612533576125326124bb565b5b600061254184828501612508565b91505092915050565b60008115159050919050565b61255f8161254a565b82525050565b600060208201905061257a6000830184612556565b92915050565b600081519050919050565b600082825260208201905092915050565b60005b838110156125ba57808201518184015260208101905061259f565b60008484015250505050565b6000601f19601f8301169050919050565b60006125e282612580565b6125ec818561258b565b93506125fc81856020860161259c565b612605816125c6565b840191505092915050565b6000602082019050818103600083015261262a81846125d7565b905092915050565b6000819050919050565b61264581612632565b811461265057600080fd5b50565b6000813590506126628161263c565b92915050565b60006020828403121561267e5761267d6124bb565b5b600061268c84828501612653565b91505092915050565b600073ffffffffffffffffffffffffffffffffffffffff82169050919050565b60006126c082612695565b9050919050565b6126d0816126b5565b82525050565b60006020820190506126eb60008301846126c7565b92915050565b6126fa816126b5565b811461270557600080fd5b50565b600081359050612717816126f1565b92915050565b60008060408385031215612734576127336124bb565b5b600061274285828601612708565b925050602061275385828601612653565b9150509250929050565b600080600060608486031215612776576127756124bb565b5b600061278486828701612708565b935050602061279586828701612708565b92505060406127a686828701612653565b9150509250925092565b600081519050919050565b600082825260208201905092915050565b6000819050602082019050919050565b6127e581612632565b82525050565b6127f4816126b5565b82525050565b600082825260208201905092915050565b600061281682612580565b61282081856127fa565b935061283081856020860161259c565b612839816125c6565b840191505092915050565b600060808301600083015161285c60008601826127dc565b50602083015161286f60208601826127eb565b5060408301518482036040860152612887828261280b565b915050606083015161289c60608601826127dc565b508091505092915050565b60006128b38383612844565b905092915050565b6000602082019050919050565b60006128d3826127b0565b6128dd81856127bb565b9350836020820285016128ef856127cc565b8060005b8581101561292b578484038952815161290c85826128a7565b9450612917836128bb565b925060208a019950506001810190506128f3565b50829750879550505050505092915050565b6000602082019050818103600083015261295781846128c8565b905092915050565b60008060408385031215612976576129756124bb565b5b600061298485828601612653565b925050602061299585828601612708565b9150509250929050565b600080fd5b600080fd5b7f4e487b7100000000000000000000000000000000000000000000000000000000600052604160045260246000fd5b6129e1826125c6565b810181811067ffffffffffffffff82111715612a00576129ff6129a9565b5b80604052505050565b6000612a136124b1565b9050612a1f82826129d8565b919050565b600067ffffffffffffffff821115612a3f57612a3e6129a9565b5b612a48826125c6565b9050602081019050919050565b82818337600083830152505050565b6000612a77612a7284612a24565b612a09565b905082815260208101848484011115612a9357612a926129a4565b5b612a9e848285612a55565b509392505050565b600082601f830112612abb57612aba61299f565b5b8135612acb848260208601612a64565b91505092915050565b60008060408385031215612aeb57612aea6124bb565b5b600083013567ffffffffffffffff811115612b0957612b086124c0565b5b612b1585828601612aa6565b9250506020612b2685828601612653565b9150509250929050565b600060208284031215612b4657612b456124bb565b5b6000612b5484828501612708565b91505092915050565b612b6681612632565b82525050565b6000602082019050612b816000830184612b5d565b92915050565b612b908161254a565b8114612b9b57600080fd5b50565b600081359050612bad81612b87565b92915050565b60008060408385031215612bca57612bc96124bb565b5b6000612bd885828601612708565b9250506020612be985828601612b9e565b9150509250929050565b600067ffffffffffffffff821115612c0e57612c0d6129a9565b5b612c17826125c6565b9050602081019050919050565b6000612c37612c3284612bf3565b612a09565b905082815260208101848484011115612c5357612c526129a4565b5b612c5e848285612a55565b509392505050565b600082601f830112612c7b57612c7a61299f565b5b8135612c8b848260208601612c24565b91505092915050565b60008060008060808587031215612cae57612cad6124bb565b5b6000612cbc87828801612708565b9450506020612ccd87828801612708565b9350506040612cde87828801612653565b925050606085013567ffffffffffffffff811115612cff57612cfe6124c0565b5b612d0b87828801612c66565b91505092959194509250565b60008060408385031215612d2e57612d2d6124bb565b5b6000612d3c85828601612708565b9250506020612d4d85828601612708565b9150509250929050565b7f4e487b7100000000000000000000000000000000000000000000000000000000600052602260045260246000fd5b60006002820490506001821680612d9e57607f821691505b602082108103612db157612db0612d57565b5b50919050565b6000606082019050612dcc60008301866126c7565b612dd96020830185612b5d565b612de660408301846126c7565b949350505050565b7f4e487b7100000000000000000000000000000000000000000000000000000000600052603260045260246000fd5b7f4e487b7100000000000000000000000000000000000000000000000000000000600052601160045260246000fd5b6000612e5782612632565b9150612e6283612632565b9250828201905080821115612e7a57612e79612e1d565b5b92915050565b6000612e8b82612632565b91507fffffffffffffffffffffffffffffffffffffffffffffffffffffffffffffffff8203612ebd57612ebc612e1d565b5b600182019050919050565b7f4f6e6c79206f776e65722063616e2073656c6c204e4654000000000000000000600082015250565b6000612efe60178361258b565b9150612f0982612ec8565b602082019050919050565b60006020820190508181036000830152612f2d81612ef1565b9050919050565b7f4e4654206e6f7420666f756e6420696e2073656e646572277320636f6c6c656360008201527f74696f6e00000000000000000000000000000000000000000000000000000000602082015250565b6000612f9060248361258b565b9150612f9b82612f34565b604082019050919050565b60006020820190508181036000830152612fbf81612f83565b9050919050565b7f5072696365206d757374206d61746368207468652073656e742076616c756500600082015250565b6000612ffc601f8361258b565b915061300782612fc6565b602082019050919050565b6000602082019050818103600083015261302b81612fef565b9050919050565b600081905092915050565b50565b600061304d600083613032565b91506130588261303d565b600082019050919050565b600061306e82613040565b9150819050919050565b7f5061796d656e74207472616e73666572206661696c6564000000000000000000600082015250565b60006130ae60178361258b565b91506130b982613078565b602082019050919050565b600060208201905081810360008301526130dd816130a1565b9050919050565b60008190508160005260206000209050919050565b60006020601f8301049050919050565b600082821b905092915050565b6000600883026131467fffffffffffffffffffffffffffffffffffffffffffffffffffffffffffffffff82613109565b6131508683613109565b95508019841693508086168417925050509392505050565b6000819050919050565b600061318d61318861318384612632565b613168565b612632565b9050919050565b6000819050919050565b6131a783613172565b6131bb6131b382613194565b848454613116565b825550505050565b600090565b6131d06131c3565b6131db81848461319e565b505050565b5b818110156131ff576131f46000826131c8565b6001810190506131e1565b5050565b601f82111561324457613215816130e4565b61321e846130f9565b8101602085101561322d578190505b613241613239856130f9565b8301826131e0565b50505b505050565b600082821c905092915050565b600061326760001984600802613249565b1980831691505092915050565b60006132808383613256565b9150826002028217905092915050565b61329982612580565b67ffffffffffffffff8111156132b2576132b16129a9565b5b6132bc8254612d86565b6132c7828285613203565b600060209050601f8311600181146132fa57600084156132e8578287015190505b6132f28582613274565b86555061335a565b601f198416613308866130e4565b60005b828110156133305784890151825560018201915060208501945060208101905061330b565b8683101561334d5784890151613349601f891682613256565b8355505b6001600288020188555050505b505050505050565b600081905092915050565b600061337882612580565b6133828185613362565b935061339281856020860161259c565b80840191505092915050565b60006133aa828461336d565b915081905092915050565b60006133c1828561336d565b91506133cd828461336d565b91508190509392505050565b600081519050919050565b600082825260208201905092915050565b6000613400826133d9565b61340a81856133e4565b935061341a81856020860161259c565b613423816125c6565b840191505092915050565b600060808201905061344360008301876126c7565b61345060208301866126c7565b61345d6040830185612b5d565b818103606083015261346f81846133f5565b905095945050505050565b600081519050613489816124f1565b92915050565b6000602082840312156134a5576134a46124bb565b5b60006134b38482850161347a565b91505092915050565b60006040820190506134d160008301856126c7565b6134de6020830184612b5d565b9392505050565b7f4e487b7100000000000000000000000000000000000000000000000000000000600052601260045260246000fdfea2646970667358221220ff3242c343c4776aa7bc754f8b65542251077b265f7e5d9532a086b787cfe35764736f6c634300081c0033",
  "linkReferences": {},
  "deployedLinkReferences": {}
}